:020000040800F2
:100000004807002029020008AB070008A7070008DE
:10001000A907000863040008391200080000000066
:100020000000000000000000000000003D09000882
:10003000F106000800000000310800083F09000830
:10004000430200084302000843020008430200087C
:10005000430200084302000843020008430200086C
:10006000430200084302000843020008430200085C
:10007000430200084302000843020008430200084C
:10008000430200084302000843020008430200083C
:10009000430200084302000843020008430200082C
:1000A000430200084302000843020008430200081C
:1000B000430200084302000843020008430200080C
:1000C00043020008430200084302000843020008FC
:1000D00043020008450A00084302000843020008E2
:1000E00043020008430200084302000843020008DC
:1000F00043020008430200084302000843020008CC
:1001000043020008430200084302000843020008BB
:1001100043020008430200084302000843020008AB
:10012000430200084302000843020008430200089B
:10013000430200084302000843020008430200088B
:10014000430200084302000843020008430200087B
:10015000430200084302000843020008430200086B
:10016000430200084302000843020008430200085B
:10017000430200084302000843020008430200084B
:10018000430200084302000800F002F800F03CF8C7
:100190000AA090E8000C82448344AAF10107DA45E2
:1001A00001D100F031F8AFF2090EBAE80F0013F0F8
:1001B000010F18BFFB1A43F001031847C8100000D5
:1001C000E8100000103A24BF78C878C1FAD8520766
:1001D00024BF30C830C144BF04680C6070470000C1
:1001E0000023002400250026103A28BF78C1FBD840
:1001F000520728BF30C148BF0B6070471FB501F0E0
:100200003BF81FBD10B510BD00F0F1F81146FFF727
:10021000F5FF01F013F800F00FF903B4FFF7F2FF58
:1002200003BC00F017F9000009488047094800475F
:10023000FEE7FEE7FEE7FEE7FEE7FEE7FEE7FEE796
:10024000FEE7FEE704480549054A064B70470000F3
:1002500041090008890100084801002048070020E2
:100260004803002048030020032A40F2308010F0A9
:10027000030C00F0158011F8013BBCF1020F624441
:1002800098BF11F801CB00F8013B38BF11F8013BD2
:10029000A2F1040298BF00F801CB38BF00F8013B7F
:1002A00011F0030300F04A80083AC0F0088051F8CA
:1002B000043B083A51F804CBA0E80810F5E7121DFA
:1002C0005CBF51F8043B40F8043BAFF30080D20719
:1002D00024BF11F8013B11F801CB48BF11F8012BE5
:1002E00024BF00F8013B00F801CB48BF00F8012B08
:1002F00070474FF000020429C0F0128010F0030C88
:1003000000F05080CCF1040CBCF1020F18BF00F8D3
:10031000012BA8BF20F8022BA1EB0C0100F042B882
:100320005FEAC17C24BF00F8012B00F8012B48BF15
:1003300000F8012B704770477047704710B5203A9E
:10034000C0F00B80B1E81850203AA0E81850B1E88E
:100350001850A0E81850BFF4F5AF5FEA027C24BF44
:10036000B1E81850A0E8185044BF18C918C0BDE83B
:1003700010405FEA827C24BF51F8043B40F8043B04
:1003800008BF7047D20728BF31F8023B48BF11F8B9
:10039000012B28BF20F8023B48BF00F8012B704713
:1003A0004FF0000200B5134694469646203922BF0E
:1003B000A0E80C50A0E80C50B1F12001BFF4F7AF59
:1003C000090728BFA0E80C5048BF0CC05DF804EB3B
:1003D000890028BF40F8042B08BF704748BF20F8A9
:1003E000022B11F0804F18BF00F8012B70477546A3
:1003F00000F02CF8AE4605006946534620F0070091
:10040000854618B020B5FFF71DFFBDE820404FF02E
:1004100000064FF000074FF000084FF0000B21F0EE
:100420000701AC46ACE8C009ACE8C009ACE8C009BB
:10043000ACE8C0098D46704710B50446AFF30080A4
:100440002046BDE81040FFF7E8BE000000487047B6
:10045000E400002001491820ABBEFEE726000200A0
:100460007047FEE7064A904234BF0648064811F03E
:10047000005F064A01EA020114BFC1608160704753
:100480001064024000600240006402407D0F7D0F56
:100490000029016814BF41F0010121F00101016050
:1004A000704700002DE9F003016821F001010160AF
:1004B0000021016041608160C160016121214161D1
:1004C000434A3D244349904202BF8C60BDE8F0039B
:1004D0007047414A4FF47465904202BF8D60BDE899
:1004E000F00370473D4A4FF47418904202BFC1F8C0
:1004F0000880BDE8F0037047394A4FF074669042B7
:1005000002BF8E60BDE8F0037047364B364A984212
:1005100002BFCA60BDE8F0037047DFF8D0C0344BBB
:10052000604502BFCB60BDE8F0037047314FDFF894
:10053000C8C0B84202BFC1F80CC0BDE8F0037047A4
:10054000DFF8B8904FF03D57484502BFCF60BDE897
:10055000F0037047DFF8A8902A49484502BF0C60B5
:10056000BDE8F0037047284CA04202BF0D60BDE813
:10057000F0037047254CA04202BFC1F80080BDE8DF
:10058000F0037047224CA04202BF0E60BDE8F003AA
:100590007047204C2049A04202BF0A60BDE8F0032A
:1005A00070471E4A904202BF0B60BDE8F0037047DF
:1005B0001B4A904202BFC1F800C0BDE8F00370477B
:1005C000184A904208BF0F60BDE8F0037047000072
:1005D000106002400060024028600240406002401B
:1005E00058600240706002403D0000208860024078
:1005F000400F0020A060024000003D20B860024093
:1006000010640240086402402864024040640240D2
:1006100058640240706402400C64024088640240E6
:10062000A0640240B864024001460020096811F04D
:10063000010F18BF01207047406880B2704700006A
:100640000246084B00209A4234BF074A074A11F07D
:10065000005F14BF52681268054B1A400A4218BF67
:1006600001207047106402400060024000640240B4
:100670007D0F7D0F10B402681B4BD1F80CC01A40DF
:100680000B6843EA0C03D1E905C44CEA040C43EAC5
:100690000C03D1F81CC043EA0C03D1F820C043EA94
:1006A0000C03D1F824C043EA0C03D1F828C043EA74
:1006B0000C03D1F834C043EA0C03D1F838C043EA44
:1006C0000C031A4302604269D1E90B3C22F0070295
:1006D00043EA0C031A4342610A6942604A68826035
:1006E0008968C16010BC70473F801CF04160704752
:1006F000704700002DE9F001002201255FF003069C
:10070000D1F800C005FA02F30CEA030C9C4533D182
:1007100007684FEA420C06FA0CF4A74307600F790A
:10072000D0F8008007FA0CF747EA080707600F794E
:10073000012F18BF022F14D18768A74387604F7914
:10074000D0F8088007FA0CF747EA0807876047687F
:1007500027EA0303436043688F799740BFB23B4366
:100760004360C368A343C360CB7903FA0CF3D0F8AA
:100770000CC043EA0C03C360521C102AC0D3BDE86E
:10078000F00170474B07DB0E9A40C90800EB81006F
:10079000016A4FF00F0C0CFA03F399430162016AEE
:1007A000114301627047FEE7FEE7704710B4C2785C
:1007B00001780F244FF0010C0AB3174A126801F1B7
:1007C000E02102F4E062C2F5E062C2F30722C2F166
:1007D0000403D44042789A40837823401A4312019C
:1007E00081F80024007800F01F010CFA01F14009A3
:1007F000800000F1E020C0F8001110BC704701F04B
:100800001F000CFA00F04909890001F1E021C1F84C
:10081000800110BC704700000CED00E0034940F07F
:10082000FD7040F080600860704700000CED00E053
:1008300070470000044A0029116814BF084321EAE8
:10084000000010607047000030380240044A002960
:10085000116814BF084321EA0000106070470000CF
:1008600020380240044A0029116814BF084321EAD5
:10087000000010607047000044380240044A00291C
:10088000116814BF084321EA00001060704700009F
:1008900024380240254A30B41168254B11F00C0170
:1008A00006D05C10042908BF046002D008291ED0BD
:1008B000036011680F2303EA11111E4B595CD0F835
:1008C00000C02CFA01F14160D2F800C0072404EA0C
:1008D0009C2C13F80CC021FA0CFCC0F808C012685C
:1008E00004EA52329A5CD140C16030BC7047124970
:1008F000D1F800C0CCF38055D1F800C0002D0CF029
:100900003F0C14BFB4FBFCF3B3FBFCF3D1F800C005
:100910000968CCF3881C03FB0CF3C1F30141491CAB
:100920004900B3FBF1F10160C3E700000838024061
:100930000024F4000A000020043802407047704789
:10094000374882B0016841F47001016035480168A0
:1009500041F001010160344900230B60026822F478
:10096000102222F08072026000F1040C2F4ACCF8B1
:100970000020026822F4802202600A1D13600193A5
:100980000093026842F480320260026802F400328E
:100990000092019A521C0192009A1AB9019AB2F57A
:1009A000A04FF2D1026812F4003F08BF009331D08B
:1009B000012200921E4A136843F0805313601D4ABF
:1009C000136843F4404313600A680A600A6842F4FB
:1009D00000420A600A6842F4A0520A60164ACCF843
:1009E0000020026842F080720260026812F0007F0C
:1009F000FBD0124A40F205701060086820F0030036
:100A00000860086840F002000860086800F00C0008
:100A10000828FAD10A494FF00060086002B0704718
:100A200088ED00E000380240083802401030002411
:100A3000403802400070004008544007003C02402B
:100A400008ED00E010B50F4C9AB040F2244120466A
:100A500000F0CCFA002804BF1AB010BDA08820888E
:100A600064226946204600F0E7FA024669462046BD
:100A700000F09AFB40F22441204600F005F81AB03D
:100A800010BD000000100140090A012202FA01F124
:100A9000C943018070470029818914BF41F4005186
:100AA00021F40051818170472DE9F74F044600265B
:100AB000DFF88892DFF888A2DFF888B2A248A3495D
:100AC000A34F86B01546B0464C4509D138890C264F
:100AD00020F001003881788810F0010F19D111E061
:100AE000544512BF5C4509B0BDE8F08F84421DBF7C
:100AF0008C42A4F18040B0F58A3009B008BFBDE84F
:100B0000F08F38E040F00100788001211020FFF7DD
:100B1000A9FE388810F0010F2DD140F00100388077
:100B200001210846FFF786FE01210846FFF782FEF5
:100B3000072209218748FFF725FE07220A21854859
:100B4000FFF720FE4FF40070009002208DF80400A3
:100B500003208DF805008DF8068001208DF8070030
:100B600069467C48FFF7C6FD4FF4806000906946F7
:100B70007848FFF7BFFD204600F0C6F907980290BD
:100B8000ADF80C80ADF81080ADF80E80ADF81260B5
:100B9000ADF8148002A9204600F0AAFA16F0080F5A
:100BA00004D001228021204600F0DAF816F0040F6C
:100BB00004D001224021204600F0D2F82820A8438A
:100BC00004D101222821204600F07AFA40F2277051
:100BD000A84305D1012240F22771204600F070FAA7
:100BE00040F22660A84305D1012240F2266120464A
:100BF00000F066FA40F22550A84305D1012240F2E8
:100C00002551204600F05CFA40F22530A84305D17A
:100C1000012240F22531204600F052FA40F22440F1
:100C2000A84305D1012240F22441204600F048FAB1
:100C300040F64600A84305D1012240F64601204671
:100C400000F03EFA40F66A10A84305D1012240F6B2
:100C50006A11204600F034FA6020A84304D1012232
:100C60006021204600F02CFA4FF45870A84305D1BB
:100C700001224FF45871204600F022FA4FF4187008
:100C8000A84305D101224FF41871204600F018FA4C
:100C90004FF4B070A84305D101224FF4B071204643
:100CA00000F00EFA01212046FFF7F5FE082E0AD0CB
:100CB000042E204625D000F0C1F8204600F058F858
:100CC00009B0BDE8F08F204600F0B8F84C451CBFD5
:100CD00009B0BDE8F08FF88810F0010F04BF09B02B
:100CE000BDE8F08F20F001001B4CF8802046FFF794
:100CF000D9FB2046FFF798FC0028FAD109B0BDE8DF
:100D0000F08F00F035F84C451CBF09B0BDE8F08FFE
:100D1000B88810F0010F04BF09B0BDE8F08F20F0D3
:100D200001000E4CB8802046FFF7BCFB2046FFF7C1
:100D30007BFC0028FAD109B0BDE8F08F001001401B
:100D40000044004000480040004C0040005000407B
:100D5000000000200000024040640240B8640240ED
:100D6000002A828A14BF114322EA0101818270475E
:100D7000F0B50446294E2A482A492B4FA4F1804554
:100D80008FB0B5F5884518BFB44203D0844218BF70
:100D90008C4239D101214805FFF74CFD00204FF46A
:100DA00080610390CDE905018910CDE908010902B0
:100DB000CDE90A1003210790CDE90C100E90BC423A
:100DC0001CBF0FB0F0BD19481B4CC18841F0010198
:100DD000C1804FF0006000901548019015480290C6
:100DE000642004902046FFF75DFB2046FFF71CFCC3
:100DF0000028FAD169462046FFF73CFC0121204635
:100E0000FFF746FB0FB0F0BDBC4219BFA4F1804014
:100E1000B0F58A3001218805BED0BFE70048004008
:100E2000004C004000500040001001400000002035
:100E3000041001408000002040640240F0B50446E8
:100E4000294E2A482A492B4FA4F180458FB0B5F589
:100E5000884518BFB44203D0844218BF8C4239D1B0
:100E600001214805FFF7E6FC4020039000204FF4E5
:100E70008061CDE90501079089010890CDE909015C
:100E80000321CDE90B010D900E90BC421CBF0FB0A9
:100E9000F0BD19481B4C818841F0010181804FF061
:100EA000006000901548019015480290642004905D
:100EB0002046FFF7F7FA2046FFF7B6FB0028FAD1E5
:100EC00069462046FFF7D6FB00212046FFF7E0FAEF
:100ED0000FB0F0BDBC4219BFA4F18040B0F58A301C
:100EE00001218805BED0BFE700480040004C00400B
:100EF000005000400010014000000020041001409C
:100F00001C000020B864024010B5A0F18041B1F58A
:100F1000883120D011F54C4127D0B1F580612FD018
:100F2000B1F5806137D0B1F580613FD0B1F5444172
:100F300047D011F51C414ED0B1F5806118BF10BDEE
:100F40000121C807FFF782FCBDE8104000214FF0E7
:100F50000040FFF77BBC01211020FFF78FFC002130
:100F6000BDE810401020FFF789BC01214804FFF7BD
:100F70006DFCBDE8104000214FF40030FFF766BC67
:100F800001218804FFF762FCBDE8104000214FF406
:100F90008020FFF75BBC0121C804FFF757FCBDE8C8
:100FA000104000214FF40020FFF750BC012108053C
:100FB000FFF74CFCBDE8104000214FF48010FFF714
:100FC00045BC01212020FFF759FC0021BDE810405D
:100FD0002020FFF753BC01218807FFF737FCBDE84D
:100FE000104000214FF08040FFF730BC10B401F0FA
:100FF0001F0201240023C1F3421C04FA02F2BCF1D7
:10100000010F04BFB0F80CC00CEA020208D0BCF11A
:10101000020F0CBFB0F810C0B0F814C00CEA020206
:10102000090A008804FA01F10840002A1CBF0028C0
:101030000123184610BC70472DE9F04115000F46FA
:101040004FF0000414D0A0F18041B1F588312DD1CA
:101050001848807910F0010008BFBDE8F081164EF5
:101060003046FFF7E9FAC0F1640084B2AC4202D91D
:101070000020BDE8F081224610493846FFF7F4F819
:1010800064210E48FFF735F9002135463046FFF759
:10109000FFF92846FFF7C8FA0028FAD1642128464C
:1010A000FFF724FB01212846FFF7F2F92046BDE8AF
:1010B000F081000000000020406402408000002019
:1010C000C1F3421301F01F014FF0010C0CFA01F1C2
:1010D000012B08BF0C3003D0022B0CBF1030143092
:1010E000002A026814BF114322EA0101016070471F
:1010F00030B50446008A85B00D46C98820F44050BA
:1011000008432082A089A9882A8920F4037011430A
:101110006A8920F4A05010430843A081A08AA989BD
:1011200020F440700843A0826846FFF7B3FBA4F1A7
:101130008040B0F588301BBFA4F18040B0F58A3004
:1011400003980298A18911F4004F00EBC00101EB54
:101150000010296814BF49008900B0FBF1F0114A62
:101160006FF0180CA2FB0031490909010B0903FBC0
:101170000CF300EB8300A38913F4004F4FF032030C
:1011800014BF03EBC00003EB0010A2FB00204FEAEA
:10119000501014BF00F0070000F00F00084320813A
:1011A00005B030BD1F85EB51002A04BF00207047F9
:1011B00070B50E46A0F180411546B1F5883133D1A6
:1011C0001A48017911F0010F2ED0642D2CD8018915
:1011D000174C11F0010F04BF41F00101018106D04D
:1011E0004FF020512046FFF72BFA0028F8D02A466E
:1011F00031461048FFF738F84FF020512046FFF7EE
:1012000031F900212046FFF743F92046FFF70CFA99
:101210000028FAD129462046FFF768FA0121204626
:10122000FFF736F9284670BD002070BD0000002091
:10123000B86402401C000020FEE7000082B040F2CB
:1012400024424FF4E1310B48FFF72EFC4FF4E060ED
:10125000FFF7E4FA25208DF8000000208DF801004A
:101260008DF8020001208DF803006846FFF79EFA12
:10127000FEE70000001001404FF04070E1EE100A60
:1012800070470000A4120008000000201C000000AD
:10129000C4010008C01200081C0000202C07000038
:1012A000E001000800000000000000000000000055
:1012B00000000102030401020304060708090000FC
:040000050800018965
:00000001FF
