:020000040800F2
:10000000C8860120290200082F0800082B080008D4
:100010002D0800081B0500087927000800000000D3
:10002000000000000000000000000000C5090008FA
:100030007507000800000000A1080008C7090008B3
:10004000430200084302000843020008430200087C
:10005000430200084302000843020008430200086C
:10006000430200084302000843020008430200085C
:10007000430200084302000843020008430200084C
:10008000430200084302000843020008430200083C
:10009000430200084302000843020008430200082C
:1000A000430200084302000843020008430200081C
:1000B000430200084302000843020008430200080C
:1000C00043020008430200084302000843020008FC
:1000D00043020008090E0008A50F0008451100089A
:1000E00043020008430200084302000843020008DC
:1000F00043020008430200084302000843020008CC
:1001000043020008430200084302000843020008BB
:10011000CD0A00086D0C00084302000843020008E5
:10012000430200084302000843020008430200089B
:10013000430200084302000843020008430200088B
:10014000430200084302000843020008430200087B
:10015000430200084302000843020008E1120008BD
:10016000430200084302000843020008430200085B
:10017000430200084302000843020008430200084B
:10018000430200084302000800F002F800F03CF8C7
:100190000AA090E8000C82448344AAF10107DA45E2
:1001A00001D100F031F8AFF2090EBAE80F0013F0F8
:1001B000010F18BFFB1A43F001031847DC250000AC
:1001C000FC250000103A24BF78C878C1FAD852073D
:1001D00024BF30C830C144BF04680C6070470000C1
:1001E0000023002400250026103A28BF78C1FBD840
:1001F000520728BF30C148BF0B6070471FB502F0DF
:10020000C5FA1FBD10B510BD00F04EF91146FFF73D
:10021000F5FF02F0B3FA00F06CF903B4FFF7F2FF58
:1002200003BC00F073F90000094880470948004703
:10023000FEE7FEE7FEE7FEE7FEE7FEE7FEE7FEE796
:10024000FEE7FEE704480549054A064B70470000F3
:10025000C909000889010008C8800120C88601205A
:10026000C8820120C8820120032A40F2308010F0A9
:10027000030C00F0158011F8013BBCF1020F624441
:1002800098BF11F801CB00F8013B38BF11F8013BD2
:10029000A2F1040298BF00F801CB38BF00F8013B7F
:1002A00011F0030300F09180083AC0F0088051F883
:1002B000043B083A51F804CBA0E80810F5E7121DFA
:1002C0005CBF51F8043B40F8043BAFF30080D20719
:1002D00024BF11F8013B11F801CB48BF11F8012BE5
:1002E00024BF00F8013B00F801CB48BF00F8012B08
:1002F0007047431A28BF9A427FF6B6AF032A1044CC
:10030000114440F2268010F0030F1EBF11F8013D8A
:10031000521E00F8013D10F0030F7FF4F6AF11F00C
:10032000030300F09780083AC0F00B8051F8043DB9
:10033000083A51F804CD40F8043D40F804CDFFF7E9
:10034000F3BF121D5CBF51F8043D40F8043DAFF30C
:100350000080D20724BF11F8013D11F801CD48BF3C
:1003600011F8012C24BF00F8013D00F801CD48BF71
:1003700000F8012C70474FF0000200B51346944678
:100380009646203922BFA0E80C50A0E80C50B1F1ED
:100390002001BFF4F7AF090728BFA0E80C5048BF01
:1003A0000CC05DF804EB890028BF40F8042B08BF9F
:1003B000704748BF20F8022B11F0804F18BF00F89B
:1003C000012B704770477047704710B5203AC0F056
:1003D0000B80B1E81850203AA0E81850B1E8185046
:1003E000A0E81850BFF4F5AF5FEA027C24BFB1E883
:1003F0001850A0E8185044BF18C918C0BDE81040F4
:100400005FEA827C24BF51F8043B40F8043B08BFFC
:100410007047D20728BF31F8023B48BF11F8012BC3
:1004200028BF20F8023B48BF00F8012B7047431A51
:1004300028BF9A427FF6C9AF104410F0030F114451
:100440001EBF11F8013D521E00F8013D10F0030FD0
:100450007FF4F6AF103AC0F00A8010B531E91850B9
:10046000103A20E91850BFF4F9AFBDE81040530727
:1004700024BF31E9081020E9081044BF51F8043DB9
:1004800040F8043D12F0030F08BF7047D20728BFA1
:1004900031F8023D48BF11F8012C28BF20F8023D79
:1004A00048BF00F8012C7047754600F02BF8AE46A7
:1004B00005006946534620F00700854618B020B570
:1004C000FFF7C0FEBDE820404FF000064FF00007E8
:1004D0004FF000084FF0000B21F00701AC46ACE8EC
:1004E000C009ACE8C009ACE8C009ACE8C0098D4659
:1004F000704710B50446AFF300802046BDE81040B9
:10050000FFF78BBE00487047648001200149182026
:10051000ABBEFEE7260002007047FEE7064A9042A7
:1005200034BF0648064811F0005F064A01EA02019E
:1005300014BFC160816070471064024000600240D7
:10054000006402407D0F7D0F0029016814BF41F057
:10055000010121F001010160704700002DE9F00365
:10056000016821F0010101600021016041608160AA
:10057000C160016121214161434A3D2443499042C8
:1005800002BF8C60BDE8F0037047414A4FF47465C8
:10059000904202BF8D60BDE8F00370473D4A4FF4C2
:1005A0007418904202BFC1F80880BDE8F00370479C
:1005B000394A4FF07466904202BF8E60BDE8F00386
:1005C0007047364B364A984202BFCA60BDE8F00316
:1005D0007047DFF8D0C0344B604502BFCB60BDE848
:1005E000F0037047314FDFF8C8C0B84202BFC1F80E
:1005F0000CC0BDE8F0037047DFF8B8904FF03D57EE
:10060000484502BFCF60BDE8F0037047DFF8A8900F
:100610002A49484502BF0C60BDE8F0037047284CEA
:10062000A04202BF0D60BDE8F0037047254CA04218
:1006300002BFC1F80080BDE8F0037047224CA04221
:1006400002BF0E60BDE8F0037047204C2049A04275
:1006500002BF0A60BDE8F00370471E4A904202BF25
:100660000B60BDE8F00370471B4A904202BFC1F81F
:1006700000C0BDE8F0037047184A904208BF0F6001
:10068000BDE8F003704700001060024000600240C7
:1006900028600240406002405860024070600240A2
:1006A0003D00002088600240400F0020A060024012
:1006B00000003D20B860024010640240086402401F
:1006C0002864024040640240586402407064024062
:1006D0000C64024088640240A0640240B864024096
:1006E00001460020096811F0010F18BF0120704772
:1006F000406880B27047000010B402681B4BD1F80C
:100700000CC01A400B6843EA0C03D1E905C44CEA5B
:10071000040C43EA0C03D1F81CC043EA0C03D1F8E3
:1007200020C043EA0C03D1F824C043EA0C03D1F8FB
:1007300028C043EA0C03D1F834C043EA0C03D1F8D3
:1007400038C043EA0C031A4302604269D1E90B3C0A
:1007500022F0070243EA0C031A4342610A6942602D
:100760004A6882608968C16010BC70473F801CF095
:1007700041607047704700002DE9F001002201251B
:100780005FF00306D1F800C005FA02F30CEA030C8F
:100790009C4533D107684FEA420C06FA0CF4A74394
:1007A00007600F79D0F8008007FA0CF747EA0807CE
:1007B00007600F79012F18BF022F14D18768A74354
:1007C00087604F79D0F8088007FA0CF747EA0807E6
:1007D0008760476827EA0303436043688F7997403F
:1007E000BFB23B434360C368A343C360CB7903FA02
:1007F0000CF3D0F80CC043EA0C03C360521C102A5F
:10080000C0D3BDE8F00170474B07DB0E9A40C90822
:1008100000EB8100016A4FF00F0C0CFA03F39943CF
:100820000162016A114301627047FEE7FEE770470B
:1008300010B4C27801780F244FF0010C0AB3174AA4
:10084000126801F1E02102F4E062C2F5E062C2F355
:100850000722C2F10403D44042789A4083782340AF
:100860001A43120181F80024007800F01F010CFAED
:1008700001F14009800000F1E020C0F8001110BC37
:10088000704701F01F000CFA00F04909890001F1DE
:10089000E021C1F8800110BC704700000CED00E0C1
:1008A00070470000044A0029116814BF084321EA78
:1008B000000010607047000030380240044A0029F0
:1008C000116814BF084321EA00001060704700005F
:1008D00040380240044A0029116814BF084321EA45
:1008E000000010607047000020380240044A0029D0
:1008F000116814BF084321EA00001060704700002F
:1009000044380240044A0029116814BF084321EA10
:10091000000010607047000024380240254A30B4BF
:100920001168254B11F00C0106D05C10042908BF9A
:10093000046002D008291ED0036011680F2303EA67
:1009400011111E4B595CD0F800C02CFA01F1416026
:10095000D2F800C0072404EA9C2C13F80CC021FA3A
:100960000CFCC0F808C0126804EA52329A5CD1400C
:10097000C16030BC70471249D1F800C0CCF380553B
:10098000D1F800C0002D0CF03F0C14BFB4FBFCF3F9
:10099000B3FBFCF3D1F800C00968CCF3881C03FB5F
:1009A0000CF3C1F30141491C4900B3FBF1F10160B3
:1009B000C3E70000083802400024F400540000207F
:1009C0000438024070477047374882B0016841F4EC
:1009D000700101603548016841F00101016034494E
:1009E00000230B60026822F4102222F08072026061
:1009F00000F1040C2F4ACCF80020026822F4802277
:100A000002600A1D136001930093026842F4803271
:100A10000260026802F400320092019A521C0192B4
:100A2000009A1AB9019AB2F5A04FF2D1026812F4F5
:100A3000003F08BF009331D0012200921E4A136884
:100A400043F0805313601D4A136843F4404313601E
:100A50000A680A600A6842F400420A600A6842F4BE
:100A6000A0520A60164ACCF80020026842F0807258
:100A70000260026812F0007FFBD0124A40F205705B
:100A80001060086820F003000860086840F0020069
:100A90000860086800F00C000828FAD10A494FF0F5
:100AA0000060086002B0704788ED00E00038024046
:100AB00008380240103000244038024000700040E6
:100AC00008544007003C024008ED00E02DE9F047E3
:100AD0005D4E40F22661304601F0A4F95B4D0028DE
:100AE0005BD040F22661304600F0CCFCEC6B002776
:100AF0007CB3DFF85C91DFF85C81B4F5805F2ED9C0
:100B00005549B21401F58050FFF7AEFB5349A4F5E7
:100B10008052A1F58050FFF7ECFB49464446404621
:100B2000FFF7FCFC00212046FFF70EFD2046FFF7F3
:100B3000D7FD0028FAD14FF480512046FFF718FE68
:100B400001212046FFF700FDE86BA0F58050E86327
:100B500023E0FFE7AF75304601F030FB1DE03E4972
:100B6000224601F58050FFF77FFB49464446404648
:100B7000FFF7D4FC00212046FFF7E6FC2046FFF7F4
:100B8000AFFD0028FAD1A88F81B22046FFF7F0FD13
:100B900001212046FFF7D8FCEF6340F224413046A4
:100BA00001F040F9002808BFBDE8F087374630461D
:100BB00001F0E6FADFF8A8804046FFF799FD296CBE
:100BC000C0F58054C1F58050264EA04234D2B4F511
:100BD000805F0DD2201A8119C4F580523046FFF78C
:100BE00088FBC4F580503044224606F5805106E06B
:100BF0001D484FF480522044A0F580511948FFF75A
:100C000033FB4FF480502864002144464046FFF7F0
:100C10009BFC2046FFF764FD0028FAD14FF4805179
:100C20002046FFF7A5FD01212046FFF78DFC384641
:100C300001F0AAFABDE8F087701822460A49FFF7CA
:100C400013FB286C2044DEE7004C0040000000202D
:100C5000200000207060024064C0002064D00020AA
:100C60004060024064E0002064F000202DE9F04183
:100C70005D4E40F22661304601F0D4F85B4D00280D
:100C80005AD040F22661304600F0FCFB6C6C002725
:100C90006CB3DFF85C81B4F5805F2DD95549B2148F
:100CA00001F58050FFF7E0FA5349A4F58052A1F511
:100CB0008050FFF71EFBF10344464046FFF72EFC31
:100CC00000212046FFF740FC2046FFF709FD0028E1
:100CD000FAD14FF480512046FFF74AFD012120460A
:100CE000FFF732FC686CA0F58050686424E02F7731
:100CF000304601F063FA1FE03E49224601F580507C
:100D0000FFF7B2FA4FF0205144464046FFF706FC89
:100D100000212046FFF718FC2046FFF7E1FC0028E1
:100D2000FAD1B5F8440081B22046FFF721FD012138
:100D30002046FFF709FC6F6440F22441304601F081
:100D400071F8002808BFBDE8F0813746304601F051
:100D500017FADFF8A8804046FFF7CAFCA96CC0F577
:100D60008054C1F58050264EA04234D2B4F5805F45
:100D70000DD2201A8119C4F580523046FFF7B9FA16
:100D8000C4F580503044224606F5805106E01D48E7
:100D90004FF480522044A0F580511948FFF764FABF
:100DA0004FF48050A864002144464046FFF7CCFB36
:100DB0002046FFF795FC0028FAD14FF480512046D9
:100DC000FFF7D6FC01212046FFF7BEFB384601F0B5
:100DD000DBF9BDE8F081701822460A49FFF744FAB2
:100DE000A86C2044DEE70000005000400000002016
:100DF000B8600240640001206410012010600240CD
:100E000064200120643001202DE9F0415D4E40F264
:100E10002661304601F006F85B4D00285AD040F2BA
:100E20002661304600F02EFB6C6A002774B3DFF8B1
:100E30005C81B4F5805F2ED95549B21401F580501C
:100E4000FFF712FA5349A4F58052A1F58050FFF73D
:100E500050FA4FF0205144464046FFF75FFB002117
:100E60002046FFF771FB2046FFF73AFC0028FAD135
:100E70004FF480512046FFF77BFC01212046FFF70D
:100E800063FB686AA0F58050686223E02F713046EA
:100E900001F094F91EE03E49224601F58050FFF72B
:100EA000E3F94FF0205144464046FFF737FB00215D
:100EB0002046FFF749FB2046FFF712FC0028FAD135
:100EC000A88C81B22046FFF753FC01212046FFF792
:100ED0003BFB6F6240F22441304600F0A3FF002844
:100EE00008BFBDE8F0813746304601F049F9DFF828
:100EF000A8804046FFF7FCFBA96AC0F58054C1F505
:100F00008050264EA04234D2B4F5805F0DD2201A14
:100F10008119C4F580523046FFF7EBF9C4F58050D3
:100F20003044224606F5805106E01D484FF48052B9
:100F30002044A0F580511948FFF796F94FF48050EE
:100F4000A862002144464046FFF7FEFA2046FFF71C
:100F5000C7FB0028FAD14FF480512046FFF708FC68
:100F600001212046FFF7F0FA384601F00DF9BDE8FF
:100F7000F081701822460A49FFF776F9A86A2044E2
:100F8000DEE700000010014000000020B8640240CD
:100F900064000020641000204064024064200020AF
:100FA000643000202DE9F0475D4E40F22661304666
:100FB00000F038FF5B4D00285BD040F226613046E0
:100FC00000F060FAEC6A00277CB3DFF85C91DFF890
:100FD0005C81B4F5805F2ED95549B21401F580507B
:100FE000FFF742F95349A4F58052A1F58050FFF76D
:100FF00080F9494644464046FFF790FA00212046D2
:10100000FFF7A2FA2046FFF76BFB0028FAD14FF456
:1010100080512046FFF7ACFB01212046FFF794FAF0
:10102000E86AA0F58050E86223E0FFE7AF7230463F
:1010300001F0C4F81DE03E49224601F58050FFF75B
:1010400013F9494644464046FFF768FA0021204616
:10105000FFF77AFA2046FFF743FB0028FAD1A88D64
:1010600081B22046FFF784FB01212046FFF76CFA8E
:10107000EF6240F22441304600F0D4FE002808BF61
:10108000BDE8F0873746304601F07AF8DFF8A880EF
:101090004046FFF72DFB296BC0F58054C1F5805009
:1010A000264EA04234D2B4F5805F0DD2201A8119A9
:1010B000C4F580523046FFF71CF9C4F58050304427
:1010C000224606F5805106E01D484FF48052204428
:1010D000A0F580511948FFF7C7F84FF480502863F6
:1010E000002144464046FFF72FFA2046FFF7F8FA62
:1010F0000028FAD14FF480512046FFF739FB012137
:101100002046FFF721FA384601F03EF8BDE8F087A7
:10111000701822460A49FFF7A7F8286B2044DEE73B
:10112000004400400000002000002020A060024099
:101130006440002064500020886002406460002009
:10114000647000202DE9F0415D4E40F2266130468A
:1011500000F068FE5B4D00285AD040F22661304610
:1011600000F090F96C6B002774B3DFF85C81B4F584
:10117000805F2ED95549B21401F58050FFF774F8FD
:101180005349A4F58052A1F58050FFF7B2F84FF013
:10119000C05144464046FFF7C1F900212046FFF701
:1011A000D3F92046FFF79CFA0028FAD14FF480517A
:1011B0002046FFF7DDFA01212046FFF7C5F9686BED
:1011C000A0F58050686323E02F74304600F0F6FFEE
:1011D0001EE03E49224601F58050FFF745F84FF0EA
:1011E000C05144464046FFF799F900212046FFF7D9
:1011F000ABF92046FFF774FA0028FAD1A88E81B225
:101200002046FFF7B5FA01212046FFF79DF96F63ED
:1012100040F22441304600F005FE002808BFBDE83A
:10122000F0813746304600F0ABFFDFF8A88040463B
:10123000FFF75EFAA96BC0F58054C1F58050264EC9
:10124000A04234D2B4F5805F0DD2201A8119C4F5C2
:1012500080523046FFF74DF8C4F5805030442246A6
:1012600006F5805106E01D484FF480522044A0F559
:1012700080511948FEF7F8FF4FF48050A863002111
:1012800044464046FFF760F92046FFF729FA002858
:10129000FAD14FF480512046FFF76AFA0121204627
:1012A000FFF752F9384600F06FFFBDE8F081701883
:1012B00022460A49FEF7D8FFA86B2044DEE700006B
:1012C0000048004000000020586002406480002078
:1012D000649000202860024064A0002064B00020D8
:1012E0002DE9F0475E4E40F22661304600F09AFD4F
:1012F0005C4D00285DD040F22661304600F0C2F817
:10130000EC6C00277CB3DFF86091DFF86081B4F506
:10131000805F2FD95649B21401F58050FEF7A4FF23
:101320005449A4F58052A1F58050FEF7E2FF4946EA
:1013300044464046FFF7F2F800212046FFF704F943
:101340002046FFF7CDF90028FAD14FF4805120460E
:10135000FFF70EFA01212046FFF7F6F8E86CA0F53A
:101360008050E86425E0FFE785F82270304600F001
:1013700025FF1EE03E49224601F58050FEF774FF2E
:10138000494644464046FFF7C9F800212046FFF78A
:10139000DBF82046FFF7A4F90028FAD1B5F84C0095
:1013A00081B22046FFF7E4F901212046FFF7CCF88F
:1013B000EF6440F22441304600F034FD002808BFBD
:1013C000BDE8F0873746304600F0DAFEDFF8A88047
:1013D0004046FFF78DF9296DC0F58054C1F5805066
:1013E000264EA04234D2B4F5805F0DD2201A811966
:1013F000C4F580523046FEF77CFFC4F5805030447F
:10140000224606F5805106E01D484FF480522044E4
:10141000A0F580511948FEF727FF4FF4805028654A
:10142000002144464046FFF78FF82046FFF758F961
:101430000028FAD14FF480512046FFF799F9012195
:101440002046FFF781F8384600F09EFEBDE8F087A1
:10145000701822460A49FEF707FF286D2044DEE790
:10146000001401400000002000002020A064024081
:10147000644001206450012028640240646001201F
:1014800064700120090A012202FA01F1C9430180B6
:1014900070470029818914BF41F4005121F40051A3
:1014A000818170472DE9F34F07464FF00008DFF8C0
:1014B000F8B30126FD4CA0F1804089B04FF002093D
:1014C0004FF0030A4546B0F5883016D0A7F18040AA
:1014D000B0F588404CD0B0F580607DD0DFF8D0B357
:1014E000B0F5806079D0B0F5806000F0F280B0F5A2
:1014F000444000F0258100F05BB925716562A5626A
:1015000020784FF00C0820B9267001211020FFF739
:10151000EDF96078002840F04B81012166700846A3
:10152000FFF7C0F901210846FFF7BCF9072209219E
:101530005846FFF769F907220A215846FFF764F970
:101540008DF804904FF400708DF805A000908DF890
:1015500006508DF8076069465846FFF70DF94FF4BD
:101560008060009069465846FFF706F900F020B900
:10157000A572E5622563A0794FF00C0820B901211E
:10158000A6714804FFF79AF9E079002840F010812D
:101590000121E6710846FFF785F901210846FFF7AA
:1015A00081F9072202215846FFF72EF9072203216D
:1015B0005846FFF729F98DF8049004208DF805A00E
:1015C00000908DF806508DF8076069465846FFF781
:1015D000D3F80820694601E006E041E00090584653
:1015E000FFF7CAF800F0E4B825746563A563207BB3
:1015F0004FF00C0820B9012126738804FFF75EF92B
:10160000607B002840F0D480667301210220FFF740
:1016100049F901210220FFF745F9DFF898B20722C6
:101620000A215846FFF7F0F807220B215846FFF72A
:10163000EBF88DF804904FF480608DF805A00090D1
:101640008DF806508DF8076069465846FFF794F804
:101650004FF40060009069465846FFF78DF8A7E008
:10166000A575E5632564A07C4FF00C0820B9012125
:10167000A674C804FFF722F9E07C00287ED1E67446
:1016800001210420FFF70EF901210420FFF70AF9D8
:1016900008220A215846FFF7B7F808220B215846BE
:1016A000FFF7B2F88DF804904FF480608DF805A034
:1016B00000908DF806508DF8076069465846FFF790
:1016C0005BF84FF40060009069465846FFF754F805
:1016D0006EE025776564A564207E4FF00C0820B984
:1016E000012126760805FFF7E9F8607E00285FD122
:1016F000667601210420FFF7D5F801210820FFF7C5
:10170000D1F808220C215846FFF77EF80822022162
:101710006948FFF779F88DF804904FF480508DF800
:1017200005A000908DF806508DF807606946584670
:10173000FFF722F80420009069465F4836E000BFBA
:1017400084F82250E5642565A07F4FF00C0820B98D
:10175000A67701212020FFF7C9F8E07F70B9E6776E
:1017600001210420FFF79EF801210420FFF79AF8D9
:10177000082206215846FFF747F800E018E0082243
:1017800007215846FFF740F88DF8049040208DF867
:1017900005A000908DF806508DF807606946584600
:1017A000FEF7EAFF8020009069465846FEF7E4FF06
:1017B000384600F0C5FA0A980490ADF81450ADF818
:1017C0001850ADF81650ADF81A80ADF81C5004A9A9
:1017D000384600F079FCB8F1080F70D0B8F1040F6A
:1017E0004FF001027AD08021384600F0CCF8012277
:1017F0004021384600F0C7F8012240F22661384601
:1018000000F04AFC012240F22441384600F044FC3A
:10181000384600F0ABF9384600F0BEF801213846F2
:10182000FFF737FEA7F18040B0F5883025D010F5DE
:101830004C4061D0B0F5806072D0B0F580606DD062
:10184000B0F580606BD0B0F5444007BF94F820003D
:1018500000280BB0BDE8F08F84F8206047208DF899
:1018600008008DF809508DF80A508DF80B6002A819
:10187000FEF7DEFF0BB0BDE8F08FA07800281CBF9C
:101880000BB0BDE8F08FA67025208DF808008DF80C
:1018900009508DF80A508DF80B6002A8FEF7C8FFBA
:1018A0000BB0BDE8F08F0AE000000240000000200D
:1018B0000008024000040240000C02400EE0012239
:1018C0008021384600F05FF8012240F22661384658
:1018D00000F0E2FB384600F049F99FE74021384626
:1018E00000F051F8012240F22441384600F0D4FBC8
:1018F000384600F051F891E7207A0028D0D12672BE
:1019000026208DF808008DF809508DF80A508DF8C2
:101910000B6002A8FEF78CFFC2E701E011E021E0B6
:10192000A07B0028BCD1A67327208DF808008DF875
:1019300009508DF80A508DF80B6002A8FEF778FF69
:10194000AEE7207D0028ABD1267534208DF8080045
:101950008DF809508DF80A508DF80B6002A8FEF73B
:1019600067FF9DE7A07E00289AD1A67635208DF8E6
:1019700008008DF809508DF80A508DF80B6002A808
:10198000FEF756FF8CE7002A828A14BF114322EA31
:1019900001018182704700002DE9F0475A4D5B4EEE
:1019A0005B4FDFF87081DFF87091DFF870A190B0C5
:1019B0000446A84218BFB44203D0BC4218BF4445F5
:1019C00036D101215FEA4150FEF76CFF00204FF451
:1019D00080610390CDE905018910CDE90801090274
:1019E000CDE90A1007900321CDE90C100E900120DB
:1019F0004B49C30602034C4521D1487149484B4C21
:101A0000CDE900304848029004922046FEF7A6FD3A
:101A10002046FEF765FE0028FAD169462046FEF70B
:101A20006BFE01212046FEF78FFD10B0BDE8F08768
:101A30004C4512BF544501218805C5D0C6E7AC42CC
:101A400010D1C8723A483C4CCDE900303948029078
:101A500004922046FEF782FD2046FEF741FE002854
:101A6000FAD1DAE7B44210D148743448354CCDE9A4
:101A700000303348029004922046FEF76FFD204666
:101A8000FEF72EFE0028FAD1C7E7BC4210D1C87578
:101A90002D482F4CCDE900302C480290049220466E
:101AA000FEF75CFD2046FEF71BFE0028FAD1B4E7E6
:101AB000444510D148772748284CCDE900302648C6
:101AC000029004922046FEF749FD2046FEF708FEEC
:101AD0000028FAD1A1E754451CBF10B0BDE8F0873B
:101AE00081F823004FF0206000901D4801901D48B0
:101AF0001D4C029004922046FEF730FD2046FEF772
:101B0000EFFD0028FAD188E700440040004800407B
:101B1000004C004000500040001001400014014003
:101B200000000020041001406430002040640240A6
:101B30000444004064700020886002400448004073
:101B400064B0002028600240044C004064F0002093
:101B500040600240045000406430012010600240A8
:101B60000414014064700120286402402DE9F0470C
:101B70005A4D5B4E5B4FDFF87081DFF87091DFF8F4
:101B800070A190B00446A84218BFB44203D0BC4232
:101B900018BF444536D101215FEA4150FEF782FE6D
:101BA0004020039000204FF48061CDE905010790AB
:101BB00089010890CDE909010321CDE90B010D90C0
:101BC0000E9001204B49C30602034C4521D1C87039
:101BD00049484B4CCDE900304848029004922046D9
:101BE000FEF7BCFC2046FEF77BFD0028FAD16946D3
:101BF0002046FEF781FD00212046FEF7A5FC10B02F
:101C0000BDE8F0874C4512BF544501218805C5D079
:101C1000C6E7AC4210D148723A483C4CCDE900309E
:101C20003948029004922046FEF798FC2046FEF7C1
:101C300057FD0028FAD1DAE7B44210D1C87334480E
:101C4000354CCDE900303348029004922046FEF72F
:101C500085FC2046FEF744FD0028FAD1C7E7BC42C8
:101C600010D148752D482F4CCDE900302C480290FA
:101C700004922046FEF772FC2046FEF731FD002854
:101C8000FAD1B4E7444510D1C8762748284CCDE9AD
:101C900000302648029004922046FEF75FFC204662
:101CA000FEF71EFD0028FAD1A1E754451CBF10B075
:101CB000BDE8F08781F821004FF0206000901D48BA
:101CC00001901D481D4C029004922046FEF746FCF0
:101CD0002046FEF705FD0028FAD188E700440040C1
:101CE00000480040004C00400050004000100140FF
:101CF0000014014000000020041001406410002086
:101D0000B86402400444004064500020A0600240D7
:101D1000044800406490002058600240044C004099
:101D200064D0002070600240045000406410012024
:101D3000B86002400414014064500120A0640240D5
:101D400010B5A0F18041B1F5883120D011F54C419A
:101D500027D0B1F580612FD0B1F5806137D0B1F5D2
:101D600080613FD0B1F5444147D011F51C414ED0C0
:101D7000B1F5806118BF10BD0121C807FEF7AAFDAB
:101D8000BDE8104000214FF00040FEF7A3BD012147
:101D90001020FEF7B7FD0021BDE810401020FEF72F
:101DA000B1BD01214804FEF795FDBDE810400021BA
:101DB0004FF40030FEF78EBD01218804FEF78AFD46
:101DC000BDE8104000214FF48020FEF783BD0121C3
:101DD000C804FEF77FFDBDE8104000214FF400204D
:101DE000FEF778BD01210805FEF774FDBDE810403F
:101DF00000214FF48010FEF76DBD01212020FEF779
:101E000081FD0021BDE810402020FEF77BBD0121AF
:101E10008807FEF75FFDBDE8104000214FF08040CD
:101E2000FEF758BD10B401F01F0201240023C1F3D6
:101E3000421C04FA02F2BCF1010F04BFB0F80CC05E
:101E40000CEA020208D0BCF1020F0CBFB0F810C0BF
:101E5000B0F814C00CEA0202090A008804FA01F181
:101E60000840002A1CBF00280123184610BC7047F8
:101E7000002912BF002A0020704770B50B460026CB
:101E80007E4DA0F180411446B1F5883111D011F595
:101E90004C4134D0B1F5806156D0B1F580617AD033
:101EA000B1F580616FD0B1F5444100F0BF8000F022
:101EB000E3B828786978084069790840A97808402B
:101EC00008BF70BDAA6A002A00F0D680A2420FD9CE
:101ED00022466B491846FEF7C7F9A86A021B6848F4
:101EE0000119FEF706FAA96A2046091AA96270BD0F
:101EF00063491846FEF7B8F9A86AAE6270BDA879C2
:101F0000E9790840E97A0840297A084008BF70BD9D
:101F10002A6B002A7ED0A2420FD922465949184680
:101F2000FEF7A2F9286B021B56480119FEF7E1F9EA
:101F3000296B2046091A296370BD52491846FEF7DD
:101F400093F9286B2E6370BD287B697B0840697C00
:101F50000840A97B084008BF70BDAA6B002A59D071
:101F6000A24211D9224648491846FEF77DF9A86BCE
:101F7000021B45480119FEF7BCF9A96B2046091A56
:101F8000A96370BD07E02BE03F491846FEF76CF9E6
:101F9000A86BAE6370BDA87CE97C0840E97D084071
:101FA000297D084008BF70BD2A6C002A64D0A24277
:101FB0000FD9224635491846FEF756F9286C021B00
:101FC00032480119FEF795F9296C2046091A29644F
:101FD00070BD2E491846FEF747F9286C2E6470BD77
:101FE000287E697E0840697F0840A97E084008BFB6
:101FF00070BDAA6C72B1A24211D92246244918467A
:10200000FEF732F9A86C021B21480119FEF771F99D
:10201000204600E030E0A96C091AA96470BD1C4993
:102020001846FEF721F9A86CAE6470BDA87FE97F61
:10203000084095F82310084095F82010084008BF84
:1020400070BD2A6DC2B1A2420FD92246114918466D
:10205000FEF70AF9286D021B0E480119FEF749F92F
:10206000296D2046091A296570BD0A491846FEF7F0
:10207000FBF8286D2E6570BD002070BD00000020AB
:10208000642000206460002064A0002064E0002040
:102090006420012064600120C1F3421301F01F019C
:1020A0004FF0010C0CFA01F1012B08BF0C3003D0EA
:1020B000022B0CBF10301430002A026814BF1143E9
:1020C00022EA01010160704730B50446008A85B0FC
:1020D0000D46C98820F4405008432082A089A98871
:1020E0002A8920F4037011436A8920F4A050104318
:1020F0000843A081A08AA98920F440700843A082E7
:102100006846FEF70BFCA4F18040B0F588301BBF99
:10211000A4F18040B0F58A3003980298A18911F4A7
:10212000004F00EBC00101EB0010296814BF49000B
:102130008900B0FBF1F0114A6FF0180CA2FB0031DE
:10214000490909010B0903FB0CF300EB8300A38988
:1021500013F4004F4FF0320314BF03EBC00003EB46
:102160000010A2FB00204FEA501014BF00F007003F
:1021700000F00F000843208105B030BD1F85EB51F2
:102180008088C0F30800704710B50B4C9AB0A0428D
:102190001CBF1AB010BD64216846FEF7ECF864223B
:1021A00069462046FFF764FE02466946204600F075
:1021B00007F81AB010BD0000001001407047000081
:1021C000002912BF002A002070472DE9F04714466D
:1021D00000260127FE4DA0F18042B2F5883216D0CC
:1021E000DFF8F08312F54C427ED0B2F5806200F049
:1021F000EA80B2F5806200F05481B2F5806200F0AE
:10220000BC81B2F5444200F03F8200F0ABBA2878BE
:102210006A781040EA781040AA78104008BFBDE8FC
:10222000F087686AC0F58052944200F29B82DFF822
:10223000A88322464044FEF717F8686A00EB0409B9
:10224000C5F824902879002840F089822F71E34F47
:10225000B9F5805F29D94146BA1401F58050FEF7DF
:1022600003F8A9F5805208F580514046FEF741F881
:102270004FF020513846FEF751F900213846FEF75D
:1022800063F93846FEF72CFA0028FAD14FF4805152
:102290003846FEF76DFA01213846FEF755F9686AAF
:1022A000A0F58050686200F05ABACB494A4601F561
:1022B0008050FDF7D9FF4FF020513846FEF72EF938
:1022C00000213846FEF740F93846FEF709FA0028A3
:1022D000FAD1A88C81B23846FEF74AFA0121384675
:1022E000FEF732F96E6200E001E000F038BAA8793A
:1022F000EA7910406A7A10402A7A104008BFBDE897
:10230000F087E86AC0F58052944200F22B82DFF831
:10231000D0A222465044FDF7A7FFE86A00EB04096B
:10232000C5F82C90A87A002840F01982AF72AD4F02
:10233000B9F5805F28D95146BA1401F58050FDF7F0
:1023400093FFA9F580520AF580515046FDF7D1FF61
:1023500041463846FEF7E2F800213846FEF7F4F829
:102360003846FEF7BDF90028FAD14FF480513846BF
:10237000FEF7FEF901213846FEF7E6F8E86AA0F517
:102380008050E86200F0EBB995494A4601F580506B
:10239000FDF76AFF41463846FEF7C0F8002138468F
:1023A000FEF7D2F83846FEF79BF90028FAD1A88D3F
:1023B00081B23846FEF7DCF901213846FEF7C4F851
:1023C000EE6200F0CCB9287B6A7B1040EA7B1040BB
:1023D000AA7B104008BFBDE8F087686BC0F580524B
:1023E000944200F2BF81DFF8008222464044FDF7AC
:1023F0003BFF686B00EB0409C5F83490287C00288B
:1024000040F0AD812F74794FB9F5805F29D94146ED
:10241000BA1401F58050FDF727FFA9F5805208F5A1
:1024200080514046FDF765FF4FF0C0513846FEF73A
:1024300075F800213846FEF787F83846FEF750F960
:102440000028FAD14FF480513846FEF791F9012166
:102450003846FEF779F8686BA0F58050686300F0A5
:102460007EB961494A4601F58050FDF7FDFE4FF007
:10247000C0513846FEF752F800213846FEF764F89E
:102480003846FEF72DF90028FAD1A88E81B23846D9
:10249000FEF76EF901213846FEF756F86E6300F03C
:1024A0005EB9A87CEA7C10406A7D10402A7D10400D
:1024B00008BFBDE8F087E86BC0F58052944200F297
:1024C0005181DFF82C8122464044FDF7CDFEE86BB8
:1024D00000EB0409C5F83C90A87D002840F03F813E
:1024E000AF75DFF810A1444FB9F5805F27D9414699
:1024F000BA1401F58050FDF7B7FEA9F5805208F532
:1025000080514046FDF7F5FE51463846FEF706F885
:1025100000213846FEF718F83846FEF7E1F80028A3
:10252000FAD14FF480513846FEF722F9012138469E
:10253000FEF70AF8E86BA0F58050E8630FE12C493C
:102540004A4601F58050FDF78FFE51463846FDF7AB
:10255000E5FF00213846FDF7F7FF3846FEF7C0F8E3
:102560000028FAD1A88F81B23846FEF701F901217F
:102570003846FDF7E9FFEE63F1E0287E6A7E104001
:10258000EA7E1040AA7E104008BFBDE8F087686C64
:10259000C0F58052944276D8DFF8608022464044ED
:1025A000FDF762FE686C00EB0409C5F84490287FD3
:1025B000002847D12F77124FB9F5805F43D94146A4
:1025C000BA1401F58050FDF74FFEA9F5805219E0CD
:1025D000000000200000202064000020B8640240B9
:1025E00064400020A06002406480002058600240E7
:1025F00064C00020200000207060024064000120C0
:10260000B860024008F580514046FDF772FE4FF079
:1026100020513846FDF782FF00213846FDF794FF30
:102620003846FEF75DF80028FAD14FF4805138465D
:10263000FEF79EF801213846FDF786FF686CA0F58D
:10264000805068648BE049494A4601F58050FDF7A7
:102650000BFE4FF020513846FDF760FF0021384651
:10266000FDF772FF3846FEF73BF80028FAD1B5F8BF
:10267000440081B23846FEF77BF801213846FDF769
:1026800063FF6E646BE06DE0A87FEA7F104095F811
:102690002120104095F82020104008BFBDE8F087A9
:1026A000E86CC0F5805294425CD8DFF8C4A02246A2
:1026B0005044FDF7D9FDE86C00EB0409C5F84C90D7
:1026C00095F8220060BB85F822702A4FB9F5805F2B
:1026D00027D95146BA1401F58050FDF7C5FDA9F57B
:1026E00080520AF580515046FDF703FE41463846B8
:1026F000FDF714FF00213846FDF726FF3846FDF7A9
:10270000EFFF0028FAD14FF480513846FEF730F839
:1027100001213846FDF718FFE86CA0F58050E86409
:102720001DE013494A4601F58050FDF79DFD4146E5
:102730003846FDF7F3FE00213846FDF705FF384621
:10274000FDF7CEFF0028FAD1B5F84C0081B238462B
:10275000FEF70EF801213846FDF7F6FEEE6420463E
:10276000BDE8F0870020BDE8F0870000640001208C
:1027700064400120A0640240FEE700004FF4E13114
:102780000148FEF78FFEFEE7001001404FF0407059
:10279000E1EE100A70470000B82700080000002092
:1027A00064000000C40100081C2800086400002028
:1027B00064860100E0010008000000000000000045
:1027C0000000000000000000000000000000000009
:1027D00000000000000000000000000000000000F9
:1027E00000000000000000000000000000000000E9
:1027F00000000000000000000000000000000000D9
:1028000000000000000000000000000000000000C8
:0C2810000102030401020304060708098A
:040000050800018965
:00000001FF
