:020000040800F2
:10000000588701202902000839080008350800082F
:10001000370800081B050008712D000800000000CB
:10002000000000000000000000000000D1090008EE
:100030007507000800000000AD080008D30900089B
:10004000430200084302000843020008430200087C
:10005000430200084302000843020008430200086C
:10006000430200084302000843020008430200085C
:10007000430200084302000843020008430200084C
:10008000430200084302000843020008430200083C
:10009000430200084302000843020008430200082C
:1000A000430200084302000843020008430200081C
:1000B000430200084302000843020008430200080C
:1000C00043020008430200084302000843020008FC
:1000D00043020008A10E0008AD10000895120008A8
:1000E00043020008430200084302000843020008DC
:1000F00043020008430200084302000843020008CC
:1001000043020008430200084302000843020008BB
:10011000D90A0008C10C0008430200084302000885
:10012000430200084302000843020008430200089B
:10013000430200084302000843020008430200088B
:10014000430200084302000843020008430200087B
:100150004302000843020008430200087514000827
:10016000430200084302000843020008430200085B
:10017000430200084302000843020008430200084B
:10018000430200084302000800F002F800F03CF8C7
:100190000AA090E8000C82448344AAF10107DA45E2
:1001A00001D100F031F8AFF2090EBAE80F0013F0F8
:1001B000010F18BFFB1A43F001031847EC2B000096
:1001C0000C2C0000103A24BF78C878C1FAD8520726
:1001D00024BF30C830C144BF04680C6070470000C1
:1001E0000023002400250026103A28BF78C1FBD840
:1001F000520728BF30C148BF0B6070471FB502F0DF
:10020000CDFD1FBD10B510BD00F04EF91146FFF732
:10021000F5FF02F0AFFD00F06CF903B4FFF7F2FF59
:1002200003BC00F073F90000094880470948004703
:10023000FEE7FEE7FEE7FEE7FEE7FEE7FEE7FEE796
:10024000FEE7FEE704480549054A064B70470000F3
:10025000D50900088901000858810120588701202C
:100260005883012058830120032A40F2308010F087
:10027000030C00F0158011F8013BBCF1020F624441
:1002800098BF11F801CB00F8013B38BF11F8013BD2
:10029000A2F1040298BF00F801CB38BF00F8013B7F
:1002A00011F0030300F09180083AC0F0088051F883
:1002B000043B083A51F804CBA0E80810F5E7121DFA
:1002C0005CBF51F8043B40F8043BAFF30080D20719
:1002D00024BF11F8013B11F801CB48BF11F8012BE5
:1002E00024BF00F8013B00F801CB48BF00F8012B08
:1002F0007047431A28BF9A427FF6B6AF032A1044CC
:10030000114440F2268010F0030F1EBF11F8013D8A
:10031000521E00F8013D10F0030F7FF4F6AF11F00C
:10032000030300F09780083AC0F00B8051F8043DB9
:10033000083A51F804CD40F8043D40F804CDFFF7E9
:10034000F3BF121D5CBF51F8043D40F8043DAFF30C
:100350000080D20724BF11F8013D11F801CD48BF3C
:1003600011F8012C24BF00F8013D00F801CD48BF71
:1003700000F8012C70474FF0000200B51346944678
:100380009646203922BFA0E80C50A0E80C50B1F1ED
:100390002001BFF4F7AF090728BFA0E80C5048BF01
:1003A0000CC05DF804EB890028BF40F8042B08BF9F
:1003B000704748BF20F8022B11F0804F18BF00F89B
:1003C000012B704770477047704710B5203AC0F056
:1003D0000B80B1E81850203AA0E81850B1E8185046
:1003E000A0E81850BFF4F5AF5FEA027C24BFB1E883
:1003F0001850A0E8185044BF18C918C0BDE81040F4
:100400005FEA827C24BF51F8043B40F8043B08BFFC
:100410007047D20728BF31F8023B48BF11F8012BC3
:1004200028BF20F8023B48BF00F8012B7047431A51
:1004300028BF9A427FF6C9AF104410F0030F114451
:100440001EBF11F8013D521E00F8013D10F0030FD0
:100450007FF4F6AF103AC0F00A8010B531E91850B9
:10046000103A20E91850BFF4F9AFBDE81040530727
:1004700024BF31E9081020E9081044BF51F8043DB9
:1004800040F8043D12F0030F08BF7047D20728BFA1
:1004900031F8023D48BF11F8012C28BF20F8023D79
:1004A00048BF00F8012C7047754600F02BF8AE46A7
:1004B00005006946534620F00700854618B020B570
:1004C000FFF7C0FEBDE820404FF000064FF00007E8
:1004D0004FF000084FF0000B21F00701AC46ACE8EC
:1004E000C009ACE8C009ACE8C009ACE8C0098D4659
:1004F000704710B50446AFF300802046BDE81040B9
:10050000FFF78BBE00487047F88001200149182092
:10051000ABBEFEE7260002007047FEE7064A9042A7
:1005200034BF0648064811F0005F064A01EA02019E
:1005300014BFC160816070471064024000600240D7
:10054000006402407D0F7D0F0029016814BF41F057
:10055000010121F001010160704700002DE9F00365
:10056000016821F0010101600021016041608160AA
:10057000C160016121214161434A3D2443499042C8
:1005800002BF8C60BDE8F0037047414A4FF47465C8
:10059000904202BF8D60BDE8F00370473D4A4FF4C2
:1005A0007418904202BFC1F80880BDE8F00370479C
:1005B000394A4FF07466904202BF8E60BDE8F00386
:1005C0007047364B364A984202BFCA60BDE8F00316
:1005D0007047DFF8D0C0344B604502BFCB60BDE848
:1005E000F0037047314FDFF8C8C0B84202BFC1F80E
:1005F0000CC0BDE8F0037047DFF8B8904FF03D57EE
:10060000484502BFCF60BDE8F0037047DFF8A8900F
:100610002A49484502BF0C60BDE8F0037047284CEA
:10062000A04202BF0D60BDE8F0037047254CA04218
:1006300002BFC1F80080BDE8F0037047224CA04221
:1006400002BF0E60BDE8F0037047204C2049A04275
:1006500002BF0A60BDE8F00370471E4A904202BF25
:100660000B60BDE8F00370471B4A904202BFC1F81F
:1006700000C0BDE8F0037047184A904208BF0F6001
:10068000BDE8F003704700001060024000600240C7
:1006900028600240406002405860024070600240A2
:1006A0003D00002088600240400F0020A060024012
:1006B00000003D20B860024010640240086402401F
:1006C0002864024040640240586402407064024062
:1006D0000C64024088640240A0640240B864024096
:1006E00001460020096811F0010F18BF0120704772
:1006F000406880B27047000010B402681B4BD1F80C
:100700000CC01A400B6843EA0C03D1E905C44CEA5B
:10071000040C43EA0C03D1F81CC043EA0C03D1F8E3
:1007200020C043EA0C03D1F824C043EA0C03D1F8FB
:1007300028C043EA0C03D1F834C043EA0C03D1F8D3
:1007400038C043EA0C031A4302604269D1E90B3C0A
:1007500022F0070243EA0C031A4342610A6942602D
:100760004A6882608968C16010BC70473F801CF095
:1007700041607047704700002DE9F001002201251B
:100780005FF00306D1F800C005FA02F30CEA030C8F
:100790009C4537D107684FEA420C06FA0CF4A74390
:1007A00007600F79D0F8008007FA0CF747EA0807CE
:1007B00007600F79012F18BF022F17D1876827EA2A
:1007C000040787604F79D0F8088007FA0CF747EAEA
:1007D00008078760476827EA0303436043688F7907
:1007E00007FA02F7BFB243EA07034360C36823EA8C
:1007F0000403C360CB7903FA0CF3D0F80CC043EACE
:100800000C03C36002F10102102ABBD3BDE8F00162
:1008100070474B07DB0E9A40C90800EB8100016A64
:100820004FF00F0C0CFA03F399430162016A114374
:1008300001627047FEE7FEE77047000010B4C2781F
:1008400001780F244FF0010C0AB3174A126801F126
:10085000E02102F4E062C2F5E062C2F30722C2F1D5
:100860000403D44042789A40837823401A4312010B
:1008700081F80024007800F01F010CFA01F1400912
:10088000800000F1E020C0F8001110BC704701F0BA
:100890001F000CFA00F04909890001F1E021C1F8BC
:1008A000800110BC704700000CED00E070470000B4
:1008B000044A0029116814BF084321EA00001060AF
:1008C0007047000030380240044A0029116814BF04
:1008D000084321EA000010607047000040380240E1
:1008E000044A0029116814BF084321EA000010607F
:1008F0007047000020380240044A0029116814BFE4
:10090000084321EA000010607047000044380240AC
:10091000044A0029116814BF084321EA000010604E
:100920007047000024380240254A30B41168254B36
:1009300011F00C0106D05C10042908BF046002D03D
:1009400008291ED0036011680F2303EA11111E4B02
:10095000595CD0F800C02CFA01F14160D2F800C017
:10096000072404EA9C2C13F80CC021FA0CFCC0F8F4
:1009700008C0126804EA52329A5CD140C16030BCAF
:1009800070471249D1F800C0CCF38055D1F800C0AF
:10099000002D0CF03F0C14BFB4FBFCF3B3FBFCF3D5
:1009A000D1F800C00968CCF3881C03FB0CF3C1F339
:1009B0000141491C4900B3FBF1F10160C3E70000AC
:1009C000083802400024F400E80000200438024007
:1009D00070477047374882B0016841F47001016088
:1009E0003548016841F001010160344900230B6082
:1009F000026822F4102222F08072026000F1040CDE
:100A00002F4ACCF80020026822F4802202600A1DDE
:100A1000136001930093026842F48032026002681E
:100A200002F400320092019A521C0192009A1AB903
:100A3000019AB2F5A04FF2D1026812F4003F08BF4C
:100A4000009331D0012200921E4A136843F0805374
:100A500013601D4A136843F4404313600A680A6038
:100A60000A6842F400420A600A6842F4A0520A602E
:100A7000164ACCF80020026842F0807202600268D8
:100A800012F0007FFBD0124A40F205701060086837
:100A900020F003000860086840F002000860086861
:100AA00000F00C000828FAD10A494FF000600860F5
:100AB00002B0704788ED00E000380240083802407C
:100AC00010300024403802400070004008544007B5
:100AD000003C024008ED00E02DE9F0416F4F40F28C
:100AE0002661384601F0D8FA00266D4D002871D0F5
:100AF00040F22661384600F0B1FD686D00283BD019
:100B0000686DDFF8A081684CB0F5805F39D967491E
:100B1000A21401F58050FFF7A7FB686D6449A0F5AA
:100B20008052A1F58050FFF7E4FB41462046FFF7D5
:100B3000F5FC00212046FFF707FD2046FFF7D0FD1A
:100B40000028FAD14FF480512046FFF711FE012111
:100B50002046FFF7F9FCD5F8B800D5F8BC2010F511
:100B6000805142F10000C5F8B810C5F8BC00686DAE
:100B7000A0F5805068652DE0AE75384601F0A8FC00
:100B800028E06A6D494901F58050FFF76DFB414649
:100B90002046FFF7C3FC00212046FFF7D5FC204686
:100BA000FFF79EFD0028FAD1686D81B22046FFF75D
:100BB000DFFD01212046FFF7C7FCD5F8B810D5F8B6
:100BC000BC20686D081842EB0601C5F8B800C5F8EE
:100BD000BC106E6540F22441384601F05DFA0028F1
:100BE00008BFBDE8F081384601F032FCDFF8C48070
:100BF0004046FFF77DFDD5F8C010C0F58054D5F80C
:100C0000C40009197041C5F8C010C5F8C400E86DEA
:100C1000294EC0F58050A04236D2B4F5805F10D284
:100C2000E86DC4F58052C0F58050201A8119304615
:100C3000FFF75FFBC4F580503044224606F5805133
:100C400006E01E484FF480522044A0F580511A4817
:100C5000FFF70AFB4FF48050E86500214046FFF79C
:100C600073FC4046FFF73CFD0028FAD14FF4805159
:100C70004046FFF77DFD01214046FFF765FC384601
:100C8000BDE8F04101F0E8BBE86D224630440B4975
:100C9000FFF7EAFAE86D2044DEE70000004C004070
:100CA000000000202000002070600240F8C00020FA
:100CB000F8D0002040600240F8E00020F8F000206A
:100CC0002DE9F0416E4C40F22661204601F0E4F936
:100CD00000266C4D00286FD040F22661204600F0BF
:100CE000BDFC686E002839D0686E674FB0F5805F34
:100CF00039D96649A21401F58050FFF7B5FA686E3C
:100D00006349A0F58052A1F58050FFF7F2FAE103A4
:100D10003846FFF703FC00213846FFF715FC38463C
:100D2000FFF7DEFC0028FAD14FF480513846FFF778
:100D30001FFD01213846FFF707FCD5F8C810D5F88C
:100D4000CC0011F5805140F10000C5F8C810C5F87D
:100D5000CC00686EA0F5805068662DE02E772046A6
:100D600001F0B6FB28E06A6E484901F58050FFF7B4
:100D70007BFA4FF020513846FFF7D0FB0021384670
:100D8000FFF7E2FB3846FFF7ABFC0028FAD1686EAC
:100D900081B23846FFF7ECFC01213846FFF7D4FB5F
:100DA000D5F8C820D5F8CC10686E10187141C5F878
:100DB000C800C5F8CC106E6640F22441204601F010
:100DC0006BF9002808BFBDE8F081A046204601F07D
:100DD0003FFB304F3846FFF78BFCD5F8D010C0F5FD
:100DE0008054D5F8D40009197041C5F8D010C5F861
:100DF000D400E86E284EC0F58050A04236D2B4F53B
:100E0000805F10D2E86EC4F58052C0F58050201A81
:100E100081193046FFF76DFAC4F580503044224600
:100E200006F5805106E01D484FF480522044A0F59D
:100E300080511948FFF718FA4FF48050E8660021F6
:100E40003846FFF781FB3846FFF74AFC0028FAD105
:100E50004FF480513846FFF78BFC01213846FFF7ED
:100E600073FB4046BDE8F04101F0F6BAE86E224659
:100E700030440A49FFF7F8F9E86E2044DEE7000045
:100E80000050004000000020B8600240F80001203F
:100E9000F810012010600240F8200120F8300120F5
:100EA0002DE9F0416E4C40F22661204601F0F4F845
:100EB00000266C4D002870D040F22661204600F0DC
:100EC000CDFB686A00283AD0686A674FB0F5805F4A
:100ED0003AD96649A21401F58050FFF7C5F9686A4E
:100EE0006349A0F58052A1F58050FFF702FA4FF058
:100EF00020513846FFF712FB00213846FFF724FB4C
:100F00003846FFF7EDFB0028FAD14FF48051384600
:100F1000FFF72EFC01213846FFF716FBD5F88810A5
:100F2000D5F88C0011F5805140F10000C5F888100B
:100F3000C5F88C00686AA0F5805068622DE02E71BB
:100F4000204601F0C5FA28E06A6A484901F5805058
:100F5000FFF78AF94FF020513846FFF7DFFA0021FA
:100F60003846FFF7F1FA3846FFF7BAFB0028FAD106
:100F7000686A81B23846FFF7FBFB01213846FFF76C
:100F8000E3FAD5F88820D5F88C10686A10187141FA
:100F9000C5F88800C5F88C106E6240F224412046E6
:100FA00001F07AF8002808BFBDE8F081A04620468D
:100FB00001F04EFA2F4F3846FFF79AFBD5F8901004
:100FC000C0F58054D5F8940009197041C5F8901007
:100FD000C5F89400E86A284EC0F58050A04236D289
:100FE000B4F5805F10D2E86AC4F58052C0F5805035
:100FF000201A81193046FFF77CF9C4F5805030443F
:10100000224606F5805106E01C484FF480522044E9
:10101000A0F580511848FFF727F94FF48050E86297
:1010200000213846FFF790FA3846FFF759FB0028B1
:10103000FAD14FF480513846FFF79AFB0121384628
:10104000FFF782FA4046BDE8F04101F005BAE86AD0
:10105000224630440949FFF707F9E86A2044DEE7F1
:101060000010014000000020B8640240F800002099
:10107000F810002040640240F8200020F8300020E2
:1010800010B59AB064216846FFF775F9064C6422E2
:101090006946204601F026F802466946204601F0DE
:1010A00085FA1AB010BD0000001001402DE9F04192
:1010B0006F4F40F22661384600F0EEFF00266D4D7E
:1010C000002871D040F22661384600F0C7FA686BFC
:1010D00000283BD0686BDFF8A081684CB0F5805FDA
:1010E00039D96749A21401F58050FFF7BDF8686B44
:1010F0006449A0F58052A1F58050FFF7FAF8414607
:101100002046FFF70BFA00212046FFF71DFA204684
:10111000FFF7E6FA0028FAD14FF480512046FFF796
:1011200027FB01212046FFF70FFAD5F89800D5F8E4
:101130009C2010F5805142F10000C5F89810C5F8C8
:101140009C00686BA0F5805068632DE0AE72384655
:1011500001F0BEF928E06A6B494901F58050FFF7BC
:1011600083F841462046FFF7D9F900212046FFF7D2
:10117000EBF92046FFF7B4FA0028FAD1686B81B288
:101180002046FFF7F5FA01212046FFF7DDF9D5F8F3
:101190009810D5F89C20686B081842EB0601C5F83A
:1011A0009800C5F89C106E6340F22441384600F068
:1011B00073FF002808BFBDE8F081384601F048F908
:1011C000DFF8C4804046FFF793FAD5F8A010C0F5C9
:1011D0008054D5F8A40009197041C5F8A010C5F8CD
:1011E000A400E86B294EC0F58050A04236D2B4F579
:1011F000805F10D2E86BC4F58052C0F58050201A91
:1012000081193046FFF775F8C4F580503044224606
:1012100006F5805106E01E484FF480522044A0F5A8
:1012200080511A48FFF720F84FF48050E8630021FE
:101230004046FFF789F94046FFF752FA0028FAD1F5
:101240004FF480514046FFF793FA01214046FFF7E3
:101250007BF93846BDE8F04101F0FEB8E86B224664
:1012600030440B49FFF700F8E86B2044DEE700004C
:10127000004400400000002000002020A060024048
:10128000F8400020F850002088600240F8600020FC
:10129000F87000202DE9F0416E4C40F226612046A6
:1012A00000F0FAFE00266C4D002870D040F2266156
:1012B000204600F0D3F9686C00283AD0686C674F7C
:1012C000B0F5805F3AD96649A21401F58050FEF767
:1012D000CBFF686C6349A0F58052A1F58050FFF701
:1012E00008F84FF0C0513846FFF718F9002138468A
:1012F000FFF72AF93846FFF7F3F90028FAD14FF43F
:1013000080513846FFF734FA01213846FFF71CF9BF
:10131000D5F8A810D5F8AC0011F5805140F10000C7
:10132000C5F8A810C5F8AC00686CA0F580506864DA
:101330002DE02E74204601F0CBF828E06A6C484975
:1013400001F58050FEF790FF4FF0C0513846FFF78F
:10135000E5F800213846FFF7F7F83846FFF7C0F9FF
:101360000028FAD1686C81B23846FFF701FA0121F2
:101370003846FFF7E9F8D5F8A820D5F8AC10686C26
:1013800010187141C5F8A800C5F8AC106E6440F2A1
:101390002441204600F080FE002808BFBDE8F0810F
:1013A000A046204601F054F82F4F3846FFF7A0F929
:1013B000D5F8B010C0F58054D5F8B40009197041C3
:1013C000C5F8B010C5F8B400E86C284EC0F58050E0
:1013D000A04236D2B4F5805F10D2E86CC4F58052DA
:1013E000C0F58050201A81193046FEF782FFC4F5FF
:1013F00080503044224606F5805106E01C484FF4E8
:1014000080522044A0F580511848FEF72DFF4FF47C
:101410008050E86400213846FFF796F83846FFF719
:101420005FF90028FAD14FF480513846FFF7A0F950
:1014300001213846FFF788F84046BDE8F04101F049
:101440000BB8E86C224630440949FEF70DFFE86C02
:101450002044DEE7004800400000002058600240C1
:10146000F8800020F890002028600240F8A00020BA
:10147000F8B000202DE9F0416F4F40F22661384668
:1014800000F00AFE00266D4D002872D040F2266161
:10149000384600F0E3F8686F00283BD0686FDFF84B
:1014A000A081684CB0F5805F3AD96749A21401F574
:1014B0008050FEF7D9FE686F6449A0F58052A1F50F
:1014C0008050FEF716FF41462046FFF727F800211F
:1014D0002046FFF739F82046FFF702F90028FAD135
:1014E0004FF480512046FFF743F901212046FFF7D2
:1014F0002BF8D5F8D800D5F8DC2010F5805142F152
:101500000000C5F8D810C5F8DC00686FA0F5805061
:1015100068672EE085F82260384600F0D9FF28E0A1
:101520006A6F494901F58050FEF79EFE414620460C
:10153000FEF7F4FF00212046FFF706F82046FFF7EC
:10154000CFF80028FAD1686F81B22046FFF710F972
:1015500001212046FEF7F8FFD5F8D810D5F8DC2099
:10156000686F081842EB0601C5F8D800C5F8DC1012
:101570006E6740F22441384600F08EFD002808BF17
:10158000BDE8F081384600F063FFDFF8C4804046D4
:10159000FFF7AEF8D5F8E010C0F58054D5F8E400B8
:1015A00009197041C5F8E010C5F8E400E86F294E4C
:1015B000C0F58050A04236D2B4F5805F10D2E86FFB
:1015C000C4F58052C0F58050201A81193046FEF7CC
:1015D00090FEC4F580503044224606F5805106E066
:1015E0001D484FF480522044A0F580511948FEF761
:1015F0003BFE4FF48050E86700214046FEF7A4FF11
:101600004046FFF76DF80028FAD14FF4805140466C
:10161000FFF7AEF801214046FEF796FF3846BDE8D9
:10162000F04100F019BFE86F224630440A49FEF746
:101630001BFEE86F2044DEE700140140000000209C
:1016400000002020A0640240F8400120F850012052
:1016500028640240F8600120F8700120090A012284
:1016600002FA01F1C943018070470029818914BF42
:1016700041F4005121F40051818170472DE9FF4F61
:1016800089B04FF00008CDF80080CDF80480DFF875
:1016900008B407464546CDF81080CDF81480CDF843
:1016A00018804FF002094FF0030A0126FB4CA0F10D
:1016B0008040CDF81C80B0F588301ED0A7F1804066
:1016C000B0F5884054D0A7F18040B0F590407DD06F
:1016D000DFF8CCB3A7F18040B0F5984077D0A7F100
:1016E0008040B0F5A04000F0F480A7F18040B0F554
:1016F0008A3000F0258100F05BB9257165624FF0FA
:101700000C08E562207820B9267001211020FFF72F
:10171000F3F86078002840F04B816670012108469C
:10172000FFF7C6F801210846FFF7C2F80722092192
:101730005846FFF76EF807220A215846FFF769F866
:101740008DF804904FF400708DF805A000908DF88E
:1017500006508DF8076069465846FFF70DF84FF4BC
:101760008060009069465846FFF706F800F020B9FF
:10177000A57265634FF00C08E563A07920B9A671E6
:1017800001214804FFF7A0F8E079002840F010811B
:10179000E67101210846FFF78BF801210846FFF7A3
:1017A00087F8072202215846FFF733F80722032162
:1017B0005846FFF72EF88DF804908DF805A0042008
:1017C0008DF8065000908DF8076001E00CE047E0CE
:1017D00069465846FEF7D0FF0820009069465846F3
:1017E000FEF7CAFF00F0E4B8257465644FF00C08FA
:1017F000E564207B20B9267301218804FFF764F893
:10180000607B002840F0D480667301210220FFF73E
:101810004FF801210220FFF74BF8DFF888B20722CA
:101820000A215846FEF7F5FF07220B215846FEF71E
:10183000F0FF8DF804904FF480608DF805A00090C3
:101840008DF806508DF8076069465846FEF794FFFC
:101850004FF40060009069465846FEF78DFFA7E000
:10186000A57565654FF00C08E565A07C20B9A674E8
:101870000121C804FFF728F8E07C00287ED1E67437
:1018800001210420FFF714F801210420FFF710F8CC
:1018900008220A215846FEF7BCFF08220B215846B1
:1018A000FEF7B7FF8DF804904FF480608DF805A027
:1018B00000908DF806508DF8076069465846FEF78F
:1018C0005BFF4FF40060009069465846FEF754FFF6
:1018D0006EE0257765664FF00C08E566207E20B93E
:1018E000267601210805FEF7EFFF607E00285FD114
:1018F000667601210420FEF7DBFF01210820FEF7B8
:10190000D7FF08220C215846FEF783FF0822022148
:101910006548FEF77EFF8DF804904FF480508DF8F7
:1019200005A000908DF806508DF80760694658466E
:10193000FEF722FF0420009069465B4836E000BFB6
:1019400084F8225065674FF00C08E567A07F20B946
:10195000A67701212020FEF7CFFFE07F70B9E67760
:1019600001210420FEF7A4FF01210420FEF7A0FFBF
:10197000082206215846FEF74CFF00E018E0082236
:1019800007215846FEF745FF8DF8049040208DF85A
:1019900005A000908DF806508DF8076069465846FE
:1019A000FEF7EAFE8020009069465846FEF7E4FE06
:1019B000384600F0F1FA0A9804900B98ADF814003C
:1019C0000C98ADF816001698ADF81800ADF81A800E
:1019D000ADF81C5004A9384600F0DEFCB8F1080F41
:1019E00077D0B8F1040F4FF0010271D08021384652
:1019F00000F0D3F801224021384600F0CEF8012251
:101A000040F22661384600F0AFFC012240F224414A
:101A1000384600F0A9FC384600F0C4F9384600F01A
:101A2000C5F801213846FFF720FEA7F18040029556
:101A3000B0F588303AD0A7F18040B0F5884065D045
:101A4000A7F18040B0F5904074D0A7F18040B0F588
:101A500098406DD0A7F18040B0F5A04069D0A7F1C3
:101A60008040B0F58A3007BF94F8200000280DB000
:101A7000BDE8F08F84F820604FF047008DF8080033
:101A80008DF809508DF80A508DF80B6002A8FEF70A
:101A9000D5FE0DB0BDE8F08F000002400000002030
:101AA0000008024000040240000C0240A078002818
:101AB000EFD1A67025208DF808008DF809508DF81B
:101AC0000A508DF80B6002A8FEF7B8FEE1E700E0CF
:101AD0000EE001228021384600F05FF8012240F23A
:101AE0002661384600F040FC384600F05BF998E784
:101AF0004021384600F051F8012240F22441384696
:101B000000F032FC384600F051F88AE7207A0028CD
:101B1000BFD1267226208DF808008DF809508DF867
:101B20000A508DF80B6002A8FEF788FEB1E701E0CD
:101B300011E021E0A07B0028ABD1A67327208DF80F
:101B400008008DF809508DF80A508DF80B6002A836
:101B5000FEF774FE9DE7207D00289AD1267534207B
:101B60008DF808008DF809508DF80A508DF80B603B
:101B700002A8FEF763FE8CE7A07E002889D1A67636
:101B800035208DF808008DF809508DF80A508DF831
:101B90000B6002A8FEF752FE7BE7002A828A14BF80
:101BA000114322EA01018182704700002DE9F04FC4
:101BB0008FB0002500950195029503950495604E20
:101BC0000446059506950795089509955D4FDFF83C
:101BD0007881DFF87891DFF878A1DFF878B10A959D
:101BE0000B950C950D950E95B44218BFBC4203D0D1
:101BF000444518BF4C4536D14FF001014FF4001059
:101C0000FEF756FE4FF480600395CDE90550801035
:101C1000CDE908500002CDE90A0507950320CDE97A
:101C20000C0501204C49C30602030E95544521D1F1
:101C300048714A484B4CCDE9003049480290049223
:101C40002046FEF78BFC2046FEF74AFD0028FAD11D
:101C500069462046FEF750FD01212046FEF774FC40
:101C60000FB0BDE8F08F544512BF5C4501218805D7
:101C7000C6D0C7E7B44210D1C8723B483C4CCDE94E
:101C800000303A48029004922046FEF767FC204656
:101C9000FEF726FD0028FAD1DAE7BC4210D14874DD
:101CA0003448364CCDE90030334802900492204647
:101CB000FEF754FC2046FEF713FD0028FAD1C7E7D3
:101CC000444510D1C8752E482F4CCDE900302D4821
:101CD000029004922046FEF741FC2046FEF700FDEC
:101CE0000028FAD1B4E74C4510D148772748294C51
:101CF000CDE900302648029004922046FEF72EFCE3
:101D00002046FEF7EDFC0028FAD1A1E75C451CBF98
:101D10000FB0BDE8F08F81F823004FF020600090F5
:101D20001D4801901D481E4C029004922046FEF76B
:101D300015FC2046FEF7D4FC0028FAD188E7000005
:101D40000044004000480040004C0040005000406B
:101D50000010014000140140000000200410014068
:101D6000F83000204064024004440040F870002035
:101D70008860024004480040F8B00020286002401B
:101D8000044C0040F8F00020406002400450004045
:101D9000F83001201060024004140140F870012066
:101DA000286402402DE9F04F8FB000250095019581
:101DB0000295039504955F4E044605950695079593
:101DC000089509955C4FDFF87481DFF87491DFF8AE
:101DD00074A1DFF874B10A950B950C950D950E95CD
:101DE000B44218BFBC4203D0444518BF4C4535D15E
:101DF0004FF001014FF40010FEF75AFD4020039010
:101E00000001CDE90550079580010895CDE90950FD
:101E10000320CDE90B5001204C49C30602030D9568
:101E20000E95544521D1C87049484B4CCDE900303E
:101E30004848029004922046FEF790FB2046FEF7A9
:101E40004FFC0028FAD169462046FEF755FC0021D8
:101E50002046FEF779FB0FB0BDE8F08F544512BF66
:101E60005C4501218805C7D0C8E7B44210D148724B
:101E70003A483C4CCDE90030394802900492204663
:101E8000FEF76CFB2046FEF72BFC0028FAD1DAE7C0
:101E9000BC4210D1C8733448354CCDE900303348CA
:101EA000029004922046FEF759FB2046FEF718FCEC
:101EB0000028FAD1C7E7444510D148752D482F4C6A
:101EC000CDE900302C48029004922046FEF746FBF4
:101ED0002046FEF705FC0028FAD1B4E74C4510D1A6
:101EE000C8762748284CCDE9003026480290049255
:101EF0002046FEF733FB2046FEF7F2FB0028FAD11E
:101F0000A1E75C451CBF0FB0BDE8F08F81F8210050
:101F10004FF0206000901D4801901D481D4C02901C
:101F200004922046FEF71AFB2046FEF7D9FB002854
:101F3000FAD188E70044004000480040004C0040CF
:101F4000005000400010014000140140000000203B
:101F500004100140F8100020B8640240044400401E
:101F6000F8500020A060024004480040F890002093
:101F700058600240044C0040F8D0002070600240DD
:101F800004500040F8100120B860024004140140E1
:101F9000F8500120A064024010B5A0F18041B1F5D5
:101FA00088312ED0A0F18041B1F5884133D0A0F125
:101FB0008041B1F5904139D0A0F18041B1F598410F
:101FC0003FD0A0F18041B1F5A04145D0A0F18041C2
:101FD000B1F58A314BD0A0F18041B1F5F04150D03C
:101FE000A0F18041B1F5F84118BF10BD0121C8072B
:101FF000FEF776FCBDE8104000214FF00040FEF7F0
:102000006FBC01211020FEF783FC0021BDE81040C9
:102010001020FEF77DBC01214804FEF761FCBDE8FD
:10202000104000214FF40030FEF75ABC0121880413
:10203000FEF756FCBDE8104000214FF48020FEF76B
:102040004FBC0121C804FEF74BFCBDE81040002145
:102050004FF40020FEF744BC01210805FEF740FCC8
:10206000BDE8104000214FF48010FEF739BC01217B
:102070002020FEF74DFC0021BDE810402020FEF797
:1020800047BC01218807FEF72BFCBDE8104000216A
:102090004FF08040FEF724BC10B401F01F02012471
:1020A0000023C1F3421C04FA02F2BCF1010F04BF89
:1020B000B0F80CC00CEA020208D0BCF1020F0CBF51
:1020C000B0F810C0B0F814C00CEA0202090A008887
:1020D00004FA01F10840002A1CBF00280123184619
:1020E00010BC7047002912BF002A0020704770B54D
:1020F0000B460026954DA0F180411446B1F588317C
:102100001CD0A0F18041B1F5884143D0A0F18041BD
:10211000B1F590416AD0A0F18041B1F598417DD0F0
:10212000A0F18041B1F5A04100F0B680A0F180415E
:10213000B1F58A3100F0DB8000F005B9287800287D
:102140001CBF6878002800F0FE80687900281CBF5A
:10215000A878002800F0F780E86A002808BF70BD62
:10216000E86AA0420ED97A491846FEF77DF8E86A77
:10217000021B77480119FEF7BCF8E96A2046091AE4
:10218000E96270BDEA6A72491846FEF76DF8E86ABE
:10219000EE6270BDA87900281CBFE879002800F025
:1021A000D280E87A00281CBF287A002800F0CB8073
:1021B000E86B002808BF70BDE86BA0420ED96549E6
:1021C0001846FEF751F8E86B021B62480119FEF74A
:1021D00090F8E96B2046091AE96370BDEA6B5D4926
:1021E0001846FEF741F8E86BEE6370BD287B0028C7
:1021F0001CBF687B002871D0687C00281CBFA87BAE
:1022000000286BD0E86C002808BF70BDE86CA042C5
:1022100010D951491846FEF727F800E012E0E86CA3
:10222000021B4D480119FEF764F8E96C2046091AB3
:10223000E96470BDEA6C48491846FEF715F8E86C89
:10224000EE6470BDA87C00281CBFE87C00287AD012
:10225000E87D00281CBF287D002874D0E86D002888
:1022600008BF70BDE86DA0420ED93C491846FDF785
:10227000FBFFE86D021B39480119FEF73AF8E96DDA
:102280002046091AE96570BDEA6D34491846FDF724
:10229000EBFFE86DEE6570BD287E00281CBF687EF0
:1022A000002850D0687F00281CBFA87E00284AD094
:1022B000E86E002808BF70BDE86EA0420FD928491B
:1022C0001846FDF7D1FFE86E021B25480119FEF7FD
:1022D00010F8E96E2046091AE96670BD33E0EA6E2F
:1022E0001F491846FDF7C0FFE86EEE6670BDA87F77
:1022F00000281CBFE87F002825D095F8230000287F
:102300001CBF95F8200000281DD0E86F002808BFEA
:1023100070BDE86FA0420ED912491846FDF7A4FF20
:10232000E86F021B0F480119FDF7E3FFE96F204634
:10233000091AE96770BDEA6F0A491846FDF794FF6C
:10234000E86FEE6770BD002070BD00000000002047
:10235000F8200020F8600020F8A00020F8E000201D
:10236000F8200120F8600120C1F3421301F01F01A1
:102370004FF0010C0CFA01F1012B08BF0C3003D017
:10238000022B0CBF10301430002A026814BF114316
:1023900022EA01010160704730B50446008A85B029
:1023A0000D46C98820F4405008432082A089A9889E
:1023B0002A8920F4037011436A8920F4A050104345
:1023C0000843A081A08AA98920F440700843A08214
:1023D0006846FEF7A9FAA4F18040B0F588301BBF2B
:1023E000A4F18040B0F58A3003980298A18911F4D5
:1023F000004F00EBC00101EB0010296814BF490039
:102400008900B0FBF1F0114A6FF0180CA2FB00310B
:10241000490909010B0903FB0CF300EB8300A389B5
:1024200013F4004F4FF0320314BF03EBC00003EB73
:102430000010A2FB00204FEA501014BF00F007006C
:1024400000F00F000843208105B030BD1F85EB511F
:102450008088C0F3080070471C49A0F18042B2F5A3
:1024600088321FD0A0F18042B2F588421ED0A0F180
:102470008042B2F590421DD0A0F18042B2F5984260
:102480001CD0A0F18042B2F5A0421BD0A0F1804246
:10249000B2F58A3218BF7047D1F88000002808BF13
:1024A00070470047086B0028FBD17047086C002874
:1024B000F7D17047086D0028F3D17047086E0028E7
:1024C000EFD17047086F0028EBD170470000002063
:1024D0001C49A0F18042B2F588321ED0A0F18042A2
:1024E000B2F588421DD0A0F18042B2F590421CD0D6
:1024F000A0F18042B2F598421BD0A0F18042B2F523
:10250000A0421AD0A0F18042B2F58A3218BF7047BB
:10251000886F002808BF70470047886A0028FBD1F1
:102520007047886B0028F7D17047886C0028F3D17A
:102530007047886D0028EFD17047886E0028EBD176
:102540007047000000000020002908BF7047164AAD
:10255000A0F18043B3F5883304BF11637047A0F145
:102560008043B3F5884304BF11647047A0F18043F2
:10257000B3F5904304BF11657047A0F18043B3F5F4
:10258000984304BF11667047A0F18043B3F5A043A0
:1025900004BF11677047A0F18043B3F58A3308BFC9
:1025A000C2F880107047000000000020002912BF10
:1025B000002A002070472DE9F04714460026F94D07
:1025C000A0F180424FF480574FF00108B2F58832F5
:1025D00020D0DFF8D493A0F18042B2F588427DD0BC
:1025E000A0F18042B2F5904200F04481A0F1804217
:1025F000B2F5984200F0E681A0F18042B2F5A04227
:1026000000F07882A0F18042B2F58A3200F00883AF
:1026100000F09DBB287800281CBF6878002800F0D7
:102620009683E87800281FBFA8780028686AB0F56C
:10263000805F80F08C83686ADFF87093C0F580500B
:10264000A042686A0AD2C0F58052686A4844FDF721
:102650000BFE6F62686AC0F5805406E0484422466B
:10266000FDF702FE686A204468622879002840F07D
:102670006B8385F80480686ACD4FB0F5805F38D9E8
:10268000CA49BA1401F58050FDF7EEFD686A09F5F4
:102690008051A0F58052C548FDF72BFE4FF0205128
:1026A0003846FDF73BFF00213846FDF74DFF384621
:1026B000FEF716F80028FAD14FF480513846FEF79D
:1026C00057F801213846FDF73FFFD5F88810D5F8B7
:1026D0008C0011F5805140F1000000E034E0C5F8B5
:1026E0008810C5F88C00686AA0F58050686200F018
:1026F0002BBB6A6AAD4901F58050FDF7B5FD4FF07F
:1027000020513846FDF70AFF00213846FDF71CFF2F
:102710003846FDF7E5FF0028FAD1686A81B23846ED
:10272000FEF726F801213846FDF70EFFD5F8882080
:10273000D5F88C10686A10187141C5F88800C5F882
:102740008C106E6200F000BBA87900281CBFE879ED
:10275000002800F0FC82687A00281FBF287A002831
:10276000686BB0F5805F80F0F282686BDFF844A29E
:10277000C0F58050A042686B0AD2C0F58052686BE9
:102780005044FDF771FD6F63686BC0F5805406E03F
:1027900050442246FDF768FD686B20446863A87AC0
:1027A000002840F0D18285F80A80686B824FB0F52E
:1027B000805F35D97F49BA1401F58050FDF754FD8B
:1027C000686B0AF58051A0F580527A48FDF791FDBB
:1027D00049463846FDF7A2FE00213846FDF7B4FE13
:1027E0003846FDF77DFF0028FAD14FF48051384676
:1027F000FDF7BEFF01213846FDF7A6FED5F898008B
:10280000D5F89C2010F5805142F10000C5F89810D1
:10281000C5F89C00686BA0F58050686300F094BA1E
:102820006A6B644901F58050FDF71EFD4946384644
:10283000FDF774FE00213846FDF786FE3846FDF7A9
:102840004FFF0028FAD1686B81B23846FDF790FF40
:1028500001213846FDF778FED5F89820D5F89C1070
:10286000686B10187141C5F89800C5F89C106E632C
:1028700000F06ABA287B00281CBF687B002800F0A3
:102880006682E87B00281FBFA87B0028686CB0F533
:10289000805F80F05C82686CDFF82091C0F580502A
:1028A000A042686C0AD2C0F58052686C4844FDF7BB
:1028B000DBFC6F64686CC0F5805406E04844224637
:1028C000FDF7D2FC686C20446864287C002840F046
:1028D0003B8285F81080686C394FB0F5805F36D93F
:1028E0003649BA1401F58050FDF7BEFC686C09F555
:1028F0008051A0F580523148FDF7FBFC4FF0C051EC
:102900003846FDF70BFE00213846FDF71DFE384620
:10291000FDF7E6FE0028FAD14FF480513846FDF766
:1029200027FF01213846FDF70FFED5F8A810D5F88E
:10293000AC0011F5805140F10000C5F8A810C5F8B1
:10294000AC00686CA0F58050686400F0FDB96A6C5A
:102950001A4901F58050FDF787FC4FF0C051384609
:10296000FDF7DCFD00213846FDF7EEFD3846FDF7AA
:10297000B7FE0028FAD1686C81B23846FDF7F8FE40
:1029800001213846FDF7E0FDD5F8A820D5F8AC10B8
:10299000686C10187141C5F8A800C5F8AC106E64D9
:1029A00000F0D2B90000002000002020F800002034
:1029B000B8640240F8400020A0600240F880002087
:1029C00058600240A87C00281CBFE87C002800F06A
:1029D000BE81687D00281FBF287D0028686DB0F586
:1029E000805F80F0B481686DDFF86893C0F5805037
:1029F000A042686D0AD2C0F58052686D4844FDF768
:102A000033FC6F65686DC0F5805406E0484422468B
:102A1000FDF72AFC686D20446865A87D002840F019
:102A2000938185F81680686DDFF82C83CB4FB0F565
:102A3000805F35D9C749BA1401F58050FDF714FC01
:102A4000686D09F58051A0F58052C248FDF751FC30
:102A500041463846FDF762FD00213846FDF774FD1A
:102A60003846FDF73DFE0028FAD14FF48051384634
:102A7000FDF77EFE01213846FDF766FDD5F8B8006A
:102A8000D5F8BC2010F5805142F10000C5F8B8100F
:102A9000C5F8BC00686DA0F58050686500F054B9B9
:102AA0006A6DAC4901F58050FDF7DEFB41463846C2
:102AB000FDF734FD00213846FDF746FD3846FDF7A9
:102AC0000FFE0028FAD1686D81B23846FDF750FE3E
:102AD00001213846FDF738FDD5F8B820D5F8BC10EF
:102AE000686D10187141C5F8B800C5F8BC106E6566
:102AF00000F02AB9287E00281CBF687E002800F05C
:102B00002681E87E00281FBFA87E0028686EB0F5E9
:102B1000805F80F01C81686EDFF84492C0F58050C1
:102B2000A042686E0AD2C0F58052686E4844FDF734
:102B30009BFB6F66686EC0F5805406E048442246F1
:102B4000FDF792FB686E20446866287F002866D1F6
:102B500085F81C80686E834FB0F5805F35D9804959
:102B6000BA1401F58050FDF77FFB686E09F58051BE
:102B7000A0F580527A48FDF7BCFB4FF02051384653
:102B8000FDF7CCFC00213846FDF7DEFC3846FDF7AA
:102B9000A7FD0028FAD14FF480513846FDF7E8FD33
:102BA00001213846FDF7D0FCD5F8C800D5F8CC1087
:102BB00010F5805041F10001C5F8C800C5F8CC10EF
:102BC000686EA0F580506866BEE06A6E644901F5E3
:102BD0008050FDF749FB4FF020513846FDF79EFC31
:102BE00000213846FDF7B0FC3846FDF779FD002896
:102BF000FAD1686E81B23846FDF7BAFD0121384638
:102C0000FDF7A2FCD5F8C810D5F8CC20686E0818DE
:102C100042EB0601C5F8C800C5F8CC106E6693E01B
:102C2000A87F00281CBFE87F00287DD095F82100F0
:102C300000281FBF95F820000028686FB0F5805F5E
:102C400072D2686FDFF820A1C0F58050A042686F93
:102C50000AD2C0F58052686F5044FDF705FB6F67DC
:102C6000686FC0F5805406E050442246FDF7FCFA38
:102C7000686F2044686795F82200D0BB85F82280F1
:102C8000686F3A4FB0F5805F34D93749BA1401F50F
:102C90008050FDF7E9FA686F0AF58051A0F580527F
:102CA0003148FDF726FB49463846FDF737FC002141
:102CB0003846FDF749FC3846FDF712FD0028FAD1E9
:102CC0004FF480513846FDF753FD01213846FDF79A
:102CD0003BFCD5F8D800D5F8DC2010F5805142F146
:102CE0000000C5F8D810C5F8DC00686FA0F580506A
:102CF000686729E06A6F1C4901F58050FDF7B4FA56
:102D000049463846FDF70AFC00213846FDF71CFC11
:102D10003846FDF7E5FC0028FAD1686F81B23846E5
:102D2000FDF726FD012100E011E03846FDF70CFC1F
:102D3000D5F8D820D5F8DC10686F10187141C5F8A7
:102D4000D800C5F8DC106E672046BDE8F08700208B
:102D5000BDE8F087F8C0002020000020706002402D
:102D6000F8000120B8600240F8400120A064024051
:102D7000FEE70000002082B0064C034602460090A9
:102D80004FF4E1312046FEF779FC03492046FFF776
:102D9000DBFBFEE700100140811000084FF040709F
:102DA000E1EE100A70470000C82D00080000002066
:102DB000F8000000C4010008C02E0008F800002040
:102DC00060860100E0010008000000000000000033
:102DD00000000000000000000000000000000000F3
:102DE00000000000000000000000000000000000E3
:102DF00000000000000000000000000000000000D3
:102E000000000000000000000000000000000000C2
:102E100000000000000000000000000000000000B2
:102E200000000000000000000000000000000000A2
:102E30000000000000000000000000000000000092
:102E40000000000000000000000000000000000082
:102E50000000000000000000000000000000000072
:102E60000000000000000000000000000000000062
:102E70000000000000000000000000000000000052
:102E80000000000000000000000000000000000042
:102E90000000000000000000000000000000000032
:102EA0000000000000000000000000000000000022
:102EB00000000000010203040102030406070809E0
:040000050800018965
:00000001FF
