:020000040800F2
:1000000058870120290200082F0800082B08000843
:100010002D0800081B050008592B000800000000EF
:10002000000000000000000000000000C5090008FA
:100030007507000800000000A1080008C7090008B3
:10004000430200084302000843020008430200087C
:10005000430200084302000843020008430200086C
:10006000430200084302000843020008430200085C
:10007000430200084302000843020008430200084C
:10008000430200084302000843020008430200083C
:10009000430200084302000843020008430200082C
:1000A000430200084302000843020008430200081C
:1000B000430200084302000843020008430200080C
:1000C00043020008430200084302000843020008FC
:1000D00043020008590E00084910000811120008D8
:1000E00043020008430200084302000843020008DC
:1000F00043020008430200084302000843020008CC
:1001000043020008430200084302000843020008BB
:10011000CD0A0008950C00084302000843020008BD
:10012000430200084302000843020008430200089B
:10013000430200084302000843020008430200088B
:10014000430200084302000843020008430200087B
:10015000430200084302000843020008D9130008C4
:10016000430200084302000843020008430200085B
:10017000430200084302000843020008430200084B
:10018000430200084302000800F002F800F03CF8C7
:100190000AA090E8000C82448344AAF10107DA45E2
:1001A00001D100F031F8AFF2090EBAE80F0013F0F8
:1001B000010F18BFFB1A43F001031847D4290000B0
:1001C000F4290000103A24BF78C878C1FAD8520741
:1001D00024BF30C830C144BF04680C6070470000C1
:1001E0000023002400250026103A28BF78C1FBD840
:1001F000520728BF30C148BF0B6070471FB502F0DF
:10020000C1FC1FBD10B510BD00F04EF91146FFF73F
:10021000F5FF02F0A3FC00F06CF903B4FFF7F2FF66
:1002200003BC00F073F90000094880470948004703
:10023000FEE7FEE7FEE7FEE7FEE7FEE7FEE7FEE796
:10024000FEE7FEE704480549054A064B70470000F3
:10025000C909000889010008588101205887012038
:100260005883012058830120032A40F2308010F087
:10027000030C00F0158011F8013BBCF1020F624441
:1002800098BF11F801CB00F8013B38BF11F8013BD2
:10029000A2F1040298BF00F801CB38BF00F8013B7F
:1002A00011F0030300F09180083AC0F0088051F883
:1002B000043B083A51F804CBA0E80810F5E7121DFA
:1002C0005CBF51F8043B40F8043BAFF30080D20719
:1002D00024BF11F8013B11F801CB48BF11F8012BE5
:1002E00024BF00F8013B00F801CB48BF00F8012B08
:1002F0007047431A28BF9A427FF6B6AF032A1044CC
:10030000114440F2268010F0030F1EBF11F8013D8A
:10031000521E00F8013D10F0030F7FF4F6AF11F00C
:10032000030300F09780083AC0F00B8051F8043DB9
:10033000083A51F804CD40F8043D40F804CDFFF7E9
:10034000F3BF121D5CBF51F8043D40F8043DAFF30C
:100350000080D20724BF11F8013D11F801CD48BF3C
:1003600011F8012C24BF00F8013D00F801CD48BF71
:1003700000F8012C70474FF0000200B51346944678
:100380009646203922BFA0E80C50A0E80C50B1F1ED
:100390002001BFF4F7AF090728BFA0E80C5048BF01
:1003A0000CC05DF804EB890028BF40F8042B08BF9F
:1003B000704748BF20F8022B11F0804F18BF00F89B
:1003C000012B704770477047704710B5203AC0F056
:1003D0000B80B1E81850203AA0E81850B1E8185046
:1003E000A0E81850BFF4F5AF5FEA027C24BFB1E883
:1003F0001850A0E8185044BF18C918C0BDE81040F4
:100400005FEA827C24BF51F8043B40F8043B08BFFC
:100410007047D20728BF31F8023B48BF11F8012BC3
:1004200028BF20F8023B48BF00F8012B7047431A51
:1004300028BF9A427FF6C9AF104410F0030F114451
:100440001EBF11F8013D521E00F8013D10F0030FD0
:100450007FF4F6AF103AC0F00A8010B531E91850B9
:10046000103A20E91850BFF4F9AFBDE81040530727
:1004700024BF31E9081020E9081044BF51F8043DB9
:1004800040F8043D12F0030F08BF7047D20728BFA1
:1004900031F8023D48BF11F8012C28BF20F8023D79
:1004A00048BF00F8012C7047754600F02BF8AE46A7
:1004B00005006946534620F00700854618B020B570
:1004C000FFF7C0FEBDE820404FF000064FF00007E8
:1004D0004FF000084FF0000B21F00701AC46ACE8EC
:1004E000C009ACE8C009ACE8C009ACE8C0098D4659
:1004F000704710B50446AFF300802046BDE81040B9
:10050000FFF78BBE00487047F88001200149182092
:10051000ABBEFEE7260002007047FEE7064A9042A7
:1005200034BF0648064811F0005F064A01EA02019E
:1005300014BFC160816070471064024000600240D7
:10054000006402407D0F7D0F0029016814BF41F057
:10055000010121F001010160704700002DE9F00365
:10056000016821F0010101600021016041608160AA
:10057000C160016121214161434A3D2443499042C8
:1005800002BF8C60BDE8F0037047414A4FF47465C8
:10059000904202BF8D60BDE8F00370473D4A4FF4C2
:1005A0007418904202BFC1F80880BDE8F00370479C
:1005B000394A4FF07466904202BF8E60BDE8F00386
:1005C0007047364B364A984202BFCA60BDE8F00316
:1005D0007047DFF8D0C0344B604502BFCB60BDE848
:1005E000F0037047314FDFF8C8C0B84202BFC1F80E
:1005F0000CC0BDE8F0037047DFF8B8904FF03D57EE
:10060000484502BFCF60BDE8F0037047DFF8A8900F
:100610002A49484502BF0C60BDE8F0037047284CEA
:10062000A04202BF0D60BDE8F0037047254CA04218
:1006300002BFC1F80080BDE8F0037047224CA04221
:1006400002BF0E60BDE8F0037047204C2049A04275
:1006500002BF0A60BDE8F00370471E4A904202BF25
:100660000B60BDE8F00370471B4A904202BFC1F81F
:1006700000C0BDE8F0037047184A904208BF0F6001
:10068000BDE8F003704700001060024000600240C7
:1006900028600240406002405860024070600240A2
:1006A0003D00002088600240400F0020A060024012
:1006B00000003D20B860024010640240086402401F
:1006C0002864024040640240586402407064024062
:1006D0000C64024088640240A0640240B864024096
:1006E00001460020096811F0010F18BF0120704772
:1006F000406880B27047000010B402681B4BD1F80C
:100700000CC01A400B6843EA0C03D1E905C44CEA5B
:10071000040C43EA0C03D1F81CC043EA0C03D1F8E3
:1007200020C043EA0C03D1F824C043EA0C03D1F8FB
:1007300028C043EA0C03D1F834C043EA0C03D1F8D3
:1007400038C043EA0C031A4302604269D1E90B3C0A
:1007500022F0070243EA0C031A4342610A6942602D
:100760004A6882608968C16010BC70473F801CF095
:1007700041607047704700002DE9F001002201251B
:100780005FF00306D1F800C005FA02F30CEA030C8F
:100790009C4533D107684FEA420C06FA0CF4A74394
:1007A00007600F79D0F8008007FA0CF747EA0807CE
:1007B00007600F79012F18BF022F14D18768A74354
:1007C00087604F79D0F8088007FA0CF747EA0807E6
:1007D0008760476827EA0303436043688F7997403F
:1007E000BFB23B434360C368A343C360CB7903FA02
:1007F0000CF3D0F80CC043EA0C03C360521C102A5F
:10080000C0D3BDE8F00170474B07DB0E9A40C90822
:1008100000EB8100016A4FF00F0C0CFA03F39943CF
:100820000162016A114301627047FEE7FEE770470B
:1008300010B4C27801780F244FF0010C0AB3174AA4
:10084000126801F1E02102F4E062C2F5E062C2F355
:100850000722C2F10403D44042789A4083782340AF
:100860001A43120181F80024007800F01F010CFAED
:1008700001F14009800000F1E020C0F8001110BC37
:10088000704701F01F000CFA00F04909890001F1DE
:10089000E021C1F8800110BC704700000CED00E0C1
:1008A00070470000044A0029116814BF084321EA78
:1008B000000010607047000030380240044A0029F0
:1008C000116814BF084321EA00001060704700005F
:1008D00040380240044A0029116814BF084321EA45
:1008E000000010607047000020380240044A0029D0
:1008F000116814BF084321EA00001060704700002F
:1009000044380240044A0029116814BF084321EA10
:10091000000010607047000024380240254A30B4BF
:100920001168254B11F00C0106D05C10042908BF9A
:10093000046002D008291ED0036011680F2303EA67
:1009400011111E4B595CD0F800C02CFA01F1416026
:10095000D2F800C0072404EA9C2C13F80CC021FA3A
:100960000CFCC0F808C0126804EA52329A5CD1400C
:10097000C16030BC70471249D1F800C0CCF380553B
:10098000D1F800C0002D0CF03F0C14BFB4FBFCF3F9
:10099000B3FBFCF3D1F800C00968CCF3881C03FB5F
:1009A0000CF3C1F30141491C4900B3FBF1F10160B3
:1009B000C3E70000083802400024F400E8000020EB
:1009C0000438024070477047374882B0016841F4EC
:1009D000700101603548016841F00101016034494E
:1009E00000230B60026822F4102222F08072026061
:1009F00000F1040C2F4ACCF80020026822F4802277
:100A000002600A1D136001930093026842F4803271
:100A10000260026802F400320092019A521C0192B4
:100A2000009A1AB9019AB2F5A04FF2D1026812F4F5
:100A3000003F08BF009331D0012200921E4A136884
:100A400043F0805313601D4A136843F4404313601E
:100A50000A680A600A6842F400420A600A6842F4BE
:100A6000A0520A60164ACCF80020026842F0807258
:100A70000260026812F0007FFBD0124A40F205705B
:100A80001060086820F003000860086840F0020069
:100A90000860086800F00C000828FAD10A494FF0F5
:100AA0000060086002B0704788ED00E00038024046
:100AB00008380240103000244038024000700040E6
:100AC00008544007003C024008ED00E02DE9F047E3
:100AD000674F40F22661384601F062FA0026654D04
:100AE00000286AD040F22661384600F05BFDD5F858
:100AF0005480B8F1000F35D0DFF87C915F4CB8F529
:100B0000805F34D95E49A21401F58050FFF7ACFB39
:100B10005C49A8F58052A1F58050FFF7EAFB4946F1
:100B20002046FFF7FBFC00212046FFF70DFD204685
:100B3000FFF7D6FD0028FAD14FF480512046FFF789
:100B400017FE01212046FFF7FFFCD5E92E0110F525
:100B5000805041F10001C5E92E01686DA0F580507B
:100B600068652AE0AE75384601F0FEFB25E0444991
:100B7000424601F58050FFF777FB49462046FFF7D4
:100B8000CDFC00212046FFF7DFFC2046FFF7A8FD43
:100B90000028FAD1B5F8540081B22046FFF7E8FDED
:100BA00001212046FFF7D0FCD5E92E12686D6E6555
:100BB000081842EB0601C5E92E0140F224413846EF
:100BC00001F0EEF9002808BFBDE8F087384601F0D3
:100BD00095FBDFF8B4804046FFF78AFDC0F58054EE
:100BE000D5E9301009197041C5E93010E96D274E7B
:100BF000C1F58050A04233D2B4F5805F0DD2201AE7
:100C00008119C4F580523046FFF773FBC4F580505C
:100C10003044224606F5805106E01D484FF48052CC
:100C20002044A0F580511948FFF71EFB4FF4805077
:100C3000E86500214046FFF787FC4046FFF750FD7E
:100C40000028FAD14FF480514046FFF791FD012171
:100C50004046FFF779FC3846BDE8F04701F052BB4B
:100C6000701822460A49FFF7FFFAE86D2044DFE7D3
:100C7000004C004000000020200000207060024076
:100C8000F8C00020F8D0002040600240F8E00020CA
:100C9000F8F000202DE9F041674C40F22661204633
:100CA00001F07EF90026654D00286AD040F22661E9
:100CB000204600F077FC6F6E002F35D0DFF8808182
:100CC000B7F5805F35D95F49A21401F58050FFF771
:100CD000CBFA5D49A7F58052A1F58050FFF709FBDB
:100CE000E10347464046FFF719FC00213846FFF76D
:100CF0002BFC3846FFF7F4FC0028FAD14FF4805162
:100D00003846FFF735FD01213846FFF71DFCD5E9D0
:100D1000320110F5805041F10001C5E93201686EE1
:100D2000A0F5805068662CE02E77204601F01CFB71
:100D300027E044493A4601F58050FFF795FA4FF015
:100D4000205147464046FFF7E9FB00213846FFF7B0
:100D5000FBFB3846FFF7C4FC0028FAD1B5F8640065
:100D600081B23846FFF704FD01213846FFF7ECFB5E
:100D7000D5E93212686E6E66081842EB0601C5E9C5
:100D8000320140F22441204601F00AF9002808BF50
:100D9000BDE8F081A046204601F0B0FA2B4F38465E
:100DA000FFF7A6FCC0F58054D5E93410091970414D
:100DB000C5E93410E96E264EC1F58050A04233D209
:100DC000B4F5805F0DD2201A8119C4F580523046E7
:100DD000FFF78FFAC4F580503044224606F5805163
:100DE00006E01C484FF480522044A0F5805118487A
:100DF000FFF73AFA4FF48050E86600213846FFF7D3
:100E0000A3FB3846FFF76CFC0028FAD14FF4805161
:100E10003846FFF7ADFC01213846FFF795FB404609
:100E2000BDE8F04101F06EBA701822460949FFF79B
:100E30001BFAE86E2044DFE700500040000000206D
:100E4000B8600240F8000120F81001201060024054
:100E5000F8200120F83001202DE9F041674C40F2E4
:100E60002661204601F09CF80026654D00286AD0D6
:100E700040F22661204600F095FB6F6A002F36D0C5
:100E8000DFF88081B7F5805F36D95F49A21401F59C
:100E90008050FFF7E9F95D49A7F58052A1F5805030
:100EA000FFF727FA4FF0205147464046FFF736FB41
:100EB00000213846FFF748FB3846FFF711FC0028B1
:100EC000FAD14FF480513846FFF752FC01213846E1
:100ED000FFF73AFBD5E9220110F5805041F10001FE
:100EE000C5E92201686AA0F5805068622BE02E7186
:100EF000204601F039FA26E043493A4601F5805090
:100F0000FFF7B2F94FF0205147464046FFF706FB86
:100F100000213846FFF718FB3846FFF7E1FB0028B1
:100F2000FAD1A88C81B23846FFF722FC012138465D
:100F3000FFF70AFBD5E92212686A6E62081842EBD5
:100F40000601C5E9220140F22441204601F028F8BB
:100F5000002808BFBDE8F081A046204601F0CEF988
:100F60002B4F3846FFF7C4FBC0F58054D5E9241059
:100F700009197041C5E92410E96A264EC1F580506F
:100F8000A04233D2B4F5805F0DD2201A8119C4F586
:100F900080523046FFF7ADF9C4F580503044224608
:100FA00006F5805106E01C484FF480522044A0F51D
:100FB00080511848FFF758F94FF48050E86200213B
:100FC0003846FFF7C1FA3846FFF78AFB0028FAD106
:100FD0004FF480513846FFF7CBFB01213846FFF72D
:100FE000B3FA4046BDE8F04101F08CB970182246D2
:100FF0000949FFF739F9E86A2044DFE700100140AA
:1010000000000020B8640240F8000020F810002022
:1010100040640240F8200020F830002010B59AB05B
:1010200064216846FFF7A7F9064C6422694620460A
:1010300000F0DCFF02466946204601F0F9F91AB0DB
:1010400010BD0000001001402DE9F047674F40F24D
:101050002661384600F0A4FF0026654D002869D0BF
:1010600040F22661384600F09DFAD5F83480B8F198
:10107000000F35D0DFF87C915F4CB8F5805F34D934
:101080005E49A21401F58050FFF7EEF85C49A8F51F
:101090008052A1F58050FFF72CF949462046FFF712
:1010A0003DFA00212046FFF74FFA2046FFF718FBD4
:1010B0000028FAD14FF480512046FFF759FB012157
:1010C0002046FFF741FAD5E9260110F5805041F19D
:1010D0000001C5E92601686BA0F58050686329E02E
:1010E000AE72384601F040F924E04449424601F529
:1010F0008050FFF7B9F849462046FFF70FFA002164
:101100002046FFF721FA2046FFF7EAFA0028FAD135
:10111000A88E81B22046FFF72BFB01212046FFF766
:1011200013FAD5E92612686B6E63081842EB0601C4
:10113000C5E9260140F22441384600F031FF00287D
:1011400008BFBDE8F087384601F0D8F8DFF8B48072
:101150004046FFF7CDFAC0F58054D5E928100919AB
:101160007041C5E92810E96B274EC1F58050A042B7
:1011700033D2B4F5805F0DD2201A8119C4F58052A4
:101180003046FFF7B6F8C4F580503044224606F5E5
:10119000805106E01D484FF480522044A0F5805154
:1011A0001948FFF761F84FF48050E863002140468A
:1011B000FFF7CAF94046FFF793FA0028FAD14FF437
:1011C00080514046FFF7D4FA01214046FFF7BCF9B1
:1011D0003846BDE8F04701F095B8701822460B4933
:1011E000FFF742F8E86B2044DFE7000000440040CE
:1011F0000000002000002020A0600240F8400020F5
:10120000F850002088600240F8600020F87000204C
:101210002DE9F041684C40F22661204600F0C0FE06
:101220000026664D00286BD040F22661204600F073
:10123000B9F96F6C002F36D0DFF88481B7F5805F85
:1012400036D96049A21401F58050FFF70DF85E49C8
:10125000A7F58052A1F58050FFF74BF84FF0C05131
:1012600047464046FFF75AF900213846FFF76CF928
:101270003846FFF735FA0028FAD14FF48051384646
:10128000FFF776FA01213846FFF75EF9D5E92A0122
:1012900010F5805041F10001C5E92A01686CA0F504
:1012A000805068642CE02E74204601F05DF827E041
:1012B00044493A4601F58050FEF7D6FF4FF0C05141
:1012C00047464046FFF72AF900213846FFF73CF928
:1012D0003846FFF705FA0028FAD1B5F8440081B284
:1012E0003846FFF745FA01213846FFF72DF9D5E9D1
:1012F0002A12686C6E64081842EB0601C5E92A01DF
:1013000040F22441204600F04BFE002808BFBDE813
:10131000F081A046204600F0F1FF2C4F3846FFF741
:10132000E7F9C0F58054D5E92C1009197041C5E9D9
:101330002C10E96C264EC1F58050A04233D2B4F592
:10134000805F0DD2201A8119C4F580523046FEF715
:10135000D0FFC4F580503044224606F5805106E0A7
:101360001C484FF480522044A0F580511848FEF7E5
:101370007BFF4FF48050E86400213846FFF7E4F823
:101380003846FFF7ADF90028FAD14FF480513846BE
:10139000FFF7EEF901213846FFF7D6F84046BDE8E1
:1013A000F04100F0AFBF701822460A49FEF75CFF1B
:1013B000E86C2044DFE70000004800400000002007
:1013C00058600240F8800020F89000202860024019
:1013D000F8A00020F8B000202DE9F047684F40F257
:1013E0002661384600F0DCFD0026664D00286BD0F3
:1013F00040F22661384600F0D5F8D5F87480B8F18F
:10140000000F35D0DFF88091604CB8F5805F35D99A
:101410005F49A21401F58050FEF726FF5D49A8F54B
:101420008052A1F58050FEF764FF49462046FFF741
:1014300075F800212046FFF787F82046FFF750F99E
:101440000028FAD14FF480512046FFF791F901218D
:101450002046FFF779F8D5E9360110F5805041F1C3
:101460000001C5E93601686FA0F5805068672BE080
:1014700085F82260384600F077FF25E0444942466F
:1014800001F58050FEF7F0FE49462046FFF746F88A
:1014900000212046FFF758F82046FFF721F90028E1
:1014A000FAD1B5F8740081B22046FFF761F9012145
:1014B0002046FFF749F8D5E93612686F6E670818BD
:1014C00042EB0601C5E9360140F22441384600F0FE
:1014D00067FD002808BFBDE8F087384600F00EFF22
:1014E000DFF8B4804046FFF703F9C0F58054D5E932
:1014F000381009197041C5E93810E96F274EC1F558
:101500008050A04233D2B4F5805F0DD2201A8119E9
:10151000C4F580523046FEF7ECFEC4F580503044EE
:10152000224606F5805106E01D484FF480522044C3
:10153000A0F580511948FEF797FE4FF48050E867F8
:1015400000214046FFF700F84046FFF7C9F80028A1
:10155000FAD14FF480514046FFF70AF90121404685
:10156000FEF7F2FF3846BDE8F04700F0CBBE70183A
:1015700022460B49FEF778FEE86F2044DFE70000C3
:10158000001401400000002000002020A064024060
:10159000F8400120F850012028640240F860012042
:1015A000F8700120090A012202FA01F1C943018001
:1015B00070470029818914BF41F4005121F4005182
:1015C000818170472DE9FF4F89B04FF00008CDF8B9
:1015D0000080CDF80480DFF810B407464546CDF80A
:1015E0001080CDF81480CDF818804FF002094FF02C
:1015F000030A0126FD4CA0F18040CDF81C80B0F517
:10160000883016D0A7F18040B0F588404CD0B0F5B6
:1016100080607DD0DFF8D8B3B0F5806079D0B0F5C8
:10162000806000F0F280B0F5444000F0258100F0C9
:101630005BB925716562E56220784FF00C0820B92E
:10164000267001211020FFF751F96078002840F042
:101650004B81012166700846FFF724F901210846F5
:10166000FFF720F9072209215846FFF7CDF8072296
:101670000A215846FFF7C8F88DF804904FF400701F
:101680008DF805A000908DF806508DF8076069462A
:101690005846FFF771F84FF480600090694658464D
:1016A000FFF76AF800F020B9A5726563E563A079D9
:1016B0004FF00C0820B90121A6714804FFF7FEF88D
:1016C000E079002840F010810121E6710846FFF71B
:1016D000E9F801210846FFF7E5F8072202215846FC
:1016E000FFF792F8072203215846FFF78DF88DF88F
:1016F000049004208DF805A000908DF806508DF818
:10170000076069465846FFF737F80820694601E048
:1017100006E041E000905846FFF72EF800F0E4B8EC
:1017200025746564E564207B4FF00C0820B9012125
:1017300026738804FFF7C2F8607B002840F0D4804D
:10174000667301210220FFF7ADF801210220FFF7A7
:10175000A9F8DFF8A0B207220A215846FFF754F88B
:1017600007220B215846FFF74FF88DF804904FF4ED
:1017700080608DF805A000908DF806508DF8076008
:1017800069465846FEF7F8FF4FF40060009069463E
:101790005846FEF7F1FFA7E0A5756565E565A07CF5
:1017A0004FF00C0820B90121A674C804FFF786F891
:1017B000E07C00287ED1E67401210420FFF772F856
:1017C00001210420FFF76EF808220A215846FFF78E
:1017D0001BF808220B215846FFF716F88DF80490E5
:1017E0004FF480608DF805A000908DF806508DF8BC
:1017F000076069465846FEF7BFFF4FF4006000904F
:1018000069465846FEF7B8FF6EE025776566E566DF
:10181000207E4FF00C0820B9012126760805FFF73D
:101820004DF8607E00285FD1667601210420FFF725
:1018300039F801210820FFF735F808220C21584615
:10184000FEF7E2FF082202216B48FEF7DDFF8DF86C
:1018500004904FF480508DF805A000908DF806504C
:101860008DF8076069465846FEF786FF0420009011
:101870006946614836E000BF84F822506567E56735
:10188000A07F4FF00C0820B9A67701212020FFF798
:101890002DF8E07F70B9E67701210420FFF702F808
:1018A00001210420FEF7FEFF082206215846FEF71C
:1018B000ABFF00E018E0082207215846FEF7A4FF1E
:1018C0008DF8049040208DF805A000908DF806500A
:1018D0008DF8076069465846FEF74EFF802000905D
:1018E00069465846FEF748FF384600F0E7FA0A987E
:1018F00004900B98ADF814000C98ADF816001698EB
:10190000ADF81800ADF81A80ADF81C5004A938469F
:1019100000F098FCB8F1080F71D0B8F1040F4FF047
:1019200001027BD08021384600F0CDF80122402111
:10193000384600F0C8F8012240F22661384600F02F
:1019400069FC012240F22441384600F063FC38462D
:1019500000F0BCF9384600F0BFF801213846FFF727
:1019600028FEA7F180400295B0F5883025D010F50B
:101970004C4061D0B0F5806072D0B0F580606DD021
:10198000B0F580606BD0B0F5444007BF94F82000FC
:1019900000280DB0BDE8F08F84F8206047208DF856
:1019A00008008DF809508DF80A508DF80B6002A8D8
:1019B000FEF73EFF0DB0BDE8F08FA07800281CBFF9
:1019C0000DB0BDE8F08FA67025208DF808008DF8C9
:1019D00009508DF80A508DF80B6002A8FEF728FF19
:1019E0000DB0BDE8F08F0AE00000024000000020CA
:1019F0000008024000040240000C02400EE00122F8
:101A00008021384600F05FF8012240F22661384616
:101A100000F000FC384600F059F99EE740213846B6
:101A200000F051F8012240F22441384600F0F2FB68
:101A3000384600F051F890E7207A0028D0D126727D
:101A400026208DF808008DF809508DF80A508DF881
:101A50000B6002A8FEF7ECFEC2E701E011E021E016
:101A6000A07B0028BCD1A67327208DF808008DF834
:101A700009508DF80A508DF80B6002A8FEF7D8FEC9
:101A8000AEE7207D0028ABD1267534208DF8080004
:101A90008DF809508DF80A508DF80B6002A8FEF7FA
:101AA000C7FE9DE7A07E00289AD1A67635208DF846
:101AB00008008DF809508DF80A508DF80B6002A8C7
:101AC000FEF7B6FE8CE7002A828A14BF114322EA91
:101AD00001018182704700002DE9F04F8FB0002591
:101AE000009501950295039504955F4E0446059572
:101AF00006950795089509955C4FDFF87481DFF826
:101B00007491DFF874A1DFF874B10A950B950C9508
:101B10000D950E95B44218BFBC4203D0444518BF82
:101B20004C4534D101214805FEF7BCFE4FF48060DE
:101B30000395CDE905508010CDE908500002CDE9AC
:101B40000A0507950320CDE90C0501204C49C30681
:101B500002030E95544521D148714A484B4CCDE9BA
:101B600000304948029004922046FEF7F7FC2046D8
:101B7000FEF7B6FD0028FAD169462046FEF7BCFD07
:101B800001212046FEF7E0FC0FB0BDE8F08F544580
:101B900012BF5C4501218805C6D0C7E7B44210D109
:101BA000C8723B483C4CCDE900303A480290049260
:101BB0002046FEF7D3FC2046FEF792FD0028FAD11E
:101BC000DAE7BC4210D148743448364CCDE90030D5
:101BD0003348029004922046FEF7C0FC2046FEF7F0
:101BE0007FFD0028FAD1C7E7444510D1C8752E48BB
:101BF0002F4CCDE900302D48029004922046FEF78C
:101C0000ADFC2046FEF76CFD0028FAD1B4E74C4548
:101C100010D148772748294CCDE90030264802905A
:101C200004922046FEF79AFC2046FEF759FD002854
:101C3000FAD1A1E75C451CBF0FB0BDE8F08F81F879
:101C400023004FF0206000901D4801901D481E4C5D
:101C5000029004922046FEF781FC2046FEF740FDEC
:101C60000028FAD188E70000004400400048004006
:101C7000004C0040005000400010014000140140A2
:101C80000000002004100140F830002040640240B1
:101C900004440040F870002088600240044800407E
:101CA000F8B0002028600240044C0040F8F000200A
:101CB0004060024004500040F830012010600240B3
:101CC00004140140F8700120286402402DE9F04F0F
:101CD0008FB00025009501950295039504955E4E01
:101CE0000446059506950795089509955B4FDFF81D
:101CF0007081DFF87091DFF870A1DFF870B10A959C
:101D00000B950C950D950E95B44218BFBC4203D0AF
:101D1000444518BF4C4533D101214805FEF7C2FDAB
:101D2000402003900001CDE90550079580010895FA
:101D3000CDE909500320CDE90B5001204C49C306E1
:101D400002030D950E95544521D1C87049484B4C5E
:101D5000CDE900304848029004922046FEF7FEFB91
:101D60002046FEF7BDFC0028FAD169462046FEF762
:101D7000C3FC00212046FEF7E7FB0FB0BDE8F08F63
:101D8000544512BF5C4501218805C7D0C8E7B4425D
:101D900010D148723A483C4CCDE9003039480290A5
:101DA00004922046FEF7DAFB2046FEF799FC002855
:101DB000FAD1DAE7BC4210D1C8733448354CCDE9CA
:101DC00000303348029004922046FEF7C7FB2046BD
:101DD000FEF786FC0028FAD1C7E7444510D14875C4
:101DE0002D482F4CCDE900302C480290049220461B
:101DF000FEF7B4FB2046FEF773FC0028FAD1B4E7E7
:101E00004C4510D1C8762748284CCDE900302648EB
:101E1000029004922046FEF7A1FB2046FEF760FCEC
:101E20000028FAD1A1E75C451CBF0FB0BDE8F08FD8
:101E300081F821004FF0206000901D4801901D485E
:101E40001D4C029004922046FEF788FB2046FEF7C8
:101E500047FC0028FAD188E70044004000480040D1
:101E6000004C0040005000400010014000140140B0
:101E70000000002004100140F8100020B864024067
:101E800004440040F8500020A06002400448004094
:101E9000F890002058600240044C0040F8D0002028
:101EA0007060024004500040F8100120B860024009
:101EB00004140140F8500120A064024010B5A0F1C4
:101EC0008041B1F5883120D011F54C4127D0B1F5D2
:101ED00080612FD0B1F5806137D0B1F580613FD0FE
:101EE000B1F5444147D011F51C414ED0B1F58061A8
:101EF00018BF10BD0121C807FEF7ECFCBDE810407B
:101F000000214FF00040FEF7E5BC01211020FEF754
:101F1000F9FC0021BDE810401020FEF7F3BC0121C0
:101F20004804FEF7D7FCBDE8104000214FF4003014
:101F3000FEF7D0BC01218804FEF7CCFCBDE81040C0
:101F400000214FF48020FEF7C5BC0121C804FEF734
:101F5000C1FCBDE8104000214FF40020FEF7BABCE0
:101F600001210805FEF7B6FCBDE8104000214FF442
:101F70008010FEF7AFBC01212020FEF7C3FC00213A
:101F8000BDE810402020FEF7BDBC01218807FEF708
:101F9000A1FCBDE8104000214FF08040FEF79ABC44
:101FA00010B401F01F0201240023C1F3421C04FA03
:101FB00002F2BCF1010F04BFB0F80CC00CEA02023F
:101FC00008D0BCF1020F0CBFB0F810C0B0F814C0BC
:101FD0000CEA0202090A008804FA01F10840002A0A
:101FE0001CBF00280123184610BC7047002912BFEF
:101FF000002A0020704770B50B4600267E4DA0F1E8
:1020000080411446B1F5883111D011F54C4134D0DE
:10201000B1F5806156D0B1F580617AD0B1F58061BB
:102020006FD0B1F5444100F0BF8000F0E3B82878EC
:102030006978084069790840A978084008BF70BDF0
:10204000EA6A002A00F0D680A2420FD922466B49E4
:102050001846FEF709F9E86A021B68480119FEF7FD
:1020600048F9E96A2046091AE96270BD63491846D1
:10207000FEF7FAF8E86AEE6270BDA879E9790840DF
:10208000E97A0840297A084008BF70BDEA6B002A47
:102090007ED0A2420FD9224659491846FEF7E4F8ED
:1020A000E86B021B56480119FEF723F9E96B20463D
:1020B000091AE96370BD52491846FEF7D5F8E86B76
:1020C000EE6370BD287B697B0840697C0840A97B72
:1020D000084008BF70BDEA6C002A59D0A24211D94D
:1020E000224648491846FEF7BFF8E86C021B4548EF
:1020F0000119FEF7FEF8E96C2046091AE96470BD83
:1021000007E02BE03F491846FEF7AEF8E86CEE64B6
:1021100070BDA87CE97C0840E97D0840297D084025
:1021200008BF70BDEA6D002A64D0A2420FD92246D2
:1021300035491846FEF798F8E86D021B3248011938
:10214000FEF7D7F8E96D2046091AE96570BD2E49FA
:102150001846FEF789F8E86DEE6570BD287E697E49
:102160000840697F0840A97E084008BF70BDEA6E3C
:1021700072B1A24211D9224624491846FEF774F8DA
:10218000E86E021B21480119FEF7B3F8204600E073
:1021900030E0E96E091AE96670BD1C491846FEF781
:1021A00063F8E86EEE6670BDA87FE97F084095F899
:1021B0002310084095F82010084008BF70BDEA6F52
:1021C000C2B1A2420FD9224611491846FEF74CF877
:1021D000E86F021B0E480119FEF78BF8E96F2046E5
:1021E000091AE96770BD0A491846FEF73DF8E86F1D
:1021F000EE6770BD002070BD00000020F8200020B8
:10220000F8600020F8A00020F8E00020F82001206D
:10221000F8600120C1F3421301F01F014FF0010CDF
:102220000CFA01F1012B08BF0C3003D0022B0CBFBC
:1022300010301430002A026814BF114322EA010151
:102240000160704730B50446008A85B00D46C988E4
:1022500020F4405008432082A089A9882A8920F4CC
:10226000037011436A8920F4A05010430843A081F1
:10227000A08AA98920F440700843A0826846FEF72E
:102280004DFBA4F18040B0F588301BBFA4F1804025
:10229000B0F58A3003980298A18911F4004F00EB41
:1022A000C00101EB0010296814BF49008900B0FB90
:1022B000F1F0114A6FF0180CA2FB00314909090135
:1022C0000B0903FB0CF300EB8300A38913F4004F0D
:1022D0004FF0320314BF03EBC00003EB0010A2FB6E
:1022E00000204FEA501014BF00F0070000F00F006C
:1022F0000843208105B030BD1F85EB518088C0F3B5
:10230000080070471749A0F18042B2F5883215D015
:1023100012F54C4216D0B2F5806217D0B2F5806249
:1023200018D0B2F5806219D0B2F5444218BF704798
:10233000D1F88000002808BF70470047086B0028CC
:10234000FBD17047086C0028F7D17047086D002852
:10235000F3D17047086E0028EFD17047086F00284E
:10236000EBD17047000000201749A0F18042B2F580
:10237000883214D012F54C4215D0B2F5806216D0D6
:10238000B2F5806217D0B2F5806218D0B2F544423F
:1023900018BF7047886F002808BF70470047886AD9
:1023A0000028FBD17047886B0028F7D17047886CF4
:1023B0000028F3D17047886D0028EFD17047886EF0
:1023C0000028EBD17047000000000020002908BF62
:1023D0007047164AA0F18043B3F5883304BF1163F8
:1023E0007047A0F18043B3F5884304BF1164704780
:1023F000A0F18043B3F5904304BF11657047A0F18D
:102400008043B3F5984304BF11667047A0F1804341
:10241000B3F5A04304BF11677047A0F18043B3F543
:102420008A3308BFC2F88010704700000000002007
:10243000002912BF002A002070472DE9F0471446FA
:1024400000264FF480574FF00108FE4DA0F1804266
:10245000B2F5883216D0DFF8F09312F54C4276D000
:10246000B2F5806200F02481B2F5806200F0AE81A6
:10247000B2F5806200F04B82B2F5444200F0D282A5
:1024800000F05BBB28786A781040EA781040AA78A0
:10249000104008BFBDE8F0876A6AB2F5805F80F03F
:1024A0004C83E848DFF8A493C2F58053406AA34206
:1024B000484406D2C2F58052FDF7D6FE00246F6272
:1024C00005E02246FDF7D0FE686A2044686228795C
:1024D000002840F02E8385F804806F6ADFF870834F
:1024E000B7F5805F34D9D9494FF4805201F5805057
:1024F000FDF7BAFEA7F5805209F58051D348FDF7E4
:10250000F8FE4FF0205147464046FEF707F80021FD
:102510003846FEF719F83846FEF7E2F80028FAD1F7
:102520004FF480513846FEF723F901213846FEF773
:102530000BF8D5E9220210F5805142F10000C5E9FF
:102540002210686AA0F58050686200F0F2BA27E0B5
:10255000BE493A4601F58050FDF786FE4FF0205106
:1025600047464046FDF7DAFF00213846FDF7ECFF0D
:102570003846FEF7B5F80028FAD1A88C81B2384663
:10258000FEF7F6F801213846FDF7DEFFD5E92221F6
:10259000686A6E6210187141C5E9220100F0C9BA7B
:1025A000A879EA7910406A7A10402A7A104008BF68
:1025B000BDE8F0876A6BB2F5805F80F0BE82A1480B
:1025C000DFF890A2C2F58053406BA342504406D27C
:1025D000C2F58052FDF748FE00246F6305E02246F5
:1025E000FDF742FE686B20446863A87A002840F03B
:1025F000A08285F80A80D5F83480974FB8F5805FBF
:1026000030D99449BA1401F58050FDF72DFEA8F594
:1026100080520AF580518F48FDF76BFE49463846D7
:10262000FDF77CFF00213846FDF78EFF3846FEF7A8
:1026300057F80028FAD14FF480513846FEF798F841
:1026400001213846FDF780FFD5E9260210F58051BB
:1026500042F10000C5E92610686BA0F58050686360
:1026600000F067BA7B49424601F58050FDF7FCFD5A
:1026700049463846FDF752FF00213846FDF764FF12
:102680003846FEF72DF80028FAD1A88E81B23846D8
:10269000FEF76EF801213846FDF756FFD5E92621F1
:1026A000686B6E6310187141C5E9260100F041BAEC
:1026B000287B6A7B1040EA7B1040AA7B104008BF51
:1026C000BDE8F0876A6CB2F5805F80F036825D48C5
:1026D000DFF88891C2F58053406CA342484406D28B
:1026E000C2F58052FDF7C0FD00246F6405E022466C
:1026F000FDF7BAFD686C20446864287C002840F02F
:10270000188285F810806F6CDFF85481B7F5805F10
:1027100033D952494FF4805201F58050FDF7A4FDA2
:10272000A7F5805209F580514C48FDF7E2FD4FF0C6
:10273000C05147464046FDF7F1FE00213846FDF7FF
:1027400003FF3846FDF7CCFF0028FAD14FF4805143
:102750003846FEF70DF801213846FDF7F5FED5E9BC
:102760002A0210F5805142F10000C5E92A10686C78
:10277000A0F58050686400F0DCB938493A4601F5AC
:102780008050FDF771FD4FF0C05147464046FDF7C0
:10279000C5FE00213846FDF7D7FE3846FDF7A0FFFD
:1027A0000028FAD1B5F8440081B23846FDF7E0FFC1
:1027B00001213846FDF7C8FED5E92A21686C6E6410
:1027C00010187141C5E92A0100F0B3B9A87CEA7C70
:1027D00010406A7D10402A7D104008BFBDE8F08798
:1027E0006A6DB2F5805F80F0A8811648DFF87490BA
:1027F000C2F58053406DA342484406D2C2F58052D0
:10280000FDF732FD00246F6505E02246FDF72CFD43
:10281000686D20446865A87D002840F08A8185F8AD
:102820001680D5F85480DFF840A0104FB8F5805FCF
:1028300047D90C49BA1401F58050FDF715FDA8F5EC
:10284000805215E00000002000002020F800002049
:10285000B8640240F8400020A0600240F8800020E8
:1028600058600240F8C00020200000207060024044
:1028700009F58051B248FDF73CFD51463846FDF759
:102880004DFE00213846FDF75FFE3846FDF728FF74
:102890000028FAD14FF480513846FDF769FF012135
:1028A0003846FDF751FED5E92E0210F5805142F170
:1028B0000000C5E92E10686DA0F58050686500F035
:1028C00038B99F49424601F58050FDF7CDFC51468D
:1028D0003846FDF723FE00213846FDF735FE384621
:1028E000FDF7FEFE0028FAD1B5F8540081B2384653
:1028F000FDF73EFF01213846FDF726FED5E92E21E2
:10290000686D6E6510187141C5E92E0111E1287ED0
:102910006A7E1040EA7E1040AA7E104008BFBDE8E3
:10292000F0876A6EB2F5805F7BD28648DFF8189236
:10293000C2F58053406EA342484406D2C2F580528D
:10294000FDF792FC00246F6605E02246FDF78CFC43
:10295000686E20446866287F002861D185F81C8055
:102960006F6EDFF8E881B7F5805F32D976494FF4B2
:10297000805201F58050FDF777FCA7F5805209F5EC
:1029800080517148FDF7B5FC4FF020514746404655
:10299000FDF7C4FD00213846FDF7D6FD3846FDF7AA
:1029A0009FFE0028FAD14FF480513846FDF7E0FE33
:1029B00001213846FDF7C8FDD5E9320210F58051F6
:1029C00042F10000C5E93210686EA0F580506866DB
:1029D000AFE05D493A4601F58050FDF745FC4FF008
:1029E000205147464046FDF799FD00213846FDF746
:1029F000ABFD3846FDF774FE0028FAD1B5F8640047
:102A000081B23846FDF7B4FE01213846FDF79CFD42
:102A1000D5E93221686E6E6610187141C5E9320140
:102A200087E089E0A87FEA7F104095F821201040D8
:102A300095F82020104008BFBDE8F0876A6FB2F516
:102A4000805F7AD23F48DFF808A1C2F58053406F1B
:102A5000A342504406D2C2F58052FDF705FC002483
:102A60006F6705E02246FDF7FFFB686F204468674B
:102A700095F82200B0BB85F82280D5F87480354FD8
:102A8000B8F5805F2FD93249BA1401F58050FDF7AF
:102A9000EBFBA8F580520AF580512D48FDF729FC83
:102AA00049463846FDF73AFD00213846FDF74CFD12
:102AB0003846FDF715FE0028FAD14FF4805138460C
:102AC000FDF756FE01213846FDF73EFDD5E93610EB
:102AD00011F5805140F10000C5E93610686FA0F58E
:102AE0008050686725E01A49424601F58050FDF79D
:102AF000BBFB49463846FDF711FD00213846FDF77E
:102B000023FD3846FDF7ECFD0028FAD1B5F8740036
:102B100081B23846FDF72CFE01213846FDF714FD41
:102B2000D5E93612686F6E67081842EB0601C5E9F1
:102B300036012046BDE8F087FFE70020BDE8F087BA
:102B4000F8C0002000000020F8000120B86002401A
:102B5000F8400120A0640240FEE70000002082B09F
:102B6000064C0346024600904FF4E1312046FEF742
:102B700029FD03492046FFF729FCFEE7001001402C
:102B80001D1000084FF04070E1EE100A7047000081
:102B9000B02B000800000020F8000000C40100086D
:102BA000A82C0008F800002060860100E001000861
:102BB0000000000000000000000000000000000015
:102BC0000000000000000000000000000000000005
:102BD00000000000000000000000000000000000F5
:102BE00000000000000000000000000000000000E5
:102BF00000000000000000000000000000000000D5
:102C000000000000000000000000000000000000C4
:102C100000000000000000000000000000000000B4
:102C200000000000000000000000000000000000A4
:102C30000000000000000000000000000000000094
:102C40000000000000000000000000000000000084
:102C50000000000000000000000000000000000074
:102C60000000000000000000000000000000000064
:102C70000000000000000000000000000000000054
:102C80000000000000000000000000000000000044
:102C9000000000000000000000000000010203042A
:082CA000010203040607080904
:040000050800018965
:00000001FF
