:020000040800F2
:1000000058870120290200082F0800082B08000843
:100010002D0800081B050008152D00080000000031
:10002000000000000000000000000000C5090008FA
:100030007507000800000000A1080008C7090008B3
:10004000430200084302000843020008430200087C
:10005000430200084302000843020008430200086C
:10006000430200084302000843020008430200085C
:10007000430200084302000843020008430200084C
:10008000430200084302000843020008430200083C
:10009000430200084302000843020008430200082C
:1000A000430200084302000843020008430200081C
:1000B000430200084302000843020008430200080C
:1000C00043020008430200084302000843020008FC
:1000D00043020008A90E0008C1100008B112000870
:1000E00043020008430200084302000843020008DC
:1000F00043020008430200084302000843020008CC
:1001000043020008430200084302000843020008BB
:10011000CD0A0008BD0C0008430200084302000895
:10012000430200084302000843020008430200089B
:10013000430200084302000843020008430200088B
:10014000430200084302000843020008430200087B
:100150004302000843020008430200089D140008FF
:10016000430200084302000843020008430200085B
:10017000430200084302000843020008430200084B
:10018000430200084302000800F002F800F03CF8C7
:100190000AA090E8000C82448344AAF10107DA45E2
:1001A00001D100F031F8AFF2090EBAE80F0013F0F8
:1001B000010F18BFFB1A43F001031847902B0000F2
:1001C000B02B0000103A24BF78C878C1FAD8520783
:1001D00024BF30C830C144BF04680C6070470000C1
:1001E0000023002400250026103A28BF78C1FBD840
:1001F000520728BF30C148BF0B6070471FB502F0DF
:100200009FFD1FBD10B510BD00F04EF91146FFF760
:10021000F5FF02F081FD00F06CF903B4FFF7F2FF87
:1002200003BC00F073F90000094880470948004703
:10023000FEE7FEE7FEE7FEE7FEE7FEE7FEE7FEE796
:10024000FEE7FEE704480549054A064B70470000F3
:10025000C909000889010008588101205887012038
:100260005883012058830120032A40F2308010F087
:10027000030C00F0158011F8013BBCF1020F624441
:1002800098BF11F801CB00F8013B38BF11F8013BD2
:10029000A2F1040298BF00F801CB38BF00F8013B7F
:1002A00011F0030300F09180083AC0F0088051F883
:1002B000043B083A51F804CBA0E80810F5E7121DFA
:1002C0005CBF51F8043B40F8043BAFF30080D20719
:1002D00024BF11F8013B11F801CB48BF11F8012BE5
:1002E00024BF00F8013B00F801CB48BF00F8012B08
:1002F0007047431A28BF9A427FF6B6AF032A1044CC
:10030000114440F2268010F0030F1EBF11F8013D8A
:10031000521E00F8013D10F0030F7FF4F6AF11F00C
:10032000030300F09780083AC0F00B8051F8043DB9
:10033000083A51F804CD40F8043D40F804CDFFF7E9
:10034000F3BF121D5CBF51F8043D40F8043DAFF30C
:100350000080D20724BF11F8013D11F801CD48BF3C
:1003600011F8012C24BF00F8013D00F801CD48BF71
:1003700000F8012C70474FF0000200B51346944678
:100380009646203922BFA0E80C50A0E80C50B1F1ED
:100390002001BFF4F7AF090728BFA0E80C5048BF01
:1003A0000CC05DF804EB890028BF40F8042B08BF9F
:1003B000704748BF20F8022B11F0804F18BF00F89B
:1003C000012B704770477047704710B5203AC0F056
:1003D0000B80B1E81850203AA0E81850B1E8185046
:1003E000A0E81850BFF4F5AF5FEA027C24BFB1E883
:1003F0001850A0E8185044BF18C918C0BDE81040F4
:100400005FEA827C24BF51F8043B40F8043B08BFFC
:100410007047D20728BF31F8023B48BF11F8012BC3
:1004200028BF20F8023B48BF00F8012B7047431A51
:1004300028BF9A427FF6C9AF104410F0030F114451
:100440001EBF11F8013D521E00F8013D10F0030FD0
:100450007FF4F6AF103AC0F00A8010B531E91850B9
:10046000103A20E91850BFF4F9AFBDE81040530727
:1004700024BF31E9081020E9081044BF51F8043DB9
:1004800040F8043D12F0030F08BF7047D20728BFA1
:1004900031F8023D48BF11F8012C28BF20F8023D79
:1004A00048BF00F8012C7047754600F02BF8AE46A7
:1004B00005006946534620F00700854618B020B570
:1004C000FFF7C0FEBDE820404FF000064FF00007E8
:1004D0004FF000084FF0000B21F00701AC46ACE8EC
:1004E000C009ACE8C009ACE8C009ACE8C0098D4659
:1004F000704710B50446AFF300802046BDE81040B9
:10050000FFF78BBE00487047F88001200149182092
:10051000ABBEFEE7260002007047FEE7064A9042A7
:1005200034BF0648064811F0005F064A01EA02019E
:1005300014BFC160816070471064024000600240D7
:10054000006402407D0F7D0F0029016814BF41F057
:10055000010121F001010160704700002DE9F00365
:10056000016821F0010101600021016041608160AA
:10057000C160016121214161434A3D2443499042C8
:1005800002BF8C60BDE8F0037047414A4FF47465C8
:10059000904202BF8D60BDE8F00370473D4A4FF4C2
:1005A0007418904202BFC1F80880BDE8F00370479C
:1005B000394A4FF07466904202BF8E60BDE8F00386
:1005C0007047364B364A984202BFCA60BDE8F00316
:1005D0007047DFF8D0C0344B604502BFCB60BDE848
:1005E000F0037047314FDFF8C8C0B84202BFC1F80E
:1005F0000CC0BDE8F0037047DFF8B8904FF03D57EE
:10060000484502BFCF60BDE8F0037047DFF8A8900F
:100610002A49484502BF0C60BDE8F0037047284CEA
:10062000A04202BF0D60BDE8F0037047254CA04218
:1006300002BFC1F80080BDE8F0037047224CA04221
:1006400002BF0E60BDE8F0037047204C2049A04275
:1006500002BF0A60BDE8F00370471E4A904202BF25
:100660000B60BDE8F00370471B4A904202BFC1F81F
:1006700000C0BDE8F0037047184A904208BF0F6001
:10068000BDE8F003704700001060024000600240C7
:1006900028600240406002405860024070600240A2
:1006A0003D00002088600240400F0020A060024012
:1006B00000003D20B860024010640240086402401F
:1006C0002864024040640240586402407064024062
:1006D0000C64024088640240A0640240B864024096
:1006E00001460020096811F0010F18BF0120704772
:1006F000406880B27047000010B402681B4BD1F80C
:100700000CC01A400B6843EA0C03D1E905C44CEA5B
:10071000040C43EA0C03D1F81CC043EA0C03D1F8E3
:1007200020C043EA0C03D1F824C043EA0C03D1F8FB
:1007300028C043EA0C03D1F834C043EA0C03D1F8D3
:1007400038C043EA0C031A4302604269D1E90B3C0A
:1007500022F0070243EA0C031A4342610A6942602D
:100760004A6882608968C16010BC70473F801CF095
:1007700041607047704700002DE9F001002201251B
:100780005FF00306D1F800C005FA02F30CEA030C8F
:100790009C4533D107684FEA420C06FA0CF4A74394
:1007A00007600F79D0F8008007FA0CF747EA0807CE
:1007B00007600F79012F18BF022F14D18768A74354
:1007C00087604F79D0F8088007FA0CF747EA0807E6
:1007D0008760476827EA0303436043688F7997403F
:1007E000BFB23B434360C368A343C360CB7903FA02
:1007F0000CF3D0F80CC043EA0C03C360521C102A5F
:10080000C0D3BDE8F00170474B07DB0E9A40C90822
:1008100000EB8100016A4FF00F0C0CFA03F39943CF
:100820000162016A114301627047FEE7FEE770470B
:1008300010B4C27801780F244FF0010C0AB3174AA4
:10084000126801F1E02102F4E062C2F5E062C2F355
:100850000722C2F10403D44042789A4083782340AF
:100860001A43120181F80024007800F01F010CFAED
:1008700001F14009800000F1E020C0F8001110BC37
:10088000704701F01F000CFA00F04909890001F1DE
:10089000E021C1F8800110BC704700000CED00E0C1
:1008A00070470000044A0029116814BF084321EA78
:1008B000000010607047000030380240044A0029F0
:1008C000116814BF084321EA00001060704700005F
:1008D00040380240044A0029116814BF084321EA45
:1008E000000010607047000020380240044A0029D0
:1008F000116814BF084321EA00001060704700002F
:1009000044380240044A0029116814BF084321EA10
:10091000000010607047000024380240254A30B4BF
:100920001168254B11F00C0106D05C10042908BF9A
:10093000046002D008291ED0036011680F2303EA67
:1009400011111E4B595CD0F800C02CFA01F1416026
:10095000D2F800C0072404EA9C2C13F80CC021FA3A
:100960000CFCC0F808C0126804EA52329A5CD1400C
:10097000C16030BC70471249D1F800C0CCF380553B
:10098000D1F800C0002D0CF03F0C14BFB4FBFCF3F9
:10099000B3FBFCF3D1F800C00968CCF3881C03FB5F
:1009A0000CF3C1F30141491C4900B3FBF1F10160B3
:1009B000C3E70000083802400024F400E8000020EB
:1009C0000438024070477047374882B0016841F4EC
:1009D000700101603548016841F00101016034494E
:1009E00000230B60026822F4102222F08072026061
:1009F00000F1040C2F4ACCF80020026822F4802277
:100A000002600A1D136001930093026842F4803271
:100A10000260026802F400320092019A521C0192B4
:100A2000009A1AB9019AB2F5A04FF2D1026812F4F5
:100A3000003F08BF009331D0012200921E4A136884
:100A400043F0805313601D4A136843F4404313601E
:100A50000A680A600A6842F400420A600A6842F4BE
:100A6000A0520A60164ACCF80020026842F0807258
:100A70000260026812F0007FFBD0124A40F205705B
:100A80001060086820F003000860086840F0020069
:100A90000860086800F00C000828FAD10A494FF0F5
:100AA0000060086002B0704788ED00E00038024046
:100AB00008380240103000244038024000700040E6
:100AC00008544007003C024008ED00E02DE9F041E9
:100AD000714F40F22661384601F0D2FA00266F4D80
:100AE000002874D040F22661384600F0D1FD72B67D
:100AF000686D00283BD0686DDFF8A481694CB0F5C3
:100B0000805F3AD96849A21401F58050FFF7ACFB29
:100B1000686D6649A0F58052A1F58050FFF7E9FBAA
:100B200041462046FFF7FAFC00212046FFF70CFD66
:100B30002046FFF7D5FD0028FAD14FF4805120461A
:100B4000FFF716FE01212046FFF7FEFCD5F8B8009E
:100B5000D5F8BC2010F5805142F10000C5F8B8105E
:100B6000C5F8BC00686DA0F5805068652EE0AE75D4
:100B700062B6384601F08CFC29E06A6D4A4901F5FD
:100B80008050FFF771FB41462046FFF7C7FC00216C
:100B90002046FFF7D9FC2046FFF7A2FD0028FAD136
:100BA000686D81B22046FFF7E3FD01212046FFF783
:100BB000CBFCD5F8B810D5F8BC20686D081842EB0E
:100BC0000601C5F8B800C5F8BC106E6562B640F203
:100BD0002441384601F054FA002808BFBDE8F081EE
:100BE000384601F01FFC72B6DFF8C4804046FFF7BC
:100BF0007FFDD5F8C010C0F58054D5F8C4000919A0
:100C00007041C5F8C010C5F8C400E86D294EC0F5A4
:100C10008050A04237D2B4F5805F10D2E86DC4F5A1
:100C20008052C0F58050201A81193046FFF761FBD1
:100C3000C4F580503044224606F5805106E01E4837
:100C40004FF480522044A0F580511A48FFF70CFB66
:100C50004FF48050E86500214046FFF775FC4046A0
:100C6000FFF73EFD0028FAD14FF480514046FFF7D0
:100C70007FFD01214046FFF767FC62B63846BDE8BC
:100C8000F04101F0D3BBE86D224630440A49FFF73A
:100C9000EBFAE86D2044DDE7004C00400000002046
:100CA0002000002070600240F8C00020F8D0002032
:100CB00040600240F8E00020F8F000202DE9F0410B
:100CC000714C40F22661204601F0DAF900266F4DA2
:100CD000002873D040F22661204600F0D9FC72B69D
:100CE000686E00283AD0686E694FB0F5805F3BD9D6
:100CF0006849BA1401F58050FFF7B6FA686E664984
:100D0000A0F58052A1F58050FFF7F3FA4FF0205183
:100D10003846FFF703FC00213846FFF715FC38463C
:100D2000FFF7DEFC0028FAD14FF480513846FFF778
:100D30001FFD01213846FFF707FCD5F8C810D5F88C
:100D4000CC0011F5805140F10000C5F8C810C5F87D
:100D5000CC00686EA0F5805068662EE02E7762B6F3
:100D6000204601F095FB29E06A6E4A4901F5805062
:100D7000FFF77AFA4FF020513846FFF7CFFB0021FA
:100D80003846FFF7E1FB3846FFF7AAFC0028FAD106
:100D9000686E81B23846FFF7EBFC01213846FFF759
:100DA000D3FBD5F8C820D5F8CC10686E1018714167
:100DB000C5F8C800C5F8CC106E6662B640F2244192
:100DC000204601F05DF9002808BFBDE8F081A0468B
:100DD000204601F027FB72B6304F3846FFF788FCFB
:100DE000D5F8D010C0F58054D5F8D4000919704159
:100DF000C5F8D010C5F8D400E86E294EC0F5805073
:100E0000A04237D2B4F5805F10D2E86EC4F58052AC
:100E1000C0F58050201A81193046FFF76AFAC4F5F0
:100E200080503044224606F5805106E01D484FF4BC
:100E300080522044A0F580511948FFF715FA4FF46D
:100E40008050E86600213846FFF77EFB3846FFF702
:100E500047FC0028FAD14FF480513846FFF788FC50
:100E600001213846FFF770FB62B64046BDE8F0410D
:100E700001F0DCBAE86E224630440A49FFF7F4F983
:100E8000E86E2044DDE70000005000400000002034
:100E9000B8600240F8000120F81001201060024004
:100EA000F8200120F83001202DE9F041714C40F28A
:100EB0002661204601F0E4F800266F4D002873D02B
:100EC00040F22661204600F0E3FB72B6686A002813
:100ED0003AD0686A694FB0F5805F3BD96849BA1467
:100EE00001F58050FFF7C0F9686A6649A0F58052A5
:100EF000A1F58050FFF7FDF94FF020513846FFF77C
:100F00000DFB00213846FFF71FFB3846FFF7E8FBD3
:100F10000028FAD14FF480513846FFF729FC01210F
:100F20003846FFF711FBD5F88810D5F88C0011F57D
:100F3000805140F10000C5F88810C5F88C00686A3F
:100F4000A0F5805068622EE02E7162B6204601F056
:100F50009FFA29E06A6A4A4901F58050FFF784F94F
:100F60004FF020513846FFF7D9FA00213846FFF7F5
:100F7000EBFA3846FFF7B4FB0028FAD1686A81B271
:100F80003846FFF7F5FB01213846FFF7DDFAD5F8C3
:100F90008820D5F88C10686A10187141C5F888004F
:100FA000C5F88C106E6262B640F22441204601F012
:100FB00067F8002808BFBDE8F081A046204601F090
:100FC00031FA72B6304F3846FFF792FBD5F89010E1
:100FD000C0F58054D5F8940009197041C5F89010F7
:100FE000C5F89400E86A294EC0F58050A04237D277
:100FF000B4F5805F10D2E86AC4F58052C0F5805025
:10100000201A81193046FFF774F9C4F58050304436
:10101000224606F5805106E01D484FF480522044D8
:10102000A0F580511948FFF71FF94FF48050E8628E
:1010300000213846FFF788FA3846FFF751FB0028B1
:10104000FAD14FF480513846FFF792FB0121384620
:10105000FFF77AFA62B64046BDE8F04101F0E6B922
:10106000E86A224630440A49FFF7FEF8E86A20445D
:10107000DDE700000010014000000020B8640240DD
:10108000F8000020F810002040640240F820002002
:10109000F830002010B59AB064216846FFF76BF96C
:1010A000064C64226946204601F010F80246694663
:1010B000204601F051FA1AB010BD000000100140A6
:1010C0002DE9F041714F40F22661384600F0D8FF1B
:1010D00000266F4D002874D040F22661384600F09B
:1010E000D7FA72B6686B00283BD0686BDFF8A48132
:1010F000694CB0F5805F3AD96849A21401F5805077
:10110000FFF7B2F8686B6649A0F58052A1F58050F0
:10111000FFF7EFF841462046FFF700FA002120468E
:10112000FFF712FA2046FFF7DBFA0028FAD14FF456
:1011300080512046FFF71CFB01212046FFF704FAEF
:10114000D5F89800D5F89C2010F5805142F10000A8
:10115000C5F89810C5F89C00686BA0F580506863CE
:101160002EE0AE7262B6384601F092F929E06A6B61
:101170004A4901F58050FFF777F841462046FFF7CE
:10118000CDF900212046FFF7DFF92046FFF7A8FA46
:101190000028FAD1686B81B22046FFF7E9FA0121F5
:1011A0002046FFF7D1F9D5F89810D5F89C20686B48
:1011B000081842EB0601C5F89800C5F89C106E634C
:1011C00062B640F22441384600F05AFF002808BFBA
:1011D000BDE8F081384601F025F972B6DFF8C48029
:1011E0004046FFF785FAD5F8A010C0F58054D5F831
:1011F000A40009197041C5F8A010C5F8A400E86B57
:10120000294EC0F58050A04237D2B4F5805F10D28D
:10121000E86BC4F58052C0F58050201A8119304621
:10122000FFF767F8C4F580503044224606F5805138
:1012300006E01E484FF480522044A0F580511A4821
:10124000FFF712F84FF48050E86300214046FFF7A3
:101250007BF94046FFF744FA0028FAD14FF4805159
:101260004046FFF785FA01214046FFF76DF962B667
:101270003846BDE8F04101F0D9B8E86B2246304469
:101280000A49FEF7F1FFE86B2044DDE70044004027
:101290000000002000002020A0600240F840002054
:1012A000F850002088600240F8600020F8700020AC
:1012B0002DE9F041714C40F22661204600F0E0FE3D
:1012C00000266F4D002873D040F22661204600F0C2
:1012D000DFF972B6686C00283AD0686C694FB0F5D7
:1012E000805F3BD96849BA1401F58050FEF7BCFF16
:1012F000686C6649A0F58052A1F58050FEF7F9FFB1
:101300004FF0C0513846FFF709F900213846FFF782
:101310001BF93846FFF7E4F90028FAD14FF4805161
:101320003846FFF725FA01213846FFF70DF9D5F8C1
:10133000A810D5F8AC0011F5805140F10000C5F8B7
:10134000A810C5F8AC00686CA0F5805068642EE069
:101350002E7462B6204601F09BF829E06A6C4A4977
:1013600001F58050FEF780FF4FF0C0513846FFF77F
:10137000D5F800213846FFF7E7F83846FFF7B0F90F
:101380000028FAD1686C81B23846FFF7F1F90121E3
:101390003846FFF7D9F8D5F8A820D5F8AC10686C16
:1013A00010187141C5F8A800C5F8AC106E6462B69B
:1013B00040F22441204600F063FE002808BFBDE84B
:1013C000F081A046204601F02DF872B6304F384625
:1013D000FFF78EF9D5F8B010C0F58054D5F8B400F9
:1013E00009197041C5F8B010C5F8B400E86C294E71
:1013F000C0F58050A04237D2B4F5805F10D2E86CBF
:10140000C4F58052C0F58050201A81193046FEF78D
:1014100070FFC4F580503044224606F5805106E046
:101420001D484FF480522044A0F580511948FEF722
:101430001BFF4FF48050E86400213846FFF784F822
:101440003846FFF74DF90028FAD14FF4805138465D
:10145000FFF78EF901213846FFF776F862B640466D
:10146000BDE8F04100F0E2BFE86C224630440A4992
:10147000FEF7FAFEE86C2044DDE70000004800407B
:101480000000002058600240F8800020F890002002
:1014900028600240F8A00020F8B000202DE9F041BB
:1014A000724F40F22661384600F0EAFD0026704D8A
:1014B000002875D040F22661384600F0E9F872B68F
:1014C000686F00283BD0686FDFF8A8816A4CB0F5E0
:1014D000805F3BD96949A21401F58050FEF7C4FE34
:1014E000686F6749A0F58052A1F58050FEF701FFB3
:1014F00041462046FFF712F800212046FFF724F866
:101500002046FFF7EDF80028FAD14FF4805120462D
:10151000FFF72EF901212046FFF716F8D5F8D8007D
:10152000D5F8DC2010F5805142F10000C5F8D81044
:10153000C5F8DC00686FA0F5805068672FE085F87B
:10154000226062B6384600F0A3FF29E06A6F4B497B
:1015500001F58050FEF788FE41462046FEF7DEFF8B
:1015600000212046FEF7F0FF2046FFF7B9F80028DB
:10157000FAD1686F81B22046FFF7FAF801212046C0
:10158000FEF7E2FFD5F8D810D5F8DC20686F081810
:1015900042EB0601C5F8D800C5F8DC106E6762B6EC
:1015A00040F22441384600F06BFD002808BFBDE83A
:1015B000F081384600F036FF72B6DFF8C88040464A
:1015C000FFF796F8D5F8E010C0F58054D5F8E400A0
:1015D00009197041C5F8E010C5F8E400E86F2A4E1B
:1015E000C0F58050A04237D2B4F5805F10D2E86FCA
:1015F000C4F58052C0F58050201A81193046FEF79C
:1016000078FEC4F580503044224606F5805106E04D
:101610001E484FF480522044A0F580511A48FEF72E
:1016200023FE4FF48050E86700214046FEF78CFF10
:101630004046FFF755F80028FAD14FF48051404654
:10164000FFF796F801214046FEF77EFF62B6384666
:10165000BDE8F04100F0EABEE86F224630440B4995
:10166000FEF702FEE86F2044DDE7000000140140B1
:101670000000002000002020A0640240F84001206B
:10168000F850012028640240F8600120F870012021
:10169000090A012202FA01F1C943018070470029B9
:1016A000818914BF41F4005121F4005181817047B8
:1016B0002DE9FF4F89B04FF00008CDF80080CDF83C
:1016C0000480DFF80CB407464546CDF81080CDF80D
:1016D0001480CDF818804FF002094FF0030A01265C
:1016E000FC4CA0F18040CDF81C80B0F5883016D0BD
:1016F000A7F18040B0F588404DD0B0F580607DD036
:10170000DFF8D4B3B0F5806079D0B0F5806000F038
:10171000F680B0F5444000F0298100F060B972B65F
:10172000257165624FF00C08E562207820B92670BB
:1017300001211020FFF7DAF86078002840F04F818F
:10174000667001210846FFF7ADF801210846FFF752
:10175000A9F8072209215846FFF756F807220A215F
:101760005846FFF751F88DF804904FF400708DF84B
:1017700005A000908DF806508DF807606946584620
:10178000FEF7FAFF4FF48060009069465846FEF776
:10179000F3FF00F024B972B6A57265634FF00C0830
:1017A000E563A07920B9A67101214804FFF786F806
:1017B000E079002840F01381E67101210846FFF727
:1017C00071F801210846FFF76DF8072202215846FB
:1017D000FFF71AF8072203215846FFF715F88DF88E
:1017E000049004208DF805A000908DF806508DF827
:1017F000076069465846FEF7BFFF01E008E044E095
:101800000820009069465846FEF7B6FF00F0E7B89A
:1018100072B6257465644FF00C08E564207B20B92E
:10182000267301218804FFF749F8607B002840F007
:10183000D680667301210220FFF734F801210220CF
:10184000FFF730F8DFF894B207220A215846FEF776
:10185000DBFF07220B215846FEF7D6FF8DF80490D8
:101860004FF480608DF805A000908DF806508DF83B
:10187000076069465846FEF77FFF4FF4006000900E
:1018800069465846FEF778FFA9E072B6A57565650A
:101890004FF00C08E565A07C20B9A6740121C804AE
:1018A000FFF70CF8E07C00287DD1E67401210420CC
:1018B000FEF7F8FF01210420FEF7F4FF08220A21B9
:1018C0005846FEF7A1FF08220B215846FEF79CFF61
:1018D0008DF804904FF480608DF805A000908DF88D
:1018E00006508DF8076069465846FEF745FF4FF4ED
:1018F0000060009069465846FEF73EFF6FE072B602
:10190000257765664FF00C08E566207E20B92676BF
:1019100001210805FEF7D2FF607E00285FD16676C0
:1019200001210420FEF7BEFF01210820FEF7BAFFC7
:1019300008220C215846FEF767FF0822022168485A
:10194000FEF762FF8DF804904FF480508DF805A0EB
:1019500000908DF806508DF8076069465846FEF7EE
:101960000BFF0420009069465D4836E072B684F8AB
:10197000225065674FF00C08E567A07F20B9A67775
:1019800001212020FEF7B2FFE07F60B9E677012158
:101990000420FEF787FF01210420FEF783FF0822C1
:1019A0000621584600E01AE0FEF72EFF0822072124
:1019B0005846FEF729FF8DF8049040208DF805A0C9
:1019C00000908DF806508DF8076069465846FEF77E
:1019D000D3FE8020009069465846FEF7CDFE38467B
:1019E00000F0DCFA0A9804900B98ADF814000C98FB
:1019F000ADF816001698ADF81800ADF81A80ADF8DD
:101A00001C5004A9384600F0B1FCB8F1080F41D0D1
:101A1000B8F1040F4FF001024BD08021384600F09E
:101A2000C3F801224021384600F0BEF8012240F2FE
:101A30002661384600F082FC012240F224413846FB
:101A400000F07CFC384600F0B1F9384600F0B4F8FC
:101A500001213846FFF723FEA7F180400295B0F53B
:101A6000883013D010F54C404AD0B0F5806057D084
:101A7000B0F5806064D0B0F5806073D0B0F54440BC
:101A800004BF94F8200000287CD089E0A0780028CA
:101A900065D127E001228021384600F085F8012237
:101AA00040F22661384600F049FC384600F07EF9E5
:101AB000CEE74021384600F077F8012240F2244179
:101AC000384600F03BFC384600F076F8C0E70000EE
:101AD0000000024000000020000802400004024014
:101AE000000C0240A67025208DF808008DF80950E2
:101AF0008DF80A508DF80B6002A8FEF799FE4FE0B2
:101B0000207A60BB267226208DF808008DF80950D7
:101B10008DF80A508DF80B6002A8FEF789FE3FE0B1
:101B2000A07BE0B9A67327208DF808008DF8095036
:101B30008DF80A508DF80B6002A8FEF779FE2FE0B1
:101B4000207D60B9267534208DF808008DF8095085
:101B50008DF80A508DF80B6002A8FEF769FE1FE0B1
:101B600000E00FE0A07ED8B9A67635208DF80800F9
:101B70008DF809508DF80A508DF80B6002A8FEF719
:101B800057FE0DE084F8206047208DF808008DF89E
:101B900009508DF80A508DF80B6002A8FEF748FE38
:101BA00062B60DB0BDE8F08F002A828A14BF1143DF
:101BB00022EA0101818270472DE9F04F8FB00025A4
:101BC000009501950295039504955F4E0446059591
:101BD00006950795089509955C4FDFF87481DFF845
:101BE0007491DFF874A1DFF874B10A950B950C9528
:101BF0000D950E95B44218BFBC4203D0444518BFA2
:101C00004C4534D101214805FEF74CFE4FF480606D
:101C10000395CDE905508010CDE908500002CDE9CB
:101C20000A0507950320CDE90C0501204C49C306A0
:101C300002030E95544521D148714A484B4CCDE9D9
:101C400000304948029004922046FEF787FC204667
:101C5000FEF746FD0028FAD169462046FEF74CFD06
:101C600001212046FEF770FC0FB0BDE8F08F54450F
:101C700012BF5C4501218805C6D0C7E7B44210D128
:101C8000C8723B483C4CCDE900303A48029004927F
:101C90002046FEF763FC2046FEF722FD0028FAD11D
:101CA000DAE7BC4210D148743448364CCDE90030F4
:101CB0003348029004922046FEF750FC2046FEF77F
:101CC0000FFD0028FAD1C7E7444510D1C8752E484A
:101CD0002F4CCDE900302D48029004922046FEF7AB
:101CE0003DFC2046FEF7FCFC0028FAD1B4E74C4549
:101CF00010D148772748294CCDE90030264802907A
:101D000004922046FEF72AFC2046FEF7E9FC002854
:101D1000FAD1A1E75C451CBF0FB0BDE8F08F81F898
:101D200023004FF0206000901D4801901D481E4C7C
:101D3000029004922046FEF711FC2046FEF7D0FCEC
:101D40000028FAD188E70000004400400048004025
:101D5000004C0040005000400010014000140140C1
:101D60000000002004100140F830002040640240D0
:101D700004440040F870002088600240044800409D
:101D8000F8B0002028600240044C0040F8F0002029
:101D90004060024004500040F830012010600240D2
:101DA00004140140F8700120286402402DE9F04F2E
:101DB0008FB00025009501950295039504955E4E20
:101DC0000446059506950795089509955B4FDFF83C
:101DD0007081DFF87091DFF870A1DFF870B10A95BB
:101DE0000B950C950D950E95B44218BFBC4203D0CF
:101DF000444518BF4C4533D101214805FEF752FD3B
:101E0000402003900001CDE9055007958001089519
:101E1000CDE909500320CDE90B5001204C49C30600
:101E200002030D950E95544521D1C87049484B4C7D
:101E3000CDE900304848029004922046FEF78EFB20
:101E40002046FEF74DFC0028FAD169462046FEF7F1
:101E500053FC00212046FEF777FB0FB0BDE8F08F62
:101E6000544512BF5C4501218805C7D0C8E7B4427C
:101E700010D148723A483C4CCDE9003039480290C4
:101E800004922046FEF76AFB2046FEF729FC002854
:101E9000FAD1DAE7BC4210D1C8733448354CCDE9E9
:101EA00000303348029004922046FEF757FB20464C
:101EB000FEF716FC0028FAD1C7E7444510D1487553
:101EC0002D482F4CCDE900302C480290049220463A
:101ED000FEF744FB2046FEF703FC0028FAD1B4E7E6
:101EE0004C4510D1C8762748284CCDE9003026480B
:101EF000029004922046FEF731FB2046FEF7F0FBED
:101F00000028FAD1A1E75C451CBF0FB0BDE8F08FF7
:101F100081F821004FF0206000901D4801901D487D
:101F20001D4C029004922046FEF718FB2046FEF757
:101F3000D7FB0028FAD188E7004400400048004061
:101F4000004C0040005000400010014000140140CF
:101F50000000002004100140F8100020B864024086
:101F600004440040F8500020A060024004480040B3
:101F7000F890002058600240044C0040F8D0002047
:101F80007060024004500040F8100120B860024028
:101F900004140140F8500120A064024010B5A0F1E3
:101FA0008041B1F5883120D011F54C4127D0B1F5F1
:101FB00080612FD0B1F5806137D0B1F580613FD01D
:101FC000B1F5444147D011F51C414ED0B1F58061C7
:101FD00018BF10BD0121C807FEF77CFCBDE810400A
:101FE00000214FF00040FEF775BC01211020FEF7E4
:101FF00089FC0021BDE810401020FEF783BC0121C0
:102000004804FEF767FCBDE8104000214FF40030A3
:10201000FEF760BC01218804FEF75CFCBDE81040BF
:1020200000214FF48020FEF755BC0121C804FEF7C3
:1020300051FCBDE8104000214FF40020FEF74ABCDF
:1020400001210805FEF746FCBDE8104000214FF4D1
:102050008010FEF73FBC01212020FEF753FC002139
:10206000BDE810402020FEF74DBC01218807FEF797
:1020700031FCBDE8104000214FF08040FEF72ABC43
:1020800010B401F01F0201240023C1F3421C04FA22
:1020900002F2BCF1010F04BFB0F80CC00CEA02025E
:1020A00008D0BCF1020F0CBFB0F810C0B0F814C0DB
:1020B0000CEA0202090A008804FA01F10840002A29
:1020C0001CBF00280123184610BC7047002912BF0E
:1020D000002A0020704770B50B460026904DA0F1F5
:1020E00080411446B1F5883139D011F54C4163D0A7
:1020F000B1F580617ED0B1F5806100F0B180B1F5BD
:10210000806100F0D780B1F544411CBF002070BD54
:1021100072B6A87F00281CBFE87F002800F0F3807B
:1021200095F8230000281FBF95F820000028E86FCD
:10213000002800F0E880E86FA04240F2E78079498B
:102140001846FEF791F8E86F021B76480119FEF772
:10215000D0F8E96F2046091AE96700F0DEB872B6D8
:10216000287800281CBF6878002800F0CC806879A7
:1021700000281FBFA8780028E86A002800F0C38064
:10218000E86AA0420FD968491846FEF76DF8E86A78
:10219000021B65480119FEF7ACF8E96A2046091AE6
:1021A000E96200F0BAB8EA6A5F491846FEF75CF8DF
:1021B000E86AEE6200F0B1B872B6A87900281CBFD8
:1021C000E879002875D0E87A00281FBF287A00280F
:1021D000E86B00286DD0E86BA04210D9534918462F
:1021E000FEF742F8E86B021B50480119FEF781F830
:1021F000E96B00E00BE02046091AE9638DE0EA6B29
:102200004A491846FEF730F8E86BEE6385E072B68F
:10221000287B00281CBF687B002874D0687C0028BD
:102220001FBFA87B0028E86C00286CD0E86CA04297
:102230000ED93F491846FEF717F8E86C021B3C48D8
:102240000119FEF756F8E96C2046091AE96464E0C2
:10225000EA6C37491846FEF707F8E86CEE645CE074
:1022600072B6A87C00281CBFE87C00284BD0E87D13
:1022700000281FBF287D0028E86D002843D0E86DA6
:10228000A0420ED92B491846FDF7EEFFE86D021B60
:1022900028480119FEF72DF8E96D2046091AE9656D
:1022A0003BE0EA6D23491846FDF7DEFFE86DEE6579
:1022B00033E028E072B6287E00281CBF687E002824
:1022C00021D0687F00281FBFA87E0028E86E002864
:1022D00019D0E86EA0420ED917491846FDF7C4FF81
:1022E000E86E021B14480119FEF703F8E96E204658
:1022F000091AE96611E0EA6E0F491846FDF7B4FFC6
:10230000E86EEE6609E062B6002070BDEA6F05492E
:102310001846FDF7A9FFE86FEE6762B670BD0000D2
:1023200000000020F8600120F8200020F860002064
:10233000F8A00020F8E00020F8200120C1F34213AB
:1023400001F01F014FF0010C0CFA01F1012B08BF45
:102350000C3003D0022B0CBF10301430002A02685E
:1023600014BF114322EA01010160704730B50446F1
:10237000008A85B00D46C98820F440500843208269
:10238000A089A9882A8920F4037011436A8920F45E
:10239000A05010430843A081A08AA98920F440706E
:1023A0000843A0826846FEF7B9FAA4F18040B0F570
:1023B00088301BBFA4F18040B0F58A3003980298A2
:1023C000A18911F4004F00EBC00101EB0010296856
:1023D00014BF49008900B0FBF1F0114A6FF0180CEE
:1023E000A2FB0031490909010B0903FB0CF300EBC7
:1023F0008300A38913F4004F4FF0320314BF03EBA3
:10240000C00003EB0010A2FB00204FEA501014BFE5
:1024100000F0070000F00F000843208105B030BD38
:102420001F85EB518088C0F3080070471749A0F161
:102430008042B2F5883215D012F54C4216D0B2F572
:10244000806217D0B2F5806218D0B2F5806219D0E0
:10245000B2F5444218BF7047D1F88000002808BF89
:1024600070470047086B0028FBD17047086C0028B4
:10247000F7D17047086D0028F3D17047086E002827
:10248000EFD17047086F0028EBD1704700000020A3
:102490001749A0F18042B2F5883214D012F54C42AF
:1024A00015D0B2F5806216D0B2F5806217D0B2F5C1
:1024B000806218D0B2F5444218BF7047886F002878
:1024C00008BF70470047886A0028FBD17047886BB7
:1024D0000028F7D17047886C0028F3D17047886DC9
:1024E0000028EFD17047886E0028EBD170470000BC
:1024F00000000020002908BF7047164AA0F1804361
:10250000B3F5883304BF11637047A0F18043B3F57E
:10251000884304BF11647047A0F18043B3F5904332
:1025200004BF11657047A0F18043B3F5984304BF21
:1025300011667047A0F18043B3F5A04304BF116753
:102540007047A0F18043B3F58A3308BFC2F880100A
:102550007047000000000020002912BF002A002060
:1025600070472DE9F047144600264FF480574FF08E
:102570000108FE4DA0F18042B2F588322DD0DFF87F
:10258000F09312F54C427DD0B2F5806200F0558197
:10259000B2F5806200F0FA81B2F5806200F08F82BD
:1025A000B2F544421CBF0020BDE8F08772B6A87F98
:1025B00000281CBFE87F00280BD095F821000028D8
:1025C0001FBF95F820000028686FB0F5805FC0F04D
:1025D0000D8362B60020BDE8F08772B62878002827
:1025E0001CBF68780028F4D0E87800281FBFA878BE
:1025F0000028686AB0F5805FEBD2686ADFF87493F0
:10260000C0F58050A042686A0AD2C0F58052686A5C
:102610004844FDF729FE6F62686AC0F5805406E001
:1026200048442246FDF720FE686A20446862287903
:10263000002840F05C8385F80480686ACE4FB0F5CE
:10264000805F38D9CB49BA1401F58050FDF70CFEF4
:10265000686A09F58051A0F58052C648FDF749FE29
:102660004FF020513846FDF759FF00213846FDF75D
:102670006BFF3846FEF734F80028FAD14FF480514A
:10268000384600E042E0FEF773F801213846FDF7D6
:102690005BFFD5F88810D5F88C0011F5805140F11A
:1026A0000000C5F88810C5F88C00686AA0F5805055
:1026B000686200F01CBB6A6AAE4901F58050FDF704
:1026C000D3FD4FF020513846FDF728FF0021384652
:1026D000FDF73AFF3846FEF703F80028FAD1686A9A
:1026E00081B23846FEF744F801213846FDF72CFF49
:1026F000D5F88820D5F88C10686A10187141C5F893
:102700008800C5F88C106E6200F0F1BA72B6A87934
:1027100000281CBFE87900283FF45BAF687A0028E6
:102720001FBF287A0028686BB0F5805FBFF451AFF7
:10273000686BDFF848A2C0F58050A042686B0AD2EF
:10274000C0F58052686B5044FDF78EFD6F63686B77
:10275000C0F5805406E050442246FDF785FD686BC5
:1027600020446863A87A002840F0C18285F80A8076
:10277000686B834FB0F5805F35D98049BA1401F595
:102780008050FDF771FD686B0AF58051A0F580520D
:102790007A48FDF7AEFD49463846FDF7BFFE0021F9
:1027A0003846FDF7D1FE3846FDF79AFF0028FAD1EA
:1027B0004FF480513846FDF7DBFF01213846FDF725
:1027C000C3FED5F89800D5F89C2010F5805142F151
:1027D0000000C5F89810C5F89C00686BA0F5805003
:1027E000686300F084BA6A6B644901F58050FDF7B4
:1027F0003BFD49463846FDF791FE00213846FDF77E
:10280000A3FE3846FDF76CFF0028FAD1686B81B251
:102810003846FDF7ADFF01213846FDF795FED5F8A6
:102820009820D5F89C10686B10187141C5F8980075
:10283000C5F89C106E6300F05ABA72B6287B002867
:102840001CBF687B00283FF4C4AEE87B00281FBF94
:10285000A87B0028686CB0F5805FBFF4BAAE686CE6
:10286000DFF82091C0F58050A042686C0AD2C0F514
:102870008052686C4844FDF7F7FC6F64686CC0F5E3
:10288000805406E048442246FDF7EEFC686C204484
:102890006864287C002840F02A8285F81080686CE3
:1028A000394FB0F5805F36D93649BA1401F58050FA
:1028B000FDF7DAFC686C09F58051A0F580523148CB
:1028C000FDF717FD4FF0C0513846FDF727FE0021F8
:1028D0003846FDF739FE3846FDF702FF0028FAD1E9
:1028E0004FF480513846FDF743FF01213846FDF78C
:1028F0002BFED5F8A810D5F8AC0011F5805140F1A9
:102900000000C5F8A810C5F8AC00686CA0F58050B0
:10291000686400F0ECB96A6C1A4901F58050FDF763
:10292000A3FC4FF0C0513846FDF7F8FD00213846B2
:10293000FDF70AFE3846FDF7D3FE0028FAD1686C91
:1029400081B23846FDF714FF01213846FDF7FCFD42
:10295000D5F8A820D5F8AC10686C10187141C5F8EE
:10296000A800C5F8AC106E6400F0C1B900000020EA
:1029700000002020F8000020B8640240F840002049
:10298000A0600240F88000205860024072B6A87C27
:1029900000281CBFE87C00283FF41BAE687D00289F
:1029A0001FBF287D0028686DB0F5805FBFF411AEB1
:1029B000686DDFF84493C0F58050A042686D0AD27C
:1029C000C0F58052686D4844FDF74EFC6F65686D38
:1029D000C0F5805406E048442246FDF745FC686D8A
:1029E00020446865A87D002840F0818185F8168024
:1029F000686DDFF80883C24FB0F5805F35D9BE49F6
:102A0000BA1401F58050FDF72FFC686D09F580516F
:102A1000A0F58052B848FDF76CFC41463846FDF7FA
:102A20007DFD00213846FDF78FFD3846FDF758FE45
:102A30000028FAD14FF480513846FDF799FE012164
:102A40003846FDF781FDD5F8B800D5F8BC2010F563
:102A5000805142F10000C5F8B810C5F8BC00686D9F
:102A6000A0F58050686500F042B96A6DA24901F591
:102A70008050FDF7F9FB41463846FDF74FFD002138
:102A80003846FDF761FD3846FDF72AFE0028FAD1E9
:102A9000686D81B23846FDF76BFE01213846FDF7BF
:102AA00053FDD5F8B820D5F8BC10686D10187141E9
:102AB000C5F8B800C5F8BC106E6500F018B972B65C
:102AC000287E00281CBF687E00283FF482ADE87E87
:102AD00000281FBFA87E0028686EB0F5805FBFF495
:102AE00078AD686EDFF81C92C0F58050A042686E29
:102AF0000AD2C0F58052686E4844FDF7B5FB6F6698
:102B0000686EC0F5805406E048442246FDF7ACFBF1
:102B1000686E20446866287F002866D185F81C808E
:102B2000686E794FB0F5805F35D97649BA1401F5F2
:102B30008050FDF799FB686E09F58051A0F5805231
:102B40007048FDF7D6FB4FF020513846FDF7E6FC04
:102B500000213846FDF7F8FC3846FDF7C1FD002896
:102B6000FAD14FF480513846FDF702FE0121384674
:102B7000FDF7EAFCD5F8C800D5F8CC1010F5805068
:102B800041F10001C5F8C800C5F8CC10686EA0F589
:102B900080506866ABE06A6E5A4901F58050FDF7D7
:102BA00063FB4FF020513846FDF7B8FC0021384652
:102BB000FDF7CAFC3846FDF793FD0028FAD1686E90
:102BC00081B23846FDF7D4FD01213846FDF7BCFC43
:102BD000D5F8C810D5F8CC20686E081842EB06016D
:102BE000C5F8C800C5F8CC106E6680E0686FDFF8E5
:102BF0001CA1C0F58050A042686F0AD2C0F5805277
:102C0000686F5044FDF730FB6F67686FC0F5805404
:102C100006E050442246FDF727FB686F20446867B2
:102C200095F82200D0BB85F82280686F384FB0F548
:102C3000805F34D93549BA1401F58050FDF714FB93
:102C4000686F0AF58051A0F580523048FDF751FBBE
:102C500049463846FDF762FC00213846FDF774FC12
:102C60003846FDF73DFD0028FAD14FF48051384633
:102C7000FDF77EFD01213846FDF766FCD5F8D8004A
:102C8000D5F8DC2010F5805142F10000C5F8D810CD
:102C9000C5F8DC00686FA0F58050686727E06A6FB0
:102CA0001A4901F58050FDF7DFFA49463846FDF72D
:102CB00035FC00213846FDF747FC3846FDF710FD8E
:102CC0000028FAD1686F81B23846FDF751FD012125
:102CD0003846FDF739FCD5F8D820D5F8DC10686FF8
:102CE00010187141C5F8D800C5F8DC106E6762B6DF
:102CF0002046BDE8F0870000F8C00020200000203A
:102D000070600240F8000120B8600240F8400120E5
:102D1000A0640240FEE70000002082B0064C03469B
:102D2000024600904FF4E1312046FEF7C1FC034912
:102D30002046FFF7DFFBFEE700100140951000087A
:102D40004FF04070E1EE100A704700006C2D000853
:102D500000000020F8000000C4010008642E0008F4
:102D6000F800002060860100E0010008000000007B
:102D70000000000000000000000000000000000053
:102D80000000000000000000000000000000000043
:102D90000000000000000000000000000000000033
:102DA0000000000000000000000000000000000023
:102DB0000000000000000000000000000000000013
:102DC0000000000000000000000000000000000003
:102DD00000000000000000000000000000000000F3
:102DE00000000000000000000000000000000000E3
:102DF00000000000000000000000000000000000D3
:102E000000000000000000000000000000000000C2
:102E100000000000000000000000000000000000B2
:102E200000000000000000000000000000000000A2
:102E30000000000000000000000000000000000092
:102E40000000000000000000000000000000000082
:102E5000000000000000000001020304010203045E
:042E60000607080950
:040000050800018965
:00000001FF
