:020000040800F2
:10000000F8860120290200082F0800082B080008A4
:100010002D0800081B050008A128000800000000AA
:10002000000000000000000000000000C5090008FA
:100030007507000800000000A1080008C7090008B3
:10004000430200084302000843020008430200087C
:10005000430200084302000843020008430200086C
:10006000430200084302000843020008430200085C
:10007000430200084302000843020008430200084C
:10008000430200084302000843020008430200083C
:10009000430200084302000843020008430200082C
:1000A000430200084302000843020008430200081C
:1000B000430200084302000843020008430200080C
:1000C00043020008430200084302000843020008FC
:1000D000430200080D0E0008D50F00087511000836
:1000E00043020008430200084302000843020008DC
:1000F00043020008430200084302000843020008CC
:1001000043020008430200084302000843020008BB
:10011000CD0A0008710C00084302000843020008E1
:10012000430200084302000843020008430200089B
:10013000430200084302000843020008430200088B
:10014000430200084302000843020008430200087B
:10015000430200084302000843020008111300088C
:10016000430200084302000843020008430200085B
:10017000430200084302000843020008430200084B
:10018000430200084302000800F002F800F03CF8C7
:100190000AA090E8000C82448344AAF10107DA45E2
:1001A00001D100F031F8AFF2090EBAE80F0013F0F8
:1001B000010F18BFFB1A43F0010318471427000072
:1001C00034270000103A24BF78C878C1FAD8520703
:1001D00024BF30C830C144BF04680C6070470000C1
:1001E0000023002400250026103A28BF78C1FBD840
:1001F000520728BF30C148BF0B6070471FB502F0DF
:1002000061FB1FBD10B510BD00F04EF91146FFF7A0
:10021000F5FF02F047FB00F06CF903B4FFF7F2FFC3
:1002200003BC00F073F90000094880470948004703
:10023000FEE7FEE7FEE7FEE7FEE7FEE7FEE7FEE796
:10024000FEE7FEE704480549054A064B70470000F3
:10025000C909000889010008F8800120F8860120FA
:10026000F8820120F8820120032A40F2308010F049
:10027000030C00F0158011F8013BBCF1020F624441
:1002800098BF11F801CB00F8013B38BF11F8013BD2
:10029000A2F1040298BF00F801CB38BF00F8013B7F
:1002A00011F0030300F09180083AC0F0088051F883
:1002B000043B083A51F804CBA0E80810F5E7121DFA
:1002C0005CBF51F8043B40F8043BAFF30080D20719
:1002D00024BF11F8013B11F801CB48BF11F8012BE5
:1002E00024BF00F8013B00F801CB48BF00F8012B08
:1002F0007047431A28BF9A427FF6B6AF032A1044CC
:10030000114440F2268010F0030F1EBF11F8013D8A
:10031000521E00F8013D10F0030F7FF4F6AF11F00C
:10032000030300F09780083AC0F00B8051F8043DB9
:10033000083A51F804CD40F8043D40F804CDFFF7E9
:10034000F3BF121D5CBF51F8043D40F8043DAFF30C
:100350000080D20724BF11F8013D11F801CD48BF3C
:1003600011F8012C24BF00F8013D00F801CD48BF71
:1003700000F8012C70474FF0000200B51346944678
:100380009646203922BFA0E80C50A0E80C50B1F1ED
:100390002001BFF4F7AF090728BFA0E80C5048BF01
:1003A0000CC05DF804EB890028BF40F8042B08BF9F
:1003B000704748BF20F8022B11F0804F18BF00F89B
:1003C000012B704770477047704710B5203AC0F056
:1003D0000B80B1E81850203AA0E81850B1E8185046
:1003E000A0E81850BFF4F5AF5FEA027C24BFB1E883
:1003F0001850A0E8185044BF18C918C0BDE81040F4
:100400005FEA827C24BF51F8043B40F8043B08BFFC
:100410007047D20728BF31F8023B48BF11F8012BC3
:1004200028BF20F8023B48BF00F8012B7047431A51
:1004300028BF9A427FF6C9AF104410F0030F114451
:100440001EBF11F8013D521E00F8013D10F0030FD0
:100450007FF4F6AF103AC0F00A8010B531E91850B9
:10046000103A20E91850BFF4F9AFBDE81040530727
:1004700024BF31E9081020E9081044BF51F8043DB9
:1004800040F8043D12F0030F08BF7047D20728BFA1
:1004900031F8023D48BF11F8012C28BF20F8023D79
:1004A00048BF00F8012C7047754600F02BF8AE46A7
:1004B00005006946534620F00700854618B020B570
:1004C000FFF7C0FEBDE820404FF000064FF00007E8
:1004D0004FF000084FF0000B21F00701AC46ACE8EC
:1004E000C009ACE8C009ACE8C009ACE8C0098D4659
:1004F000704710B50446AFF300802046BDE81040B9
:10050000FFF78BBE004870479480012001491820F6
:10051000ABBEFEE7260002007047FEE7064A9042A7
:1005200034BF0648064811F0005F064A01EA02019E
:1005300014BFC160816070471064024000600240D7
:10054000006402407D0F7D0F0029016814BF41F057
:10055000010121F001010160704700002DE9F00365
:10056000016821F0010101600021016041608160AA
:10057000C160016121214161434A3D2443499042C8
:1005800002BF8C60BDE8F0037047414A4FF47465C8
:10059000904202BF8D60BDE8F00370473D4A4FF4C2
:1005A0007418904202BFC1F80880BDE8F00370479C
:1005B000394A4FF07466904202BF8E60BDE8F00386
:1005C0007047364B364A984202BFCA60BDE8F00316
:1005D0007047DFF8D0C0344B604502BFCB60BDE848
:1005E000F0037047314FDFF8C8C0B84202BFC1F80E
:1005F0000CC0BDE8F0037047DFF8B8904FF03D57EE
:10060000484502BFCF60BDE8F0037047DFF8A8900F
:100610002A49484502BF0C60BDE8F0037047284CEA
:10062000A04202BF0D60BDE8F0037047254CA04218
:1006300002BFC1F80080BDE8F0037047224CA04221
:1006400002BF0E60BDE8F0037047204C2049A04275
:1006500002BF0A60BDE8F00370471E4A904202BF25
:100660000B60BDE8F00370471B4A904202BFC1F81F
:1006700000C0BDE8F0037047184A904208BF0F6001
:10068000BDE8F003704700001060024000600240C7
:1006900028600240406002405860024070600240A2
:1006A0003D00002088600240400F0020A060024012
:1006B00000003D20B860024010640240086402401F
:1006C0002864024040640240586402407064024062
:1006D0000C64024088640240A0640240B864024096
:1006E00001460020096811F0010F18BF0120704772
:1006F000406880B27047000010B402681B4BD1F80C
:100700000CC01A400B6843EA0C03D1E905C44CEA5B
:10071000040C43EA0C03D1F81CC043EA0C03D1F8E3
:1007200020C043EA0C03D1F824C043EA0C03D1F8FB
:1007300028C043EA0C03D1F834C043EA0C03D1F8D3
:1007400038C043EA0C031A4302604269D1E90B3C0A
:1007500022F0070243EA0C031A4342610A6942602D
:100760004A6882608968C16010BC70473F801CF095
:1007700041607047704700002DE9F001002201251B
:100780005FF00306D1F800C005FA02F30CEA030C8F
:100790009C4533D107684FEA420C06FA0CF4A74394
:1007A00007600F79D0F8008007FA0CF747EA0807CE
:1007B00007600F79012F18BF022F14D18768A74354
:1007C00087604F79D0F8088007FA0CF747EA0807E6
:1007D0008760476827EA0303436043688F7997403F
:1007E000BFB23B434360C368A343C360CB7903FA02
:1007F0000CF3D0F80CC043EA0C03C360521C102A5F
:10080000C0D3BDE8F00170474B07DB0E9A40C90822
:1008100000EB8100016A4FF00F0C0CFA03F39943CF
:100820000162016A114301627047FEE7FEE770470B
:1008300010B4C27801780F244FF0010C0AB3174AA4
:10084000126801F1E02102F4E062C2F5E062C2F355
:100850000722C2F10403D44042789A4083782340AF
:100860001A43120181F80024007800F01F010CFAED
:1008700001F14009800000F1E020C0F8001110BC37
:10088000704701F01F000CFA00F04909890001F1DE
:10089000E021C1F8800110BC704700000CED00E0C1
:1008A00070470000044A0029116814BF084321EA78
:1008B000000010607047000030380240044A0029F0
:1008C000116814BF084321EA00001060704700005F
:1008D00040380240044A0029116814BF084321EA45
:1008E000000010607047000020380240044A0029D0
:1008F000116814BF084321EA00001060704700002F
:1009000044380240044A0029116814BF084321EA10
:10091000000010607047000024380240254A30B4BF
:100920001168254B11F00C0106D05C10042908BF9A
:10093000046002D008291ED0036011680F2303EA67
:1009400011111E4B595CD0F800C02CFA01F1416026
:10095000D2F800C0072404EA9C2C13F80CC021FA3A
:100960000CFCC0F808C0126804EA52329A5CD1400C
:10097000C16030BC70471249D1F800C0CCF380553B
:10098000D1F800C0002D0CF03F0C14BFB4FBFCF3F9
:10099000B3FBFCF3D1F800C00968CCF3881C03FB5F
:1009A0000CF3C1F30141491C4900B3FBF1F10160B3
:1009B000C3E70000083802400024F400840000204F
:1009C0000438024070477047374882B0016841F4EC
:1009D000700101603548016841F00101016034494E
:1009E00000230B60026822F4102222F08072026061
:1009F00000F1040C2F4ACCF80020026822F4802277
:100A000002600A1D136001930093026842F4803271
:100A10000260026802F400320092019A521C0192B4
:100A2000009A1AB9019AB2F5A04FF2D1026812F4F5
:100A3000003F08BF009331D0012200921E4A136884
:100A400043F0805313601D4A136843F4404313601E
:100A50000A680A600A6842F400420A600A6842F4BE
:100A6000A0520A60164ACCF80020026842F0807258
:100A70000260026812F0007FFBD0124A40F205705B
:100A80001060086820F003000860086840F0020069
:100A90000860086800F00C000828FAD10A494FF0F5
:100AA0000060086002B0704788ED00E00038024046
:100AB00008380240103000244038024000700040E6
:100AC00008544007003C024008ED00E02DE9F047E3
:100AD0005E4E40F22661304601F0BCF95C4D0028C4
:100AE0005CD040F22661304600F0E4FC6C6D0027DB
:100AF0007CB3DFF86091DFF86081B4F5805F2ED9B8
:100B00005649B21401F58050FFF7AEFB5449A4F5E5
:100B10008052A1F58050FFF7ECFB49464446404621
:100B2000FFF7FCFC00212046FFF70EFD2046FFF7F3
:100B3000D7FD0028FAD14FF480512046FFF718FE68
:100B400001212046FFF700FD686DA0F58050686523
:100B500024E0FFE7AF75304601F060FB1EE03F493F
:100B6000224601F58050FFF77FFB49464446404648
:100B7000FFF7D4FC00212046FFF7E6FC2046FFF7F4
:100B8000AFFD0028FAD1B5F8540081B22046FFF736
:100B9000EFFD01212046FFF7D7FC6F6540F22441AD
:100BA000304601F057F9002808BFBDE8F087374606
:100BB000304601F0FDFADFF8AC804046FFF798FDC3
:100BC000E96DC0F58054C1F58050274EA04234D263
:100BD000B4F5805F0DD2201A8119C4F580523046D9
:100BE000FFF787FBC4F580503044224606F580515C
:100BF00006E01E484FF480522044A0F580511A4868
:100C0000FFF732FB4FF48050E86500214446404630
:100C1000FFF79AFC2046FFF763FD0028FAD14FF456
:100C200080512046FFF7A4FD01212046FFF78CFCF0
:100C30003846BDE8F04701F0BFBA701822460B49AC
:100C4000FFF712FBE86D2044DEE70000004C004097
:100C500000000020200000207060024094C00020AE
:100C600094D000204060024094E0002094F00020E6
:100C70002DE9F0415D4E40F22661304601F0EAF880
:100C80005B4D00285AD040F22661304600F012FC3D
:100C90006C6E00276CB3DFF85C81B4F5805F2DD9F2
:100CA0005549B21401F58050FFF7DEFA5349A4F517
:100CB0008052A1F58050FFF71CFBF10344464046EB
:100CC000FFF72CFC00212046FFF73EFC2046FFF7F3
:100CD00007FD0028FAD14FF480512046FFF748FD68
:100CE00001212046FFF730FC686EA0F58050686651
:100CF00024E02F77304601F091FA1FE03E4922466A
:100D000001F58050FFF7B0FA4FF0205144464046BD
:100D1000FFF704FC00212046FFF716FC2046FFF7F2
:100D2000DFFC0028FAD1B5F8640081B22046FFF755
:100D30001FFD01212046FFF707FC6F6640F22441AA
:100D4000304601F087F8002808BFBDE8F08137463B
:100D5000304601F02DFADFF8A8804046FFF7C8FCC6
:100D6000E96EC0F58054C1F58050264EA04234D2C1
:100D7000B4F5805F0DD2201A8119C4F58052304637
:100D8000FFF7B7FAC4F580503044224606F580518B
:100D900006E01D484FF480522044A0F580511948C8
:100DA000FFF762FA4FF48050E8660021444640465F
:100DB000FFF7CAFB2046FFF793FC0028FAD14FF457
:100DC00080512046FFF7D4FC01212046FFF7BCFBF1
:100DD0003846BDE8F04101F0EFB9701822460A49E3
:100DE000FFF742FAE86E2044DEE7000000500040C2
:100DF00000000020B86002409400012094100120FF
:100E00001060024094200120943001202DE9F0412F
:100E10005D4E40F22661304601F01CF85B4D002823
:100E20005AD040F22661304600F044FB6C6A00273D
:100E300074B3DFF85C81B4F5805F2ED95549B214E4
:100E400001F58050FFF710FA5349A4F58052A1F53F
:100E50008050FFF74EFA4FF0205144464046FFF7CE
:100E60005DFB00212046FFF76FFB2046FFF738FCB3
:100E70000028FAD14FF480512046FFF779FC012178
:100E80002046FFF761FB686AA0F58050686223E0A6
:100E90002F71304601F0C2F91EE03E49224601F5AD
:100EA0008050FFF7E1F94FF0205144464046FFF7EC
:100EB00035FB00212046FFF747FB2046FFF710FCDB
:100EC0000028FAD1A88C81B22046FFF751FC0121FD
:100ED0002046FFF739FB6F6240F22441304600F0B4
:100EE000B9FF002808BFBDE8F0813746304601F061
:100EF0005FF9DFF8A8804046FFF7FAFBE96AC0F522
:100F00008054C1F58050264EA04234D2B4F5805FA3
:100F10000DD2201A8119C4F580523046FFF7E9F945
:100F2000C4F580503044224606F5805106E01D4845
:100F30004FF480522044A0F580511948FFF794F9EE
:100F40004FF48050E862002144464046FFF7FCFA27
:100F50002046FFF7C5FB0028FAD14FF48051204608
:100F6000FFF706FC01212046FFF7EEFA3846BDE800
:100F7000F04101F021B9701822460A49FFF774F9CF
:100F8000E86A2044DEE70000001001400000002075
:100F9000B864024094000020941000204064024095
:100FA000942000209430002010B59AB06421684647
:100FB000FFF7E1F9064C64226946204600F070FF15
:100FC00002466946204601F08DF91AB010BD0000B6
:100FD000001001402DE9F0475D4E40F22661304699
:100FE00000F038FF5B4D00285BD040F226613046B0
:100FF00000F060FA6C6B00277CB3DFF85C91DFF8DF
:101000005C81B4F5805F2ED95549B21401F580504A
:10101000FFF72AF95349A4F58052A1F58050FFF754
:1010200068F9494644464046FFF778FA00212046D1
:10103000FFF78AFA2046FFF753FB0028FAD14FF456
:1010400080512046FFF794FB01212046FFF77CFAF0
:10105000686BA0F58050686323E0FFE7AF7230460D
:1010600001F0DCF81DE03E49224601F58050FFF713
:10107000FBF8494644464046FFF750FA0021204617
:10108000FFF762FA2046FFF72BFB0028FAD1A88E63
:1010900081B22046FFF76CFB01212046FFF754FA8E
:1010A0006F6340F22441304600F0D4FE002808BFB0
:1010B000BDE8F0873746304601F07AF8DFF8A880BF
:1010C0004046FFF715FBE96BC0F58054C1F5805031
:1010D000264EA04234D2B4F5805F0DD2201A811979
:1010E000C4F580523046FFF704F9C4F5805030440F
:1010F000224606F5805106E01D484FF480522044F8
:10110000A0F580511948FFF7AFF84FF48050E8631D
:10111000002144464046FFF717FA2046FFF7E0FA61
:101120000028FAD14FF480512046FFF721FB01211E
:101130002046FFF709FA3846BDE8F04701F03CB811
:10114000701822460A49FFF78FF8E86B2044DEE763
:10115000004400400000002000002020A060024069
:101160009440002094500020886002409460002049
:10117000947000202DE9F0415D4E40F2266130462A
:1011800000F068FE5B4D00285BD040F226613046DF
:1011900000F090F96C6C002774B3DFF85C81B4F553
:1011A000805F2ED95549B21401F58050FFF75CF8E5
:1011B0005349A4F58052A1F58050FFF79AF84FF0FB
:1011C000C05144464046FFF7A9F900212046FFF7E9
:1011D000BBF92046FFF784FA0028FAD14FF480517A
:1011E0002046FFF7C5FA01212046FFF7ADF9686CEC
:1011F000A0F58050686424E02F74304601F00EF8AA
:101200001FE03E49224601F58050FFF72DF84FF0D0
:10121000C05144464046FFF781F900212046FFF7C0
:1012200093F92046FFF75CFA0028FAD1B5F844009C
:1012300081B22046FFF79CFA01212046FFF784F98E
:101240006F6440F22441304600F004FE002808BFDD
:10125000BDE8F0813746304600F0AAFFDFF8A480F1
:101260004046FFF745FAE96CC0F58054C1F580505F
:10127000254EA04234D2B4F5805F0DD2201A8119D8
:10128000C4F580523046FFF734F8C4F5805030443E
:10129000224606F5805106E01C484FF48052204457
:1012A000A0F580511848FEF7DFFF4FF48050E86446
:1012B000002144464046FFF747F92046FFF710FA61
:1012C0000028FAD14FF480512046FFF751FA01214E
:1012D0002046FFF739F93846BDE8F04100F06CBF11
:1012E000701822460949FEF7BFFFE86C2044DEE78C
:1012F0000048004000000020586002409480002018
:10130000949000202860024094A0002094B0002017
:101310002DE9F0475E4E40F22661304600F09AFD1E
:101320005C4D00285DD040F22661304600F0C2F8E6
:101330006C6F00277CB3DFF86091DFF86081B4F553
:10134000805F2FD95649B21401F58050FEF78CFF0B
:101350005449A4F58052A1F58050FEF7CAFF4946D2
:1013600044464046FFF7DAF800212046FFF7ECF844
:101370002046FFF7B5F90028FAD14FF480512046F6
:10138000FFF7F6F901212046FFF7DEF8686FA0F5B8
:101390008050686725E0FFE785F82270304600F04E
:1013A0003DFF1EE03E49224601F58050FEF75CFFFE
:1013B000494644464046FFF7B1F800212046FFF772
:1013C000C3F82046FFF78CF90028FAD1B5F874006D
:1013D00081B22046FFF7CCF901212046FFF7B4F88F
:1013E0006F6740F22441304600F034FD002808BF0A
:1013F000BDE8F0873746304600F0DAFEDFF8A88017
:101400004046FFF775F9E96FC0F58054C1F580508B
:10141000264EA04234D2B4F5805F0DD2201A811935
:10142000C4F580523046FEF764FFC4F58050304466
:10143000224606F5805106E01D484FF480522044B4
:10144000A0F580511948FEF70FFF4FF48050E86770
:10145000002144464046FFF777F82046FFF740F961
:101460000028FAD14FF480512046FFF781F901217D
:101470002046FFF769F83846BDE8F04700F09CBE0B
:10148000701822460A49FEF7EFFEE86F2044DEE7B7
:10149000001401400000002000002020A064024051
:1014A000944001209450012028640240946001205F
:1014B00094700120090A012202FA01F1C943018056
:1014C00070470029818914BF41F4005121F4005173
:1014D000818170472DE9F34F07464FF00008DFF890
:1014E000F8B30126FD4CA0F1804089B04FF002090D
:1014F0004FF0030A4546B0F5883016D0A7F180407A
:10150000B0F588404CD0B0F580607DD0DFF8D0B326
:10151000B0F5806079D0B0F5806000F0F280B0F571
:10152000444000F0258100F05BB925716562E562F9
:1015300020784FF00C0820B9267001211020FFF709
:10154000D5F96078002840F04B810121667008468B
:10155000FFF7A8F901210846FFF7A4F9072209219E
:101560005846FFF751F907220A215846FFF74CF970
:101570008DF804904FF400708DF805A000908DF860
:1015800006508DF8076069465846FFF7F5F84FF4A6
:101590008060009069465846FFF7EEF800F020B9E9
:1015A000A5726563E563A0794FF00C0820B90121AD
:1015B000A6714804FFF782F9E079002840F0108115
:1015C0000121E6710846FFF76DF901210846FFF792
:1015D00069F9072202215846FFF716F9072203216D
:1015E0005846FFF711F98DF8049004208DF805A0F6
:1015F00000908DF806508DF8076069465846FFF751
:10160000BBF80820694601E006E041E0009058463A
:10161000FFF7B2F800F0E4B825746564E564207B58
:101620004FF00C0820B9012126738804FFF746F912
:10163000607B002840F0D480667301210220FFF710
:1016400031F901210220FFF72DF9DFF898B20722C6
:101650000A215846FFF7D8F807220B215846FFF712
:10166000D3F88DF804904FF480608DF805A00090B9
:101670008DF806508DF8076069465846FFF77CF8EC
:101680004FF40060009069465846FFF775F8A7E0F0
:10169000A5756565E565A07C4FF00C0820B90121B2
:1016A000A674C804FFF70AF9E07C00287ED1E6742E
:1016B00001210420FFF7F6F801210420FFF7F2F8DA
:1016C00008220A215846FFF79FF808220B215846A6
:1016D000FFF79AF88DF804904FF480608DF805A01C
:1016E00000908DF806508DF8076069465846FFF760
:1016F00043F84FF40060009069465846FFF73CF805
:101700006EE025776566E566207E4FF00C0820B90F
:10171000012126760805FFF7D1F8607E00285FD109
:10172000667601210420FFF7BDF801210820FFF7AC
:10173000B9F808220C215846FFF766F80822022162
:101740006948FFF761F88DF804904FF480508DF8E8
:1017500005A000908DF806508DF807606946584640
:10176000FFF70AF80420009069465F4836E000BFA2
:1017700084F822506567E567A07F4FF00C0820B918
:10178000A67701212020FFF7B1F8E07F70B9E67756
:1017900001210420FFF786F801210420FFF782F8D9
:1017A000082206215846FFF72FF800E018E008222B
:1017B00007215846FFF728F88DF8049040208DF84F
:1017C00005A000908DF806508DF8076069465846D0
:1017D000FEF7D2FF8020009069465846FEF7CCFF06
:1017E000384600F0C5FA0A980490ADF81450ADF8E8
:1017F0001850ADF81650ADF81A80ADF81C5004A979
:10180000384600F079FCB8F1080F70D0B8F1040F39
:101810004FF001027AD08021384600F0CCF8012246
:101820004021384600F0C7F8012240F226613846D0
:1018300000F04AFC012240F22441384600F044FC0A
:10184000384600F0ABF9384600F0BEF801213846C2
:10185000FFF737FEA7F18040B0F5883025D010F5AE
:101860004C4061D0B0F5806072D0B0F580606DD032
:10187000B0F580606BD0B0F5444007BF94F820000D
:1018800000280BB0BDE8F08F84F8206047208DF869
:1018900008008DF809508DF80A508DF80B6002A8E9
:1018A000FEF7C6FF0BB0BDE8F08FA07800281CBF84
:1018B0000BB0BDE8F08FA67025208DF808008DF8DC
:1018C00009508DF80A508DF80B6002A8FEF7B0FFA2
:1018D0000BB0BDE8F08F0AE00000024000000020DD
:1018E0000008024000040240000C02400EE0012209
:1018F0008021384600F05FF8012240F22661384628
:1019000000F0E2FB384600F049F99FE740213846F5
:1019100000F051F8012240F22441384600F0D4FB97
:10192000384600F051F891E7207A0028D0D126728D
:1019300026208DF808008DF809508DF80A508DF892
:101940000B6002A8FEF774FFC2E701E011E021E09E
:10195000A07B0028BCD1A67327208DF808008DF845
:1019600009508DF80A508DF80B6002A8FEF760FF51
:10197000AEE7207D0028ABD1267534208DF8080015
:101980008DF809508DF80A508DF80B6002A8FEF70B
:101990004FFF9DE7A07E00289AD1A67635208DF8CE
:1019A00008008DF809508DF80A508DF80B6002A8D8
:1019B000FEF73EFF8CE7002A828A14BF114322EA19
:1019C00001018182704700002DE9F0475A4D5B4EBE
:1019D0005B4FDFF87081DFF87091DFF870A190B095
:1019E0000446A84218BFB44203D0BC4218BF4445C5
:1019F00036D101215FEA4150FEF754FF00204FF439
:101A000080610390CDE905018910CDE90801090243
:101A1000CDE90A1007900321CDE90C100E900120AA
:101A20004B49C30602034C4521D1487149484B4CF0
:101A3000CDE900304848029004922046FEF78EFD22
:101A40002046FEF74DFE0028FAD169462046FEF7F3
:101A500053FE01212046FEF777FD10B0BDE8F08768
:101A60004C4512BF544501218805C5D0C6E7AC429C
:101A700010D1C8723A483C4CCDE900303948029048
:101A800004922046FEF76AFD2046FEF729FE002854
:101A9000FAD1DAE7B44210D148743448354CCDE974
:101AA00000303348029004922046FEF757FD20464E
:101AB000FEF716FE0028FAD1C7E7BC4210D1C87560
:101AC0002D482F4CCDE900302C480290049220463E
:101AD000FEF744FD2046FEF703FE0028FAD1B4E7E6
:101AE000444510D148772748284CCDE90030264896
:101AF000029004922046FEF731FD2046FEF7F0FDED
:101B00000028FAD1A1E754451CBF10B0BDE8F0870A
:101B100081F823004FF0206000901D4801901D487F
:101B20001D4C029004922046FEF718FD2046FEF759
:101B3000D7FD0028FAD188E7004400400048004063
:101B4000004C0040005000400010014000140140D3
:101B50000000002004100140943000204064024046
:101B60000444004094700020886002400448004013
:101B700094B0002028600240044C004094F0002003
:101B80004060024004500040943001201060024048
:101B90000414014094700120286402402DE9F047AC
:101BA0005A4D5B4E5B4FDFF87081DFF87091DFF8C4
:101BB00070A190B00446A84218BFB44203D0BC4202
:101BC00018BF444536D101215FEA4150FEF76AFE55
:101BD0004020039000204FF48061CDE9050107907B
:101BE00089010890CDE909010321CDE90B010D9090
:101BF0000E9001204B49C30602034C4521D1C87009
:101C000049484B4CCDE900304848029004922046A8
:101C1000FEF7A4FC2046FEF763FD0028FAD16946D2
:101C20002046FEF769FD00212046FEF78DFC10B02E
:101C3000BDE8F0874C4512BF544501218805C5D049
:101C4000C6E7AC4210D148723A483C4CCDE900306E
:101C50003948029004922046FEF780FC2046FEF7A9
:101C60003FFD0028FAD1DAE7B44210D1C8733448F6
:101C7000354CCDE900303348029004922046FEF7FF
:101C80006DFC2046FEF72CFD0028FAD1C7E7BC42C8
:101C900010D148752D482F4CCDE900302C480290CA
:101CA00004922046FEF75AFC2046FEF719FD002854
:101CB000FAD1B4E7444510D1C8762748284CCDE97D
:101CC00000302648029004922046FEF747FC20464A
:101CD000FEF706FD0028FAD1A1E754451CBF10B05D
:101CE000BDE8F08781F821004FF0206000901D488A
:101CF00001901D481D4C029004922046FEF72EFCD8
:101D00002046FEF7EDFC0028FAD188E700440040A9
:101D100000480040004C00400050004000100140CE
:101D20000014014000000020041001409410002025
:101D3000B86402400444004094500020A060024077
:101D4000044800409490002058600240044C004039
:101D500094D0002070600240045000409410012094
:101D6000B86002400414014094500120A064024075
:101D700010B5A0F18041B1F5883120D011F54C416A
:101D800027D0B1F580612FD0B1F5806137D0B1F5A2
:101D900080613FD0B1F5444147D011F51C414ED090
:101DA000B1F5806118BF10BD0121C807FEF792FD93
:101DB000BDE8104000214FF00040FEF78BBD01212F
:101DC0001020FEF79FFD0021BDE810401020FEF717
:101DD00099BD01214804FEF77DFDBDE810400021BA
:101DE0004FF40030FEF776BD01218804FEF772FD46
:101DF000BDE8104000214FF48020FEF76BBD0121AB
:101E0000C804FEF767FDBDE8104000214FF4002034
:101E1000FEF760BD01210805FEF75CFDBDE810403E
:101E200000214FF48010FEF755BD01212020FEF760
:101E300069FD0021BDE810402020FEF763BD0121AF
:101E40008807FEF747FDBDE8104000214FF08040B5
:101E5000FEF740BD10B401F01F0201240023C1F3BE
:101E6000421C04FA02F2BCF1010F04BFB0F80CC02E
:101E70000CEA020208D0BCF1020F0CBFB0F810C08F
:101E8000B0F814C00CEA0202090A008804FA01F151
:101E90000840002A1CBF00280123184610BC7047C8
:101EA000002912BF002A0020704770B50B4600269B
:101EB0007E4DA0F180411446B1F5883111D011F565
:101EC0004C4134D0B1F5806156D0B1F580617AD003
:101ED000B1F580616FD0B1F5444100F0BF8000F0F2
:101EE000E3B828786978084069790840A9780840FB
:101EF00008BF70BDEA6A002A00F0D680A2420FD95E
:101F000022466B491846FEF7AFF9E86A021B68489B
:101F10000119FEF7EEF9E96A2046091AE96270BD77
:101F200063491846FEF7A0F9E86AEE6270BDA87929
:101F3000E9790840E97A0840297A084008BF70BD6D
:101F4000EA6B002A7ED0A2420FD922465949184690
:101F5000FEF78AF9E86B021B56480119FEF7C9F92A
:101F6000E96B2046091AE96370BD52491846FEF72D
:101F70007BF9E86BEE6370BD287B697B0840697C68
:101F80000840A97B084008BF70BDEA6C002A59D000
:101F9000A24211D9224648491846FEF765F9E86C75
:101FA000021B45480119FEF7A4F9E96C2046091AFD
:101FB000E96470BD07E02BE03F491846FEF754F98D
:101FC000E86CEE6470BDA87CE97C0840E97D0840BF
:101FD000297D084008BF70BDEA6D002A64D0A24286
:101FE0000FD9224635491846FEF73EF9E86D021B27
:101FF00032480119FEF77DF9E96D2046091AE965B5
:1020000070BD2E491846FEF72FF9E86DEE6570BDDC
:10201000287E697E0840697F0840A97E084008BF85
:1020200070BDEA6E72B1A24211D922462449184607
:10203000FEF71AF9E86E021B21480119FEF759F95B
:10204000204600E030E0E96E091AE96670BD1C49DF
:102050001846FEF709F9E86EEE6670BDA87FE97FC5
:10206000084095F82310084095F82010084008BF54
:1020700070BDEA6FC2B1A2420FD92246114918467B
:10208000FEF7F2F8E86F021B0E480119FEF731F96E
:10209000E96F2046091AE96770BD0A491846FEF73C
:1020A000E3F8E86FEE6770BD002070BD000000200F
:1020B000942000209460002094A0002094E0002050
:1020C0009420012094600120C1F3421301F01F010C
:1020D0004FF0010C0CFA01F1012B08BF0C3003D0BA
:1020E000022B0CBF10301430002A026814BF1143B9
:1020F00022EA01010160704730B50446008A85B0CC
:102100000D46C98820F4405008432082A089A98840
:102110002A8920F4037011436A8920F4A0501043E7
:102120000843A081A08AA98920F440700843A082B6
:102130006846FEF7F3FBA4F18040B0F588301BBF82
:10214000A4F18040B0F58A3003980298A18911F477
:10215000004F00EBC00101EB0010296814BF4900DB
:102160008900B0FBF1F0114A6FF0180CA2FB0031AE
:10217000490909010B0903FB0CF300EB8300A38958
:1021800013F4004F4FF0320314BF03EBC00003EB16
:102190000010A2FB00204FEA501014BF00F007000F
:1021A00000F00F000843208105B030BD1F85EB51C2
:1021B0008088C0F3080070471749A0F18042B2F54B
:1021C000883215D012F54C4216D0B2F5806217D085
:1021D000B2F5806218D0B2F5806219D0B2F54442EF
:1021E00018BF7047D1F88000002808BF704700472B
:1021F000086B0028FBD17047086C0028F7D17047A6
:10220000086D0028F3D17047086E0028EFD17047A1
:10221000086F0028EBD17047000000201749A0F19B
:102220008042B2F5883214D012F54C4215D0B2F586
:10223000806216D0B2F5806217D0B2F5806218D0F5
:10224000B2F5444218BF7047886F002808BF704736
:102250000047886A0028FBD17047886B0028F7D1B7
:102260007047886C0028F3D17047886D0028EFD143
:102270007047886E0028EBD17047000000000020F6
:10228000002908BF7047164AA0F18043B3F5883390
:1022900004BF11637047A0F18043B3F5884304BFC6
:1022A00011647047A0F18043B3F5904304BF1165FA
:1022B0007047A0F18043B3F5984304BF116670479F
:1022C000A0F18043B3F5A04304BF11677047A0F1AC
:1022D0008043B3F58A3308BFC2F88010704700000E
:1022E00000000020002912BF002A002070472DE9BD
:1022F000F047144600260127FE4DA0F18042B2F5BA
:10230000883216D0DFF8F08312F54C427ED0B2F559
:10231000806200F0EA80B2F5806200F05581B2F58B
:10232000806200F0BE81B2F5444200F0418200F0CC
:10233000ADBA28786A781040EA781040AA78104040
:1023400008BFBDE8F087686AC0F58052944200F289
:102350009D82DFF8A88322464044FDF785FF686A26
:1023600000EB0409C5F824902879002840F08B82FE
:102370002F71E34FB9F5805F29D94146BA1401F5B1
:102380008050FDF771FFA9F5805208F58051404655
:10239000FDF7AFFF4FF020513846FEF7BFF80021A0
:1023A0003846FEF7D1F83846FEF79AF90028FAD1F8
:1023B0004FF480513846FEF7DBF901213846FEF72D
:1023C000C3F8686AA0F58050686200F05CBACB4937
:1023D0004A4601F58050FDF747FF4FF0205138463F
:1023E000FEF79CF800213846FEF7AEF83846FEF7B7
:1023F00077F90028FAD1A88C81B23846FEF7B8F9EF
:1024000001213846FEF7A0F86E6200E001E000F01E
:102410003ABAA879EA7910406A7A10402A7A1040CC
:1024200008BFBDE8F087686BC0F58052944200F2A7
:102430002D82DFF8D0A222465044FDF715FF686BCD
:1024400000EB0409C5F83490A87A002840F01B82FC
:10245000AF72AD4FB9F5805F28D95146BA1401F576
:102460008050FDF701FFA9F580520AF580515046D2
:10247000FDF73FFF41463846FEF750F80021384649
:10248000FEF762F83846FEF72BF90028FAD14FF430
:1024900080513846FEF76CF901213846FEF754F8B2
:1024A000686BA0F58050686300F0EDB995494A4625
:1024B00001F58050FDF7D8FE41463846FEF72EF86C
:1024C00000213846FEF740F83846FEF709F90028A3
:1024D000FAD1A88E81B23846FEF74AF90121384672
:1024E000FEF732F86E6300F0CEB9287B6A7B1040AD
:1024F000EA7B1040AA7B104008BFBDE8F087686CFB
:10250000C0F58052944200F2C181DFF80082224679
:102510004044FDF7A9FE686C00EB0409C5F844903F
:10252000287C002840F0AF812F74794FB9F5805F87
:1025300029D94146BA1401F58050FDF795FEA9F559
:10254000805208F580514046FDF7D3FE4FF0C05150
:102550003846FDF7E3FF00213846FDF7F5FF384622
:10256000FEF7BEF80028FAD14FF480513846FEF746
:10257000FFF801213846FDF7E7FF686CA0F58050B1
:10258000686400F080B961494A4601F58050FDF762
:102590006BFE4FF0C0513846FDF7C0FF00213846B2
:1025A000FDF7D2FF3846FEF79BF80028FAD1B5F8C0
:1025B000440081B23846FEF7DBF801213846FDF7CA
:1025C000C3FF6E6400F05FB9A87CEA7C10406A7DAE
:1025D00010402A7D104008BFBDE8F087686DC0F547
:1025E0008052944200F25281DFF828812246404412
:1025F000FDF73AFE686D00EB0409C5F85490A87D1C
:10260000002840F04081AF75DFF80CA1434FB9F5C9
:10261000805F27D94146BA1401F58050FDF724FEAA
:10262000A9F5805208F580514046FDF762FE5146FB
:102630003846FDF773FF00213846FDF785FF384621
:10264000FEF74EF80028FAD14FF480513846FEF7D5
:102650008FF801213846FDF777FF686DA0F58050AF
:10266000686510E12B494A4601F58050FDF7FCFDF5
:1026700051463846FDF752FF00213846FDF764FF0A
:102680003846FEF72DF80028FAD1B5F8540081B28B
:102690003846FEF76DF801213846FDF755FF6E65A7
:1026A000F1E0287E6A7E1040EA7E1040AA7E10404B
:1026B00008BFBDE8F087686EC0F58052944276D8B6
:1026C000DFF85C8022464044FDF7CEFD686E00EBEB
:1026D0000409C5F86490287F002847D12F77114F4F
:1026E000B9F5805F43D94146BA1401F58050FDF732
:1026F000BBFD19E000000020000020209400002015
:10270000B864024094400020A06002409480002001
:102710005860024094C000202000002070600240F9
:1027200094000120B8600240A9F5805208F580515C
:102730004046FDF7DEFD4FF020513846FDF7EEFE36
:1027400000213846FDF700FF3846FDF7C9FF002895
:10275000FAD14FF480513846FEF70AF80121384685
:10276000FDF7F2FE686EA0F5805068668BE049497F
:102770004A4601F58050FDF777FD4FF0205138466D
:10278000FDF7CCFE00213846FDF7DEFE3846FDF7AA
:10279000A7FF0028FAD1B5F8640081B23846FDF7EA
:1027A000E7FF01213846FDF7CFFE6E666BE06DE076
:1027B000A87FEA7F104095F82120104095F820204E
:1027C000104008BFBDE8F087686FC0F580529442A2
:1027D0005CD8DFF8C4A022465044FDF745FD686F81
:1027E00000EB0409C5F8749095F8220060BB85F8E9
:1027F00022702A4FB9F5805F27D95146BA1401F5E6
:102800008050FDF731FDA9F580520AF58051504600
:10281000FDF76FFD41463846FDF780FE0021384642
:10282000FDF792FE3846FDF75BFF0028FAD14FF422
:1028300080513846FDF79CFF01213846FDF784FEA4
:10284000686FA0F5805068671DE013494A4601F59E
:102850008050FDF709FD41463846FDF75FFE002137
:102860003846FDF771FE3846FDF73AFF0028FAD1E9
:10287000B5F8740081B23846FDF77AFF0121384679
:10288000FDF762FE6E672046BDE8F0870020BDE8D8
:10289000F08700009400012094400120A0640240D1
:1028A000FEE70000054C4FF4E1312046FEF712FE32
:1028B00003492046FFF7E4FCFEE70000001001405A
:1028C000A90F00084FF04070E1EE100A70470000B9
:1028D000F02800080000002094000000C401000857
:1028E000842900089400002064860100E0010008AB
:1028F00000000000000000000000000000000000D8
:1029000000000000000000000000000000000000C7
:1029100000000000000000000000000000000000B7
:1029200000000000000000000000000000000000A7
:102930000000000000000000000000000000000097
:102940000000000000000000000000000000000087
:102950000000000000000000000000000000000077
:102960000000000000000000000000000000000067
:102970000000000000000000010203040102030443
:042980000607080935
:040000050800018965
:00000001FF
