:020000040800F2
:1000000058870120290200082F0800082B08000843
:100010002D0800081B050008DD2C0008000000006A
:10002000000000000000000000000000C5090008FA
:100030007507000800000000A1080008C7090008B3
:10004000430200084302000843020008430200087C
:10005000430200084302000843020008430200086C
:10006000430200084302000843020008430200085C
:10007000430200084302000843020008430200084C
:10008000430200084302000843020008430200083C
:10009000430200084302000843020008430200082C
:1000A000430200084302000843020008430200081C
:1000B000430200084302000843020008430200080C
:1000C00043020008430200084302000843020008FC
:1000D00043020008950E0008A110000889120008CC
:1000E00043020008430200084302000843020008DC
:1000F00043020008430200084302000843020008CC
:1001000043020008430200084302000843020008BB
:10011000CD0A0008B50C000843020008430200089D
:10012000430200084302000843020008430200089B
:10013000430200084302000843020008430200088B
:10014000430200084302000843020008430200087B
:100150004302000843020008430200086914000833
:10016000430200084302000843020008430200085B
:10017000430200084302000843020008430200084B
:10018000430200084302000800F002F800F03CF8C7
:100190000AA090E8000C82448344AAF10107DA45E2
:1001A00001D100F031F8AFF2090EBAE80F0013F0F8
:1001B000010F18BFFB1A43F001031847582B00002A
:1001C000782B0000103A24BF78C878C1FAD85207BB
:1001D00024BF30C830C144BF04680C6070470000C1
:1001E0000023002400250026103A28BF78C1FBD840
:1001F000520728BF30C148BF0B6070471FB502F0DF
:1002000083FD1FBD10B510BD00F04EF91146FFF77C
:10021000F5FF02F065FD00F06CF903B4FFF7F2FFA3
:1002200003BC00F073F90000094880470948004703
:10023000FEE7FEE7FEE7FEE7FEE7FEE7FEE7FEE796
:10024000FEE7FEE704480549054A064B70470000F3
:10025000C909000889010008588101205887012038
:100260005883012058830120032A40F2308010F087
:10027000030C00F0158011F8013BBCF1020F624441
:1002800098BF11F801CB00F8013B38BF11F8013BD2
:10029000A2F1040298BF00F801CB38BF00F8013B7F
:1002A00011F0030300F09180083AC0F0088051F883
:1002B000043B083A51F804CBA0E80810F5E7121DFA
:1002C0005CBF51F8043B40F8043BAFF30080D20719
:1002D00024BF11F8013B11F801CB48BF11F8012BE5
:1002E00024BF00F8013B00F801CB48BF00F8012B08
:1002F0007047431A28BF9A427FF6B6AF032A1044CC
:10030000114440F2268010F0030F1EBF11F8013D8A
:10031000521E00F8013D10F0030F7FF4F6AF11F00C
:10032000030300F09780083AC0F00B8051F8043DB9
:10033000083A51F804CD40F8043D40F804CDFFF7E9
:10034000F3BF121D5CBF51F8043D40F8043DAFF30C
:100350000080D20724BF11F8013D11F801CD48BF3C
:1003600011F8012C24BF00F8013D00F801CD48BF71
:1003700000F8012C70474FF0000200B51346944678
:100380009646203922BFA0E80C50A0E80C50B1F1ED
:100390002001BFF4F7AF090728BFA0E80C5048BF01
:1003A0000CC05DF804EB890028BF40F8042B08BF9F
:1003B000704748BF20F8022B11F0804F18BF00F89B
:1003C000012B704770477047704710B5203AC0F056
:1003D0000B80B1E81850203AA0E81850B1E8185046
:1003E000A0E81850BFF4F5AF5FEA027C24BFB1E883
:1003F0001850A0E8185044BF18C918C0BDE81040F4
:100400005FEA827C24BF51F8043B40F8043B08BFFC
:100410007047D20728BF31F8023B48BF11F8012BC3
:1004200028BF20F8023B48BF00F8012B7047431A51
:1004300028BF9A427FF6C9AF104410F0030F114451
:100440001EBF11F8013D521E00F8013D10F0030FD0
:100450007FF4F6AF103AC0F00A8010B531E91850B9
:10046000103A20E91850BFF4F9AFBDE81040530727
:1004700024BF31E9081020E9081044BF51F8043DB9
:1004800040F8043D12F0030F08BF7047D20728BFA1
:1004900031F8023D48BF11F8012C28BF20F8023D79
:1004A00048BF00F8012C7047754600F02BF8AE46A7
:1004B00005006946534620F00700854618B020B570
:1004C000FFF7C0FEBDE820404FF000064FF00007E8
:1004D0004FF000084FF0000B21F00701AC46ACE8EC
:1004E000C009ACE8C009ACE8C009ACE8C0098D4659
:1004F000704710B50446AFF300802046BDE81040B9
:10050000FFF78BBE00487047F88001200149182092
:10051000ABBEFEE7260002007047FEE7064A9042A7
:1005200034BF0648064811F0005F064A01EA02019E
:1005300014BFC160816070471064024000600240D7
:10054000006402407D0F7D0F0029016814BF41F057
:10055000010121F001010160704700002DE9F00365
:10056000016821F0010101600021016041608160AA
:10057000C160016121214161434A3D2443499042C8
:1005800002BF8C60BDE8F0037047414A4FF47465C8
:10059000904202BF8D60BDE8F00370473D4A4FF4C2
:1005A0007418904202BFC1F80880BDE8F00370479C
:1005B000394A4FF07466904202BF8E60BDE8F00386
:1005C0007047364B364A984202BFCA60BDE8F00316
:1005D0007047DFF8D0C0344B604502BFCB60BDE848
:1005E000F0037047314FDFF8C8C0B84202BFC1F80E
:1005F0000CC0BDE8F0037047DFF8B8904FF03D57EE
:10060000484502BFCF60BDE8F0037047DFF8A8900F
:100610002A49484502BF0C60BDE8F0037047284CEA
:10062000A04202BF0D60BDE8F0037047254CA04218
:1006300002BFC1F80080BDE8F0037047224CA04221
:1006400002BF0E60BDE8F0037047204C2049A04275
:1006500002BF0A60BDE8F00370471E4A904202BF25
:100660000B60BDE8F00370471B4A904202BFC1F81F
:1006700000C0BDE8F0037047184A904208BF0F6001
:10068000BDE8F003704700001060024000600240C7
:1006900028600240406002405860024070600240A2
:1006A0003D00002088600240400F0020A060024012
:1006B00000003D20B860024010640240086402401F
:1006C0002864024040640240586402407064024062
:1006D0000C64024088640240A0640240B864024096
:1006E00001460020096811F0010F18BF0120704772
:1006F000406880B27047000010B402681B4BD1F80C
:100700000CC01A400B6843EA0C03D1E905C44CEA5B
:10071000040C43EA0C03D1F81CC043EA0C03D1F8E3
:1007200020C043EA0C03D1F824C043EA0C03D1F8FB
:1007300028C043EA0C03D1F834C043EA0C03D1F8D3
:1007400038C043EA0C031A4302604269D1E90B3C0A
:1007500022F0070243EA0C031A4342610A6942602D
:100760004A6882608968C16010BC70473F801CF095
:1007700041607047704700002DE9F001002201251B
:100780005FF00306D1F800C005FA02F30CEA030C8F
:100790009C4533D107684FEA420C06FA0CF4A74394
:1007A00007600F79D0F8008007FA0CF747EA0807CE
:1007B00007600F79012F18BF022F14D18768A74354
:1007C00087604F79D0F8088007FA0CF747EA0807E6
:1007D0008760476827EA0303436043688F7997403F
:1007E000BFB23B434360C368A343C360CB7903FA02
:1007F0000CF3D0F80CC043EA0C03C360521C102A5F
:10080000C0D3BDE8F00170474B07DB0E9A40C90822
:1008100000EB8100016A4FF00F0C0CFA03F39943CF
:100820000162016A114301627047FEE7FEE770470B
:1008300010B4C27801780F244FF0010C0AB3174AA4
:10084000126801F1E02102F4E062C2F5E062C2F355
:100850000722C2F10403D44042789A4083782340AF
:100860001A43120181F80024007800F01F010CFAED
:1008700001F14009800000F1E020C0F8001110BC37
:10088000704701F01F000CFA00F04909890001F1DE
:10089000E021C1F8800110BC704700000CED00E0C1
:1008A00070470000044A0029116814BF084321EA78
:1008B000000010607047000030380240044A0029F0
:1008C000116814BF084321EA00001060704700005F
:1008D00040380240044A0029116814BF084321EA45
:1008E000000010607047000020380240044A0029D0
:1008F000116814BF084321EA00001060704700002F
:1009000044380240044A0029116814BF084321EA10
:10091000000010607047000024380240254A30B4BF
:100920001168254B11F00C0106D05C10042908BF9A
:10093000046002D008291ED0036011680F2303EA67
:1009400011111E4B595CD0F800C02CFA01F1416026
:10095000D2F800C0072404EA9C2C13F80CC021FA3A
:100960000CFCC0F808C0126804EA52329A5CD1400C
:10097000C16030BC70471249D1F800C0CCF380553B
:10098000D1F800C0002D0CF03F0C14BFB4FBFCF3F9
:10099000B3FBFCF3D1F800C00968CCF3881C03FB5F
:1009A0000CF3C1F30141491C4900B3FBF1F10160B3
:1009B000C3E70000083802400024F400E8000020EB
:1009C0000438024070477047374882B0016841F4EC
:1009D000700101603548016841F00101016034494E
:1009E00000230B60026822F4102222F08072026061
:1009F00000F1040C2F4ACCF80020026822F4802277
:100A000002600A1D136001930093026842F4803271
:100A10000260026802F400320092019A521C0192B4
:100A2000009A1AB9019AB2F5A04FF2D1026812F4F5
:100A3000003F08BF009331D0012200921E4A136884
:100A400043F0805313601D4A136843F4404313601E
:100A50000A680A600A6842F400420A600A6842F4BE
:100A6000A0520A60164ACCF80020026842F0807258
:100A70000260026812F0007FFBD0124A40F205705B
:100A80001060086820F003000860086840F0020069
:100A90000860086800F00C000828FAD10A494FF0F5
:100AA0000060086002B0704788ED00E00038024046
:100AB00008380240103000244038024000700040E6
:100AC00008544007003C024008ED00E02DE9F041E9
:100AD0006F4F40F22661384601F0B8FA00266D4D9E
:100AE000002871D040F22661384600F0B1FD686DF3
:100AF00000283BD0686DDFF8A081684CB0F5805FBE
:100B000039D96749A21401F58050FFF7ADFB686D34
:100B10006449A0F58052A1F58050FFF7EAFB4146F9
:100B20002046FFF7FBFC00212046FFF70DFD204685
:100B3000FFF7D6FD0028FAD14FF480512046FFF789
:100B400017FE01212046FFF7FFFCD5F8B800D5F8C5
:100B5000BC2010F5805142F10000C5F8B810C5F86E
:100B6000BC00686DA0F5805068652DE0AE75384614
:100B700001F074FC28E06A6D494901F58050FFF7E7
:100B800073FB41462046FFF7C9FC00212046FFF7D2
:100B9000DBFC2046FFF7A4FD0028FAD1686D81B286
:100BA0002046FFF7E5FD01212046FFF7CDFCD5F8F3
:100BB000B810D5F8BC20686D081842EB0601C5F8DE
:100BC000B800C5F8BC106E6540F22441384601F00B
:100BD0003DFA002808BFBDE8F081384601F008FC66
:100BE000DFF8C4804046FFF783FDD5F8C010C0F59C
:100BF0008054D5F8C40009197041C5F8C010C5F873
:100C0000C400E86D294EC0F58050A04236D2B4F53C
:100C1000805F10D2E86DC4F58052C0F58050201A74
:100C200081193046FFF765FBC4F5805030442246F9
:100C300006F5805106E01E484FF480522044A0F58E
:100C400080511A48FFF710FB4FF48050E8650021EF
:100C50004046FFF779FC4046FFF742FD0028FAD1F5
:100C60004FF480514046FFF783FD01214046FFF7D6
:100C70006BFC3846BDE8F04101F0BEBBE86D224692
:100C800030440B49FFF7F0FAE86D2044DEE700003E
:100C9000004C004000000020200000207060024056
:100CA000F8C00020F8D0002040600240F8E00020AA
:100CB000F8F000202DE9F0416E4C40F2266120460C
:100CC00001F0C4F900266C4D00286FD040F2266177
:100CD000204600F0BDFC686E002839D0686E674F72
:100CE000B0F5805F39D96649A21401F58050FFF74D
:100CF000BBFA686E6349A0F58052A1F58050FFF7FA
:100D0000F8FAE1033846FFF709FC00213846FFF7FF
:100D10001BFC3846FFF7E4FC0028FAD14FF4805161
:100D20003846FFF725FD01213846FFF70DFCD5F8C1
:100D3000C810D5F8CC0011F5805140F10000C5F87D
:100D4000C810C5F8CC00686EA0F5805068662DE02C
:100D50002E77204601F082FB28E06A6E484901F5B3
:100D60008050FFF781FA4FF020513846FFF7D6FB4D
:100D700000213846FFF7E8FB3846FFF7B1FC0028B2
:100D8000FAD1686E81B23846FFF7F2FC012138468D
:100D9000FFF7DAFBD5F8C820D5F8CC10686E10182C
:100DA0007141C5F8C800C5F8CC106E6640F2244108
:100DB000204601F04BF9002808BFBDE8F081A046AD
:100DC000204601F015FB304F3846FFF791FCD5F86F
:100DD000D010C0F58054D5F8D40009197041C5F879
:100DE000D010C5F8D400E86E284EC0F58050A0425F
:100DF00036D2B4F5805F10D2E86EC4F58052C0F5EB
:100E00008050201A81193046FFF773FAC4F58050DC
:100E10003044224606F5805106E01D484FF48052CA
:100E20002044A0F580511948FFF71EFA4FF4805076
:100E3000E86600213846FFF787FB3846FFF750FC8D
:100E40000028FAD14FF480513846FFF791FC012178
:100E50003846FFF779FB4046BDE8F04101F0CCBAD7
:100E6000E86E224630440A49FFF7FEF9E86E204456
:100E7000DEE700000050004000000020B8600240A3
:100E8000F8000120F810012010600240F820012035
:100E9000F83001202DE9F0416E4C40F226612046E9
:100EA00001F0D4F800266C4D002870D040F2266185
:100EB000204600F0CDFB686A00283AD0686A674F88
:100EC000B0F5805F3AD96649A21401F58050FFF76A
:100ED000CBF9686A6349A0F58052A1F58050FFF70D
:100EE00008FA4FF020513846FFF718FB002138462A
:100EF000FFF72AFB3846FFF7F3FB0028FAD14FF43F
:100F000080513846FFF734FC01213846FFF71CFBBF
:100F1000D5F88810D5F88C0011F5805140F100000B
:100F2000C5F88810C5F88C00686AA0F58050686222
:100F30002DE02E71204601F091FA28E06A6A4849B6
:100F400001F58050FFF790F94FF020513846FFF738
:100F5000E5FA00213846FFF7F7FA3846FFF7C0FBFD
:100F60000028FAD1686A81B23846FFF701FC0121F6
:100F70003846FFF7E9FAD5F88820D5F88C10686A6A
:100F800010187141C5F88800C5F88C106E6240F2E7
:100F90002441204601F05AF8002808BFBDE8F0813E
:100FA000A046204601F024FA2F4F3846FFF7A0FB59
:100FB000D5F89010C0F58054D5F894000919704107
:100FC000C5F89010C5F89400E86A284EC0F5805026
:100FD000A04236D2B4F5805F10D2E86AC4F58052E0
:100FE000C0F58050201A81193046FFF782F9C4F508
:100FF00080503044224606F5805106E01C484FF4EC
:1010000080522044A0F580511848FFF72DF94FF485
:101010008050E86200213846FFF796FA3846FFF71D
:101020005FFB0028FAD14FF480513846FFF7A0FB50
:1010300001213846FFF788FA4046BDE8F04101F04B
:10104000DBB9E86A224630440949FFF70DF9E86A3E
:101050002044DEE70010014000000020B864024098
:10106000F8000020F810002040640240F820002022
:10107000F830002010B59AB064216846FFF77BF97C
:10108000064C64226946204601F006F8024669468D
:10109000204601F047FA1AB010BD000000100140D0
:1010A0002DE9F0416F4F40F22661384600F0CEFF47
:1010B00000266D4D002871D040F22661384600F0C0
:1010C000C7FA686B00283BD0686BDFF8A081684CDA
:1010D000B0F5805F39D96749A21401F58050FFF758
:1010E000C3F8686B6449A0F58052A1F58050FFF702
:1010F00000F941462046FFF711FA00212046FFF78C
:1011000023FA2046FFF7ECFA0028FAD14FF4805179
:101110002046FFF72DFB01212046FFF715FAD5F8F1
:101120009800D5F89C2010F5805142F10000C5F8D8
:101130009810C5F89C00686BA0F5805068632DE09E
:10114000AE72384601F08AF928E06A6B494901F528
:101150008050FFF789F841462046FFF7DFF900216C
:101160002046FFF7F1F92046FFF7BAFA0028FAD136
:10117000686B81B22046FFF7FBFA01212046FFF79A
:10118000E3F9D5F89810D5F89C20686B081842EB65
:101190000601C5F89800C5F89C106E6340F2244122
:1011A000384600F053FF002808BFBDE8F0813846FC
:1011B00001F01EF9DFF8C4804046FFF799FAD5F830
:1011C000A010C0F58054D5F8A40009197041C5F8E5
:1011D000A010C5F8A400E86B294EC0F58050A042CD
:1011E00036D2B4F5805F10D2E86BC4F58052C0F5FA
:1011F0008050201A81193046FFF77BF8C4F58050E3
:101200003044224606F5805106E01E484FF48052D5
:101210002044A0F580511A48FFF726F84FF480507B
:10122000E86300214046FFF78FF94046FFF758FA80
:101230000028FAD14FF480514046FFF799FA012176
:101240004046FFF781F93846BDE8F04101F0D4B8D7
:10125000E86B224630440B49FFF706F8E86B204460
:10126000DEE70000004400400000002000002020D5
:10127000A0600240F8400020F85000208860024042
:10128000F8600020F87000202DE9F0416E4C40F22B
:101290002661204600F0DAFE00266C4D002870D052
:1012A00040F22661204600F0D3F9686C00283AD05D
:1012B000686C674FB0F5805F3AD96649A21401F5B2
:1012C0008050FEF7D1FF686C6349A0F58052A1F50C
:1012D0008050FFF70EF84FF0C0513846FFF71EF967
:1012E00000213846FFF730F93846FFF7F9F90028B2
:1012F000FAD14FF480513846FFF73AFA01213846C7
:10130000FFF722F9D5F8A810D5F8AC0011F58051F7
:1013100040F10000C5F8A810C5F8AC00686CA0F555
:10132000805068642DE02E74204601F097F828E084
:101330006A6C484901F58050FEF796FF4FF0C051A6
:101340003846FFF7EBF800213846FFF7FDF838463E
:10135000FFF7C6F90028FAD1686C81B23846FFF76A
:1013600007FA01213846FFF7EFF8D5F8A820D5F89D
:10137000AC10686C10187141C5F8A800C5F8AC1025
:101380006E6440F22441204600F060FE002808BF51
:10139000BDE8F081A046204601F02AF82F4F3846DC
:1013A000FFF7A6F9D5F8B010C0F58054D5F8B40011
:1013B00009197041C5F8B010C5F8B400E86C284EA2
:1013C000C0F58050A04236D2B4F5805F10D2E86CF0
:1013D000C4F58052C0F58050201A81193046FEF7BE
:1013E00088FFC4F580503044224606F5805106E05F
:1013F0001C484FF480522044A0F580511848FEF755
:1014000033FF4FF48050E86400213846FFF79CF822
:101410003846FFF765F90028FAD14FF48051384675
:10142000FFF7A6F901213846FFF78EF84046BDE8E0
:10143000F04100F0E1BFE86C224630440949FEF774
:1014400013FFE86C2044DEE7004800400000002065
:1014500058600240F8800020F89000202860024088
:10146000F8A00020F8B000202DE9F0416F4F40F2C5
:101470002661384600F0EAFD00266D4D002872D046
:1014800040F22661384600F0E3F8686F00283BD050
:10149000686FDFF8A081684CB0F5805F3AD9674982
:1014A000A21401F58050FEF7DFFE686F6449A0F5D5
:1014B0008052A1F58050FEF71CFF41462046FFF701
:1014C0002DF800212046FFF73FF82046FFF708F9E6
:1014D0000028FAD14FF480512046FFF749F9012145
:1014E0002046FFF731F8D5F8D800D5F8DC2010F504
:1014F000805142F10000C5F8D810C5F8DC00686FD3
:10150000A0F5805068672EE085F82260384600F02C
:10151000A5FF28E06A6F494901F58050FEF7A4FE57
:1015200041462046FEF7FAFF00212046FFF70CF85F
:101530002046FFF7D5F80028FAD1686F81B220461F
:10154000FFF716F901212046FEF7FEFFD5F8D81067
:10155000D5F8DC20686F081842EB0601C5F8D80002
:10156000C5F8DC106E6740F22441384600F06EFD8D
:10157000002808BFBDE8F081384600F039FFDFF8E9
:10158000C4804046FFF7B4F8D5F8E010C0F58054A9
:10159000D5F8E40009197041C5F8E010C5F8E40079
:1015A000E86F294EC0F58050A04236D2B4F5805F76
:1015B00010D2E86FC4F58052C0F58050201A81190E
:1015C0003046FEF796FEC4F580503044224606F5BC
:1015D000805106E01D484FF480522044A0F5805110
:1015E0001948FEF741FE4FF48050E867002140465D
:1015F000FEF7AAFF4046FFF773F80028FAD14FF430
:1016000080514046FFF7B4F801214046FEF79CFFA9
:101610003846BDE8F04100F0EFBEE86F22463044A6
:101620000A49FEF721FEE86F2044DEE7001401407E
:101630000000002000002020A0640240F8400120AB
:10164000F850012028640240F8600120F870012061
:10165000090A012202FA01F1C943018070470029F9
:10166000818914BF41F4005121F4005181817047F8
:101670002DE9FF4F89B04FF00008CDF80080CDF87C
:101680000480DFF810B407464546CDF81080CDF849
:101690001480CDF818804FF002094FF0030A01269C
:1016A000FD4CA0F18040CDF81C80B0F5883016D0FC
:1016B000A7F18040B0F588404CD0B0F580607DD077
:1016C000DFF8D8B3B0F5806079D0B0F5806000F075
:1016D000F280B0F5444000F0258100F05BB925713F
:1016E00065624FF00C08E562207820B92670012170
:1016F0001020FFF7FBF86078002840F04B816670FF
:1017000001210846FFF7CEF801210846FFF7CAF885
:10171000072209215846FFF777F807220A21584681
:10172000FFF772F88DF804904FF400708DF805A063
:1017300000908DF806508DF8076069465846FFF70F
:101740001BF84FF48060009069465846FFF714F884
:1017500000F020B9A57265634FF00C08E563A0792D
:1017600020B9A67101214804FFF7A8F8E079002804
:1017700040F01081E67101210846FFF793F801213E
:101780000846FFF78FF8072202215846FFF73CF87A
:10179000072203215846FFF737F88DF804900420FC
:1017A0008DF805A000908DF806508DF80760694609
:1017B0005846FEF7E1FF0820694601E006E041E0F7
:1017C00000905846FEF7D8FF00F0E4B82574656431
:1017D0004FF00C08E564207B20B9267301218804B2
:1017E000FFF76CF8607B002840F0D480667301211D
:1017F0000220FFF757F801210220FFF753F8DFF826
:10180000A0B207220A215846FEF7FEFF07220B214D
:101810005846FEF7F9FF8DF804904FF480608DF87C
:1018200005A000908DF806508DF80760694658466F
:10183000FEF7A2FF4FF40060009069465846FEF79D
:101840009BFFA7E0A57565654FF00C08E565A07CDA
:1018500020B9A6740121C804FFF730F8E07C002805
:101860007ED1E67401210420FFF71CF80121042039
:10187000FFF718F808220A215846FEF7C5FF08228C
:101880000B215846FEF7C0FF8DF804904FF480609E
:101890008DF805A000908DF806508DF80760694618
:1018A0005846FEF769FF4FF40060009069465846BD
:1018B000FEF762FF6EE0257765664FF00C08E5667F
:1018C000207E20B9267601210805FEF7F7FF607E0D
:1018D00000285FD1667601210420FEF7E3FF012195
:1018E0000820FEF7DFFF08220C215846FEF78CFF88
:1018F000082202216B48FEF787FF8DF804904FF411
:1019000080508DF805A000908DF806508DF8076086
:1019100069465846FEF730FF04200090694661484A
:1019200036E000BF84F8225065674FF00C08E56789
:10193000A07F20B9A67701212020FEF7D7FFE07F06
:1019400070B9E67701210420FEF7ACFF01210420E5
:10195000FEF7A8FF082206215846FEF755FF00E0D3
:1019600018E0082207215846FEF74EFF8DF8049034
:1019700040208DF805A000908DF806508DF8076086
:1019800069465846FEF7F8FE8020009069465846A2
:10199000FEF7F2FE384600F0E7FA0A9804900B983A
:1019A000ADF814000C98ADF816001698ADF81800B4
:1019B000ADF81A80ADF81C5004A9384600F0BCFC04
:1019C000B8F1080F71D0B8F1040F4FF001027BD0CD
:1019D0008021384600F0CDF801224021384600F041
:1019E000C8F8012240F22661384600F08DFC012241
:1019F00040F22441384600F087FC384600F0BCF93C
:101A0000384600F0BFF801213846FFF728FEA7F15D
:101A100080400295B0F5883025D010F54C4061D05B
:101A2000B0F5806072D0B0F580606DD0B0F58060A8
:101A30006BD0B0F5444007BF94F8200000280DB0EB
:101A4000BDE8F08F84F8206047208DF808008DF8FD
:101A500009508DF80A508DF80B6002A8FEF7E8FED9
:101A60000DB0BDE8F08FA07800281CBF0DB0BDE818
:101A7000F08FA67025208DF808008DF809508DF89C
:101A80000A508DF80B6002A8FEF7D2FE0DB0BDE83B
:101A9000F08F0AE000000240000000200008024031
:101AA00000040240000C02400EE001228021384672
:101AB00000F05FF8012240F22661384600F024FC75
:101AC000384600F059F99EE74021384600F051F8B9
:101AD000012240F22441384600F016FC384600F05E
:101AE00051F890E7207A0028D0D1267226208DF870
:101AF00008008DF809508DF80A508DF80B6002A887
:101B0000FEF796FEC2E701E011E021E0A07B00288D
:101B1000BCD1A67327208DF808008DF809508DF8E8
:101B20000A508DF80B6002A8FEF782FEAEE7207D1A
:101B30000028ABD1267534208DF808008DF80950A7
:101B40008DF80A508DF80B6002A8FEF771FE9DE734
:101B5000A07E00289AD1A67635208DF808008DF851
:101B600009508DF80A508DF80B6002A8FEF760FE50
:101B70008CE7002A828A14BF114322EA0101818284
:101B8000704700002DE9F04F8FB0002500950195BA
:101B90000295039504955F4E0446059506950795B5
:101BA000089509955C4FDFF87481DFF87491DFF8D0
:101BB00074A1DFF874B10A950B950C950D950E95EF
:101BC000B44218BFBC4203D0444518BF4C4534D181
:101BD00001214805FEF766FE4FF480600395CDE9CC
:101BE00005508010CDE908500002CDE90A0507959F
:101BF0000320CDE90C0501204C49C30602030E95D4
:101C0000544521D148714A484B4CCDE900304948F0
:101C1000029004922046FEF7A1FC2046FEF760FDEC
:101C20000028FAD169462046FEF766FD01212046CC
:101C3000FEF78AFC0FB0BDE8F08F544512BF5C453B
:101C400001218805C6D0C7E7B44210D1C8723B480D
:101C50003C4CCDE900303A48029004922046FEF711
:101C60007DFC2046FEF73CFD0028FAD1DAE7BC42B5
:101C700010D148743448364CCDE9003033480290D6
:101C800004922046FEF76AFC2046FEF729FD002854
:101C9000FAD1C7E7444510D1C8752E482F4CCDE97D
:101CA00000302D48029004922046FEF757FC204653
:101CB000FEF716FD0028FAD1B4E74C4510D148775D
:101CC0002748294CCDE9003026480290049220464E
:101CD000FEF744FC2046FEF703FD0028FAD1A1E7F9
:101CE0005C451CBF0FB0BDE8F08F81F823004FF0BA
:101CF000206000901D4801901D481E4C02900492E7
:101D00002046FEF72BFC2046FEF7EAFC0028FAD11D
:101D100088E700000044004000480040004C0040BC
:101D2000005000400010014000140140000000205D
:101D300004100140F8300020406402400444004098
:101D4000F87000208860024004480040F8B000208D
:101D500028600240044C0040F8F00020406002403F
:101D600004500040F830012010600240041401408B
:101D7000F8700120286402402DE9F04F8FB0002553
:101D8000009501950295039504955E4E04460595D0
:101D900006950795089509955B4FDFF87081DFF888
:101DA0007091DFF870A1DFF870B10A950B950C9572
:101DB0000D950E95B44218BFBC4203D0444518BFE0
:101DC0004C4533D101214805FEF76CFD40200390BE
:101DD0000001CDE90550079580010895CDE909502E
:101DE0000320CDE90B5001204C49C30602030D9599
:101DF0000E95544521D1C87049484B4CCDE900306F
:101E00004848029004922046FEF7A8FB2046FEF7C1
:101E100067FC0028FAD169462046FEF76DFC0021D8
:101E20002046FEF791FB0FB0BDE8F08F544512BF7E
:101E30005C4501218805C7D0C8E7B44210D148727B
:101E40003A483C4CCDE90030394802900492204693
:101E5000FEF784FB2046FEF743FC0028FAD1DAE7C0
:101E6000BC4210D1C8733448354CCDE900303348FA
:101E7000029004922046FEF771FB2046FEF730FCEC
:101E80000028FAD1C7E7444510D148752D482F4C9A
:101E9000CDE900302C48029004922046FEF75EFB0C
:101EA0002046FEF71DFC0028FAD1B4E74C4510D1BE
:101EB000C8762748284CCDE9003026480290049285
:101EC0002046FEF74BFB2046FEF70AFC0028FAD11D
:101ED000A1E75C451CBF0FB0BDE8F08F81F8210081
:101EE0004FF0206000901D4801901D481D4C02904D
:101EF00004922046FEF732FB2046FEF7F1FB002855
:101F0000FAD188E70044004000480040004C0040FF
:101F1000005000400010014000140140000000206B
:101F200004100140F8100020B8640240044400404E
:101F3000F8500020A060024004480040F8900020C3
:101F400058600240044C0040F8D00020706002400D
:101F500004500040F8100120B86002400414014011
:101F6000F8500120A064024010B5A0F18041B1F505
:101F7000883120D011F54C4127D0B1F580612FD0A8
:101F8000B1F5806137D0B1F580613FD0B1F5444102
:101F900047D011F51C414ED0B1F5806118BF10BD7E
:101FA0000121C807FEF796FCBDE8104000214FF064
:101FB0000040FEF78FBC01211020FEF7A3FC00219A
:101FC000BDE810401020FEF79DBC01214804FEF73B
:101FD00081FCBDE8104000214FF40030FEF77ABCD0
:101FE00001218804FEF776FCBDE8104000214FF483
:101FF0008020FEF76FBC0121C804FEF76BFCBDE832
:10200000104000214FF40020FEF764BC01210805B8
:10201000FEF760FCBDE8104000214FF48010FEF791
:1020200059BC01212020FEF76DFC0021BDE81040C5
:102030002020FEF767BC01218807FEF74BFCBDE8B6
:10204000104000214FF08040FEF744BC10B401F076
:102050001F0201240023C1F3421C04FA02F2BCF166
:10206000010F04BFB0F80CC00CEA020208D0BCF1AA
:10207000020F0CBFB0F810C0B0F814C00CEA020296
:10208000090A008804FA01F10840002A1CBF002850
:102090000123184610BC7047002912BF002A0020F7
:1020A000704770B50B460026904DA0F18041144654
:1020B000B1F5883112D011F54C413BD0B1F58061BA
:1020C00064D0B1F580617DD0B1F5806100F0B4805D
:1020D000B1F5444100F0DB8000F005B92878002814
:1020E0001CBF6878002800F0FE80687900281CBFBB
:1020F000A878002800F0F780E86A002808BF70BDC3
:10210000E86AA0420ED97A491846FEF7ADF8E86AA7
:10211000021B77480119FEF7ECF8E96A2046091A14
:10212000E96270BDEA6A72491846FEF79DF8E86AEE
:10213000EE6270BDA87900281CBFE879002800F085
:10214000D280E87A00281CBF287A002800F0CB80D3
:10215000E86B002808BF70BDE86BA0420ED9654946
:102160001846FEF781F8E86B021B62480119FEF77A
:10217000C0F8E96B2046091AE96370BDEA6B5D4956
:102180001846FEF771F8E86BEE6370BD287B0028F7
:102190001CBF687B002871D0687C00281CBFA87B0E
:1021A00000286BD0E86C002808BF70BDE86CA04226
:1021B00010D951491846FEF757F8E86C021B4E48F3
:1021C000011900E00EE0FEF794F8E96C2046091AC8
:1021D000E96470BDEA6C48491846FEF745F8E86CBA
:1021E000EE6470BDA87C00281CBFE87C00287AD073
:1021F000E87D00281CBF287D002874D0E86D0028E9
:1022000008BF70BDE86DA0420ED93C491846FEF7E4
:102210002BF8E86D021B39480119FEF76AF8E96DE1
:102220002046091AE96570BDEA6D34491846FEF783
:102230001BF8E86DEE6570BD287E00281CBF687E27
:10224000002850D0687F00281CBFA87E00284AD0F4
:10225000E86E002808BF70BDE86EA0420FD928497B
:102260001846FEF701F8E86E021B25480119FEF733
:1022700040F8E96E2046091AE96670BD33E0EA6E5F
:102280001F491846FDF7F0FFE86EEE6670BDA87FA7
:1022900000281CBFE87F002825D095F823000028DF
:1022A0001CBF95F8200000281DD0E86F002808BF4B
:1022B00070BDE86FA0420ED912491846FDF7D4FF51
:1022C000E86F021B0F480119FEF713F8E96F20466B
:1022D000091AE96770BDEA6F0A491846FDF7C4FF9D
:1022E000E86FEE6770BD002070BD000000000020A8
:1022F000F8200020F8600020F8A00020F8E000207E
:10230000F8200120F8600120C1F3421301F01F0101
:102310004FF0010C0CFA01F1012B08BF0C3003D077
:10232000022B0CBF10301430002A026814BF114376
:1023300022EA01010160704730B50446008A85B089
:102340000D46C98820F4405008432082A089A988FE
:102350002A8920F4037011436A8920F4A0501043A5
:102360000843A081A08AA98920F440700843A08274
:102370006846FEF7D3FAA4F18040B0F588301BBF61
:10238000A4F18040B0F58A3003980298A18911F435
:10239000004F00EBC00101EB0010296814BF490099
:1023A0008900B0FBF1F0114A6FF0180CA2FB00316C
:1023B000490909010B0903FB0CF300EB8300A38916
:1023C00013F4004F4FF0320314BF03EBC00003EBD4
:1023D0000010A2FB00204FEA501014BF00F00700CD
:1023E00000F00F000843208105B030BD1F85EB5180
:1023F0008088C0F3080070471749A0F18042B2F509
:10240000883215D012F54C4216D0B2F5806217D042
:10241000B2F5806218D0B2F5806219D0B2F54442AC
:1024200018BF7047D1F88000002808BF70470047E8
:10243000086B0028FBD17047086C0028F7D1704763
:10244000086D0028F3D17047086E0028EFD170475F
:10245000086F0028EBD17047000000201749A0F159
:102460008042B2F5883214D012F54C4215D0B2F544
:10247000806216D0B2F5806217D0B2F5806218D0B3
:10248000B2F5444218BF7047886F002808BF7047F4
:102490000047886A0028FBD17047886B0028F7D175
:1024A0007047886C0028F3D17047886D0028EFD101
:1024B0007047886E0028EBD17047000000000020B4
:1024C000002908BF7047164AA0F18043B3F588334E
:1024D00004BF11637047A0F18043B3F5884304BF84
:1024E00011647047A0F18043B3F5904304BF1165B8
:1024F0007047A0F18043B3F5984304BF116670475D
:10250000A0F18043B3F5A04304BF11677047A0F169
:102510008043B3F58A3308BFC2F8801070470000CB
:1025200000000020002912BF002A002070472DE97A
:10253000F047144600264FF480574FF00108FE4D37
:10254000A0F18042B2F5883216D0DFF8F09312F590
:102550004C427DD0B2F5806200F03E81B2F58062DF
:1025600000F0D281B2F5806200F07982B2F5444287
:1025700000F00B8300F0A0BB287800281CBF68780F
:10258000002800F09983E87800281FBFA878002869
:10259000686AB0F5805F80F08F83686ADFF8A09387
:1025A000C0F58050A042686A0AD2C0F58052686ABD
:1025B0004844FDF759FE6F62686AC0F5805406E032
:1025C00048442246FDF750FE686A20446862287934
:1025D000002840F06E8385F80480686AD94FB0F512
:1025E000805F38D9D649BA1401F58050FDF73CFE1A
:1025F000686A09F58051A0F58052D148FDF779FE4F
:102600004FF020513846FDF789FF00213846FDF78D
:102610009BFF3846FEF764F80028FAD14FF480514A
:102620003846FEF7A5F801213846FDF78DFFD5F8AD
:102630008810D5F88C0011F5805140F10000C5F8E4
:102640008810C5F88C00686AA0F58050686200E0C8
:102650002CE000F02EBB6A6AB94901F58050FDF705
:1026600003FE4FF020513846FDF758FF0021384651
:10267000FDF76AFF3846FEF733F80028FAD1686A9A
:1026800081B23846FEF774F801213846FDF75CFF49
:10269000D5F88820D5F88C10686A10187141C5F8F3
:1026A0008800C5F88C106E6200F003BBA879002882
:1026B0001CBFE879002800F0FF82687A00281FBF5D
:1026C000287A0028686BB0F5805F80F0F582686B2F
:1026D000DFF874A2C0F58050A042686B0AD2C0F542
:1026E0008052686B5044FDF7BFFD6F63686BC0F5A7
:1026F000805406E050442246FDF7B6FD686B204446
:102700006863A87A002840F0D48285F80A80686B54
:102710008E4FB0F5805F35D98B49BA1401F58050E2
:10272000FDF7A2FD686B0AF58051A0F5805286483E
:10273000FDF7DFFD49463846FDF7F0FE002138463B
:10274000FDF702FF3846FDF7CBFF0028FAD14FF422
:1027500080513846FEF70CF801213846FDF7F4FEAB
:10276000D5F89800D5F89C2010F5805142F1000072
:10277000C5F89810C5F89C00686BA0F58050686398
:1027800000F097BA6A6B704901F58050FDF76CFD57
:1027900049463846FDF7C2FE00213846FDF7D4FE13
:1027A0003846FDF79DFF0028FAD1686B81B23846A4
:1027B000FDF7DEFF01213846FDF7C6FED5F898206B
:1027C000D5F89C10686B10187141C5F89800C5F8D1
:1027D0009C106E6300F06DBA287B00281CBF687BDC
:1027E000002800F06982E87B00281FBFA87B002832
:1027F000686CB0F5805F80F05F82686CDFF85091A4
:10280000C0F58050A042686C0AD2C0F58052686C56
:102810004844FDF729FD6F64686CC0F5805406E0FC
:1028200048442246FDF720FD686C20446864287CFB
:10283000002840F03E8285F81080686C454FB0F566
:10284000805F36D94249BA1401F58050FDF70CFD7E
:10285000686C09F58051A0F580523D48FDF749FDAF
:102860004FF0C0513846FDF759FE00213846FDF7BC
:102870006BFE3846FDF734FF0028FAD14FF4805143
:102880003846FDF775FF01213846FDF75DFED5F8A6
:10289000A810D5F8AC0011F5805140F10000C5F842
:1028A000A810C5F8AC00686CA0F58050686400F012
:1028B00000BA6A6C264901F58050FDF7D5FC4FF04F
:1028C000C0513846FDF72AFE00213846FDF73CFE90
:1028D0003846FDF705FF0028FAD1686C81B238460A
:1028E000FDF746FF01213846FDF72EFED5F8A8205A
:1028F000D5F8AC10686C10187141C5F8A800C5F87F
:10290000AC106E6400F0D5B9A87C00281CBFE87C30
:10291000002800F0D181687D00281FBF287D002895
:10292000686DB0F5805F80F0C781686DDFF8289032
:10293000C0F58050A04211E00000002000002020DF
:10294000F8000020B8640240F8400020A060024077
:10295000F880002058600240F8C00020686D0AD25C
:10296000C0F58052686D4844FDF77EFC6F65686D68
:10297000C0F5805406E048442246FDF775FC686DBA
:1029800020446865A87D002840F0938185F8168072
:10299000686DDFF82C83CB4FB0F5805F35D9CA491D
:1029A000BA1401F58050FDF75FFC686D09F58051A0
:1029B000A0F58052C448FDF79CFC41463846FDF71F
:1029C000ADFD00213846FDF7BFFD3846FDF788FE16
:1029D0000028FAD14FF480513846FDF7C9FE012195
:1029E0003846FDF7B1FDD5F8B800D5F8BC2010F594
:1029F000805142F10000C5F8B810C5F8BC00686D00
:102A0000A0F58050686500F054B96A6DAE4901F5D3
:102A10008050FDF729FC41463846FDF77FFD002137
:102A20003846FDF791FD3846FDF75AFE0028FAD1E9
:102A3000686D81B23846FDF79BFE01213846FDF7EF
:102A400083FDD5F8B820D5F8BC10686D1018714119
:102A5000C5F8B800C5F8BC106E6500F02AB9287E2C
:102A600000281CBF687E002800F02681E87E002830
:102A70001FBFA87E0028686EB0F5805F80F01C81C3
:102A8000686EDFF84892C0F58050A042686E0AD2A6
:102A9000C0F58052686E4844FDF7E6FB6F66686ECD
:102AA000C0F5805406E048442246FDF7DDFB686E21
:102AB00020446866287F002866D185F81C80686EEF
:102AC000834FB0F5805F35D98049BA1401F5805045
:102AD000FDF7CAFB686E09F58051A0F580527B486E
:102AE000FDF707FC4FF020513846FDF717FD002198
:102AF0003846FDF729FD3846FDF7F2FD0028FAD1EA
:102B00004FF480513846FDF733FE01213846FDF77A
:102B10001BFDD5F8C800D5F8CC1010F5805041F158
:102B20000001C5F8C800C5F8CC10686EA0F580504B
:102B30006866BEE06A6E654901F58050FDF794FB5A
:102B40004FF020513846FDF7E9FC00213846FDF7EB
:102B5000FBFC3846FDF7C4FD0028FAD1686E81B24F
:102B60003846FDF705FE01213846FDF7EDFCD5F8A6
:102B7000C810D5F8CC20686E081842EB0601C5F8DD
:102B8000C800C5F8CC106E6693E0A87F00281CBF73
:102B9000E87F00287ED095F8210000281FBF95F817
:102BA00020000028686FB0F5805F73D2686FDFF88F
:102BB00024A1C0F58050A042686F0AD2C0F58052AF
:102BC000686F5044FDF750FB6F67686FC0F5805425
:102BD00006E050442246FDF747FB686F20446867D3
:102BE00095F82200D0BB85F82280686F3A4FB0F587
:102BF000805F34D93749BA1401F58050FDF734FBB2
:102C0000686F0AF58051A0F580523248FDF771FBDC
:102C100049463846FDF782FC00213846FDF794FC12
:102C20003846FDF75DFD0028FAD14FF48051384653
:102C3000FDF79EFD01213846FDF786FCD5F8D8004A
:102C4000D5F8DC2010F5805142F10000C5F8D8100D
:102C5000C5F8DC00686FA0F58050686729E06A6FEE
:102C60001C4901F58050FDF7FFFA49463846FDF74B
:102C700055FC00213846FDF767FC3846FDF730FD6E
:102C80000028FAD1686F81B23846FDF771FD012145
:102C9000384600E010E0FDF757FCD5F8D820D5F80D
:102CA000DC10686F10187141C5F8D800C5F8DC1049
:102CB0006E672046BDE8F0870020BDE8F087000081
:102CC0002000002070600240F8C00020F8000120C1
:102CD000B8600240F8400120A0640240FEE7000016
:102CE000002082B0064C0346024600904FF4E131CA
:102CF0002046FEF7BDFC03492046FFF7E1FBFEE757
:102D000000100140751000084FF04070E1EE100A0D
:102D100070470000342D000800000020F80000007B
:102D2000C40100082C2E0008F80000206086010075
:102D3000E0010008000000000000000000000000AA
:102D40000000000000000000000000000000000083
:102D50000000000000000000000000000000000073
:102D60000000000000000000000000000000000063
:102D70000000000000000000000000000000000053
:102D80000000000000000000000000000000000043
:102D90000000000000000000000000000000000033
:102DA0000000000000000000000000000000000023
:102DB0000000000000000000000000000000000013
:102DC0000000000000000000000000000000000003
:102DD00000000000000000000000000000000000F3
:102DE00000000000000000000000000000000000E3
:102DF00000000000000000000000000000000000D3
:102E000000000000000000000000000000000000C2
:102E100000000000000000000000000000000000B2
:0C2E200001020304010203040607080974
:040000050800018965
:00000001FF
