:020000040800F2
:10000000C806002031020008E3090008DF090008E3
:10001000E109000899060008052300080000000017
:100020000000000000000000000000008D0B000830
:100030002909000800000000690A00088F0B000869
:100040004B0200084B0200084B0200084B0200085C
:100050004B0200084B0200084B0200084B0200084C
:100060004B0200084B0200084B0200084B0200083C
:100070004B0200084B0200084B0200084B0200082C
:100080004B0200084B0200084B0200084B0200081C
:100090004B0200084B0200084B0200084B0200080C
:1000A0004B0200084B0200084B0200084B020008FC
:1000B0004B0200084B0200084B0200084B020008EC
:1000C0004B0200084B0200084B0200084B020008DC
:1000D0004B020008950C00084B0200084B02000878
:1000E0004B0200084B0200084B0200084B020008BC
:1000F0004B0200084B0200084B0200084B020008AC
:100100004B0200084B0200084B0200084B0200089B
:100110004B0200084B0200084B0200084B0200088B
:100120004B0200084B0200084B0200084B0200087B
:100130004B0200084B0200084B0200084B0200086B
:100140004B0200084B0200084B0200084B0200085B
:100150004B0200084B0200084B0200084B0200084B
:100160004B0200084B0200084B0200084B0200083B
:100170004B0200084B0200084B0200084B0200082B
:100180004B0200084B02000800F002F800F040F8B3
:100190000AA090E8000C82448344AAF10107DA45E2
:1001A00001D100F035F8AFF2090EBAE80F0013F0F4
:1001B000010F18BFFB1A43F00103184798210000F4
:1001C000B8210000103A24BF78C878C1FAD8520785
:1001D00024BF30C830C144BF04680C6070470000C1
:1001E0000023002400250026103A28BF78C1FBD840
:1001F000520728BF30C148BF0B6070471FB502F0DF
:10020000A3F89DE8030000F00FF91FBD10B510BD65
:1002100000F0C0F91146FFF7F1FF02F075F800F0A9
:10022000DEF903B4FFF7F2FF03BC00F00FFA0000A1
:100230000948804709480047FEE7FEE7FEE7FEE77A
:10024000FEE7FEE7FEE7FEE7FEE7FEE704480549B6
:10025000054A064B70470000910B00088901000811
:10026000C8000020C8060020C8020020C8020020E4
:1002700070B5064600F0BCF8056806F10B0020F0EA
:100280000704B4429CBF002070BD2B466A68BAB117
:100290001068A04210D304F1080188423CBF5068A6
:1002A000586007D35168101941601168091B01603B
:1002B00058601460101D70BD13465268002AE7D1C3
:1002C0002146284600F09CF80028DED170BD70B5AC
:1002D0000446051F00F08CF80068002C14BF446829
:1002E00070BD002C18BFAC423CBF20466468F8D3F8
:1002F00001680A18AA4218BF456003D12A6805465A
:100300001144016028684119A1421CBF6C6070BD96
:100310006168696021680844286070BD032A40F262
:10032000308010F0030C00F0158011F8013BBCF197
:10033000020F624498BF11F801CB00F8013B38BFAF
:1003400011F8013BA2F1040298BF00F801CB38BFBD
:1003500000F8013B11F0030300F09C80083AC0F064
:10036000088051F8043B083A51F804CBA0E8081083
:10037000F5E7121D5CBF51F8043B40F8043BAFF3B6
:100380000080D20724BF11F8013B11F801CB48BF10
:1003900011F8012B24BF00F8013B00F801CB48BF46
:1003A00000F8012B70474FF000020429C0F01280C2
:1003B00010F0030C00F0A280CCF1040CBCF1020F91
:1003C00018BF00F8012BA8BF20F8022BA1EB0C01ED
:1003D00000F094B85FEAC17C24BF00F8012B00F85C
:1003E000012B48BF00F8012B7047704770477047DA
:1003F000004870476C000020704770477047704796
:1004000038B504460A4600206946AFF3008000284C
:1004100008BF38BD02460099204600F099F8012037
:1004200038BD012000F0AEB8F8B5AFF30080054646
:1004300000200C46102000BF0646A819A0420DD986
:10044000324669460020AFF30080070008BF00F085
:1004500099F80098A04218BF0546C419FFF7C8FFD5
:1004600005600746F01D20F007004619284600F0F9
:100470000AF8B44208BFF8BDA21B31463868BDE88F
:10048000F84000F065B800210160C0E90110704734
:100490001020704710B5203AC0F00B80B1E818501A
:1004A000203AA0E81850B1E81850A0E81850BFF45E
:1004B000F5AF5FEA027C24BFB1E81850A0E81850FD
:1004C00044BF18C918C0BDE810405FEA827C24BF51
:1004D00051F8043B40F8043B08BF7047D20728BFDF
:1004E00031F8023B48BF11F8012B28BF20F8023B2E
:1004F00048BF00F8012B70474FF0000200B51346CB
:1005000094469646203922BFA0E80C50A0E80C5033
:10051000B1F12001BFF4F7AF090728BFA0E80C50E4
:1005200048BF0CC05DF804EB890028BF40F8042BDD
:1005300008BF704748BF20F8022B11F0804F18BF4A
:1005400000F8012B7047000000487047640000204D
:10055000034640688C46002818BF88423CBF0346CB
:100560004068F8D318681844884207D00CF103009B
:1005700020F00700001D411A521A0146081D0A60AA
:10058000FFF7A5BE10B500F039F8BDE8104000F047
:100590002FB870477546FFF7D7FFAE46050069468E
:1005A000534620F00700854618B020B5FFF74EFEF1
:1005B000BDE820404FF000064FF000074FF0000864
:1005C0004FF0000B21F00701AC46ACE8C009ACE8E5
:1005D000C009ACE8C009ACE8C0098D46704710B549
:1005E0000446AFF300802046BDE81040FFF719BE77
:1005F000002801D000F02AB87047000010B501288B
:1006000005D0002103A000F027F8012010BD09A1AA
:10061000F8E7000053494752544D454D3A204F7575
:1006200074206F662068656170206D656D6F7279EA
:10063000000000003A2048656170206D656D6F72A2
:100640007920636F727275707465640001491820B7
:10065000ABBEFEE72600020070B505460C460A2038
:1006600000E06D1C00F011F835B128780028F8D1B1
:1006700002E0641C00F009F814B120780028F8D1D9
:10068000BDE870400A20AFF3008008B569468DF8D8
:1006900000000320ABBE08BDFEE70000064A904202
:1006A00034BF0648064811F0005F064A01EA02011D
:1006B00014BFC16081607047106402400060024056
:1006C000006402407D0F7D0F0029016814BF41F0D6
:1006D000010121F001010160704700002DE9F003E4
:1006E000016821F001010160002101604160816029
:1006F000C160016121214161434A3D244349904247
:1007000002BF8C60BDE8F0037047414A4FF4746546
:10071000904202BF8D60BDE8F00370473D4A4FF440
:100720007418904202BFC1F80880BDE8F00370471A
:10073000394A4FF07466904202BF8E60BDE8F00304
:100740007047364B364A984202BFCA60BDE8F00394
:100750007047DFF8D0C0344B604502BFCB60BDE8C6
:10076000F0037047314FDFF8C8C0B84202BFC1F88C
:100770000CC0BDE8F0037047DFF8B8904FF03D576C
:10078000484502BFCF60BDE8F0037047DFF8A8908E
:100790002A49484502BF0C60BDE8F0037047284C69
:1007A000A04202BF0D60BDE8F0037047254CA04297
:1007B00002BFC1F80080BDE8F0037047224CA042A0
:1007C00002BF0E60BDE8F0037047204C2049A042F4
:1007D00002BF0A60BDE8F00370471E4A904202BFA4
:1007E0000B60BDE8F00370471B4A904202BFC1F89E
:1007F00000C0BDE8F0037047184A904208BF0F6080
:10080000BDE8F00370470000106002400060024045
:100810002860024040600240586002407060024020
:100820003D00002088600240400F0020A060024090
:1008300000003D20B860024010640240086402409D
:1008400028640240406402405864024070640240E0
:100850000C64024088640240A0640240B864024014
:1008600001460020096811F0010F18BF01207047F0
:10087000406880B2704700000246084B00209A4250
:1008800034BF074A074A11F0005F14BF526812686C
:10089000054B1A400A4218BF0120704710640240FD
:1008A00000600240006402407D0F7D0F10B40268BA
:1008B0001B4BD1F80CC01A400B6843EA0C03D1E97A
:1008C00005C44CEA040C43EA0C03D1F81CC043EA0B
:1008D0000C03D1F820C043EA0C03D1F824C043EA4A
:1008E0000C03D1F828C043EA0C03D1F834C043EA22
:1008F0000C03D1F838C043EA0C031A430260426982
:10090000D1E90B3C22F0070243EA0C031A4342618F
:100910000A6942604A6882608968C16010BC704799
:100920003F801CF041607047704700002DE9F001E6
:10093000002201255FF00306D1F800C005FA02F39A
:100940000CEA030C9C4533D107684FEA420C06FAC7
:100950000CF4A74307600F79D0F8008007FA0CF772
:1009600047EA080707600F79012F18BF022F14D13B
:100970008768A74387604F79D0F8088007FA0CF79B
:1009800047EA08078760476827EA0303436043682C
:100990008F799740BFB23B434360C368A343C360B2
:1009A000CB7903FA0CF3D0F80CC043EA0C03C36014
:1009B000521C102AC0D3BDE8F00170474B07DB0E74
:1009C0009A40C90800EB8100016A4FF00F0C0CFA45
:1009D00003F399430162016A114301627047FEE724
:1009E000FEE7704710B4C27801780F244FF0010C75
:1009F0000AB3174A126801F1E02102F4E062C2F57D
:100A0000E062C2F30722C2F10403D44042789A4064
:100A1000837823401A43120181F80024007800F003
:100A20001F010CFA01F14009800000F1E020C0F83C
:100A3000001110BC704701F01F000CFA00F04909CA
:100A4000890001F1E021C1F8800110BC704700006D
:100A50000CED00E0034940F0FD7040F0806008605C
:100A6000704700000CED00E070470000044A0029C8
:100A7000116814BF084321EA0000106070470000AD
:100A800030380240044A0029116814BF084321EAA3
:100A9000000010607047000040380240044A0029FE
:100AA000116814BF084321EA00001060704700007D
:100AB00020380240044A0029116814BF084321EA83
:100AC000000010607047000044380240044A0029CA
:100AD000116814BF084321EA00001060704700004D
:100AE00024380240254A30B41168254B11F00C011E
:100AF00006D05C10042908BF046002D008291ED06B
:100B0000036011680F2303EA11111E4B595CD0F8E2
:100B100000C02CFA01F14160D2F800C0072404EAB9
:100B20009C2C13F80CC021FA0CFCC0F808C0126809
:100B300004EA52329A5CD140C16030BC704712491D
:100B4000D1F800C0CCF38055D1F800C0002D0CF0D6
:100B50003F0C14BFB4FBFCF3B3FBFCF3D1F800C0B3
:100B60000968CCF3881C03FB0CF3C1F30141491C59
:100B70004900B3FBF1F10160C3E70000083802400F
:100B80000024F400540000200438024070477047ED
:100B9000374882B0016841F470010160354801684E
:100BA00041F001010160344900230B60026822F426
:100BB000102222F08072026000F1040C2F4ACCF85F
:100BC0000020026822F4802202600A1D1360019353
:100BD0000093026842F480320260026802F400323C
:100BE0000092019A521C0192009A1AB9019AB2F528
:100BF000A04FF2D1026812F4003F08BF009331D039
:100C0000012200921E4A136843F0805313601D4A6C
:100C1000136843F4404313600A680A600A6842F4A8
:100C200000420A600A6842F4A0520A60164ACCF8F0
:100C30000020026842F080720260026812F0007FB9
:100C4000FBD0124A40F205701060086820F00300E3
:100C50000860086840F002000860086800F00C00B6
:100C60000828FAD10A494FF00060086002B07047C6
:100C700088ED00E0003802400838024010300024BF
:100C8000403802400070004008544007003C0240D9
:100C900008ED00E010B50F4C9AB040F22441204618
:100CA00000F0F8FE002804BF1AB010BDA08820880C
:100CB00064226946204600F013FF0246694620463A
:100CC00001F0C0F840F22441204600F005F81AB0C7
:100CD00010BD000000100140090A012202FA01F1D2
:100CE000C943018070470029818914BF41F4005134
:100CF00021F40051818170472DE9FF4F87B01D001D
:100D0000149F1646814651D0002F0CBF4FF00808A3
:100D10004FF00C084FF0010AFF490024A9F180426E
:100D2000088C4FF0020BB2F5883214D012F54C4209
:100D30007ED0B2F5806200F0E180B2F5806200F012
:100D40004081B2F5806200F09E81B2F5444200F02D
:100D5000038200F063BAF04920F001000884486A79
:100D600020B1FFF7B4FAEC4844620480EA48806A94
:100D700020B1FFF7ACFAE848846244802800E64DD1
:100D800028806F8005D0FFF773FA68622988FFF723
:100D90000AFB688828B1FFF76BFAA8626988FFF739
:100DA00002FB688B10F0010F11D109E0002F18BF72
:100DB0004FF00408AED101F097F90BB0BDE8F08F09
:100DC00040F00100688301211020FFF773FE288B9B
:100DD00010F0010F40F0228240F001002883012131
:100DE0000846FFF743FE01210846FFF73FFECB4DC3
:100DF000072209212846FFF7E1FD07220A2128469C
:100E0000FFF7DCFD681500908DF804B003208DF825
:100E100005008DF806408DF807A069462846FFF7C3
:100E200085FD2815009069462846FFF77FFD00E004
:100E300001E000F0F3B9B84920F002000884C86A64
:100E400020B1FFF744FAB448C4628480B248006B12
:100E500020B1FFF73CFAB0480463C4802800AE4DCF
:100E6000A880EF8005D0FFF703FAE862A988FFF7B2
:100E70009AFAE88828B1FFF7FBF92863E988FFF7B9
:100E800092FA688B10F0020F06D140F002006883DE
:100E900001214804FFF7F6FD288B10F0020F40F007
:100EA000BD8140F00200288301210846FFF7DEFDE6
:100EB00001210846FFF7DAFD984D07220221284656
:100EC000FFF77CFD072203212846FFF777FD04206A
:100ED00000908DF804B003208DF805008DF80640D1
:100EE0008DF807A069462846FFF720FD08200090EE
:100EF00069462846FFF71AFD00F090B9864920F0B0
:100F000004000884486B20B1FFF7E1F9824844638C
:100F100004818148806B20B1FFF7D9F97E48846352
:100F2000448128007C4D28816F8105D0FFF7A0F90E
:100F300068632989FFF737FA688928B1FFF798F9BC
:100F4000A8636989FFF72FFA688B10F0040F06D1A8
:100F500040F00400688301218804FFF793FD288B8B
:100F600010F0040F40F05A8140F004002883012162
:100F70000220FFF77BFD01210220FFF777FD684D7E
:100F800007220A212846FFF719FD07220B212846D0
:100F9000FFF714FD281500908DF804B003208DF89C
:100FA00005008DF806408DF807A069462846FFF732
:100FB000BDFCE814009069462846FFF7B7FC00F036
:100FC0002DB9554920F008000884C86B20B1FFF7FF
:100FD0007EF95148C46384814F48006C20B1FFF70B
:100FE00076F94D480464C48128004B4DA881EF81F7
:100FF00005D0FFF73DF9E863A989FFF7D4F9E8893F
:1010000028B1FFF735F92864E989FFF7CCF9688B37
:1010100010F0080F06D140F0080068830121C804D1
:10102000FFF730FD288B10F0080F40F0F78040F0FC
:101030000800288301210420FFF718FD0121042066
:10104000FFF714FD374D08220A212846FFF7B6FCAA
:1010500008220B212846FFF7B1FC281500908DF8D7
:1010600004B003208DF805008DF806408DF807A028
:1010700069462846FFF75AFCE8140090694628465E
:10108000FFF754FCCAE0244920F010000884486CA3
:1010900020B1FFF71CF92048446404821E48806C8C
:1010A00020B1FFF714F91C488464448228001A4DCB
:1010B00028826F8205D0FFF7DBF86864298AFFF782
:1010C00072F9688A28B1FFF7D3F8A864698AFFF734
:1010D0006AF9688B10F0100F06D140F01000688399
:1010E00001210805FFF7CEFC288B10F0100F7DD1F1
:1010F00040F01000288301210420FFF7B7FC0121F4
:101100000820FFF7B3FC074D08220C212846FFF703
:1011100055FC0822022107E00000002000000240E8
:1011200000040240000802409A4F3846FFF746FC90
:10113000A81400908DF804B003208DF805008DF8F8
:1011400006408DF807A069462846FFF7EFFB04200C
:101150000090694638465FE08F4920F020000884FF
:10116000C86C20B1FFF7B3F88B48C46484828A4806
:10117000006D20B1FFF7ABF887480465C4822800F2
:10118000854DA882EF8205D0FFF772F8E864A98A3E
:10119000FFF709F9E88A28B1FFF76AF82865E98AB4
:1011A000FFF701F9688B10F0200F06D140F0200006
:1011B000688301212020FFF77DFC288B10F0200F91
:1011C0002CD140F02000288301210420FFF74EFCA1
:1011D00001210420FFF74AFC704D08220621284611
:1011E000FFF7ECFB08220721284600E016E0FFF796
:1011F000E5FB402000908DF804B003208DF8050039
:101200008DF806408DF807A069462846FFF78EFB4B
:101210008020009069462846FFF788FB484600F08A
:10122000C7FB08980290ADF80C40ADF81040ADF83F
:101230000E40ADF81280ADF8144002A9484600F007
:10124000A5FD18F0080F04D001228021484600F0C7
:10125000A7F818F0040F04D001224021484600F0FE
:101260009FF82820B04304D101222821484600F0ED
:1012700075FD40F22770B04305D1012240F227717D
:10128000484600F06BFD40F22660B04305D10122D4
:1012900040F22661484600F061FD40F22550B0431F
:1012A00005D1012240F22551484600F057FD40F299
:1012B0002530B04305D1012240F22531484600F0E7
:1012C0004DFD40F22440B04305D1012240F22441BB
:1012D000484600F043FD40F64600B04305D10122E8
:1012E00040F64601484600F039FD40F66A10B0432A
:1012F00005D1012240F66A11484600F02FFD60201A
:10130000B04304D101226021484600F027FD4FF48C
:101310005870B04305D101224FF45871484600F08F
:101320001DFD4FF41870B04305D101224FF4187120
:10133000484600F013FD4FF4B070B04305D10122D0
:101340004FF4B071484600F009FD01214846FFF70F
:10135000CAFCB8F1080F0BD0B8F1040F484610D002
:1013600000F0A6F9484600F023F80BB0BDE8F08F76
:10137000484600F09DF9484600F00EF90BB0BDE874
:10138000F08F00F015F8484600F086FA0BB0BDE883
:10139000F08F0000000C0240000000200008024016
:1013A000002A828A14BF114322EA01018182704718
:1013B0002DE9F047654D664E664FDFF89C81DFF8FA
:1013C0009CA1DFF89C9190B00446A84218BFB4429B
:1013D00003D0BC4218BF444539D101215FEA4150D6
:1013E000FFF744FB00204FF480610390CDE9050135
:1013F0008910CDE908010902CDE90A1003210790FF
:10140000CDE90C100E9057484FF00061544525D19E
:10141000C28B564C42F00102C283009152490191A5
:10142000816A0291408804902046FFF757F92046D0
:10143000FFF716FA0028FAD169462046FFF736FA78
:1014400001212046FFF740F910B0BDE8F087544570
:1014500012BF4C4501218805C2D0C3E7AC4214D16C
:10146000C28B444C42F00202C28300914049019178
:10147000016B0291C08804902046FFF72FF92046A7
:10148000FFF7EEF90028FAD1D6E7B44214D1C28BA7
:101490003A4C42F00402C283009137490191816BBA
:1014A0000291408904902046FFF718F92046FFF783
:1014B000D7F90028FAD1BFE7BC4214D1C28B314C16
:1014C00042F00802C28300912D490191016C029102
:1014D000C08904902046FFF701F92046FFF7C0F9C4
:1014E0000028FAD1A8E7444514D1C28B274C42F01A
:1014F0001002C283009124490191816C0291408ABB
:1015000004902046FFF7EAF82046FFF7A9F90028E3
:10151000FAD191E74C451CBF10B0BDE8F087C18BF4
:101520001C4C41F02001C1834FF02061009118490B
:101530000191016D0291C08A04902046FFF7CEF818
:101540002046FFF78DF90028FAD175E700440040E6
:1015500000480040004C0040005000400010014096
:1015600000140140000000200410014040640240CB
:101570000444004088600240044800402860024063
:10158000044C0040406002400450004010600240A3
:1015900004140140286402403E4A10B5D18BA0F1EA
:1015A0008043B3F5883320D013F54C432ED0B3F5E8
:1015B00080633CD0B3F580634AD0B3F5806358D0E4
:1015C000B3F5444318BF10BD11F0200F08BF10BD84
:1015D00021F02000304CD0832046FFF77FF82046D2
:1015E000FFF73EF90028FAD110BD11F0010F08BF36
:1015F00010BD21F00100294CD0832046FFF76EF882
:101600002046FFF72DF90028FAD110BD11F0020F86
:1016100008BF10BD21F00200214CD0832046FFF707
:101620005DF82046FFF71CF90028FAD110BD11F033
:10163000040F08BF10BD21F004001A4CD0832046CF
:10164000FFF74CF82046FFF70BF90028FAD110BD40
:1016500011F0080F08BF10BD21F00800124CD08314
:101660002046FFF73BF82046FFF7FAF80028FAD1AA
:1016700010BD11F0100F08BF10BD21F010000B4C71
:10168000D0832046FFF72AF82046FFF7E9F8002824
:10169000FAD110BD000000202864024040640240DE
:1016A00088600240286002404060024010600240B2
:1016B0002DE9F047654D664E664FDFF89C81DFF8F7
:1016C0009CA1DFF89C9190B00446A84218BFB44298
:1016D00003D0BC4218BF444539D101215FEA4150D3
:1016E000FFF7C4F94020039000204FF48061CDE95A
:1016F0000501079089010890CDE909010321CDE991
:101700000B010D900E9057484FF00061544525D1C4
:10171000828B564C42F00102828300915249019122
:10172000416A0291008804902046FEF7D7FF2046C8
:10173000FFF796F80028FAD169462046FFF7B6F879
:1017400000212046FEF7C0FF10B0BDE8F0875445E9
:1017500012BF4C4501218805C2D0C3E7AC4214D169
:10176000828B444C42F002028283009140490191F5
:10177000C16A0291808804902046FEF7AFFF2046A0
:10178000FFF76EF80028FAD1D6E7B44214D1828B65
:101790003A4C42F004028283009137490191416B37
:1017A0000291008904902046FEF798FF2046FFF73B
:1017B00057F80028FAD1BFE7BC4214D1828B314CD4
:1017C00042F00802828300912D490191C16B029180
:1017D000808904902046FEF781FF2046FFF740F8FD
:1017E0000028FAD1A8E7444514D1828B274C42F057
:1017F00010028283009124490191416C0291008A78
:1018000004902046FEF76AFF2046FFF729F80028DB
:10181000FAD191E74C451CBF10B0BDE8F087818B31
:101820001C4C41F0200181834FF020610091184948
:101830000191C16C0291808A04902046FEF74EFF10
:101840002046FFF70DF80028FAD175E70044004064
:1018500000480040004C0040005000400010014093
:10186000001401400000002004100140B864024050
:1018700004440040A0600240044800405860024018
:10188000044C00407060024004500040B8600240C8
:1018900004140140A06402403E4A10B5918BA0F1AF
:1018A0008043B3F5883320D013F54C432ED0B3F5E5
:1018B00080633CD0B3F580634AD0B3F5806358D0E1
:1018C000B3F5444318BF10BD11F0200F08BF10BD81
:1018D00021F02000304C90832046FEF7FFFE20468A
:1018E000FEF7BEFF0028FAD110BD11F0010F08BFAE
:1018F00010BD21F00100294C90832046FEF7EEFE3A
:101900002046FEF7ADFF0028FAD110BD11F0020FFE
:1019100008BF10BD21F00200214C90832046FEF745
:10192000DDFE2046FEF79CFF0028FAD110BD11F025
:10193000040F08BF10BD21F004001A4C908320460C
:10194000FEF7CCFE2046FEF78BFF0028FAD110BD33
:1019500011F0080F08BF10BD21F00800124C908351
:101960002046FEF7BBFE2046FEF77AFF0028FAD19C
:1019700010BD11F0100F08BF10BD21F010000B4C6E
:1019800090832046FEF7AAFE2046FEF769FF002856
:10199000FAD110BD00000020A0640240B8640240EB
:1019A000A06002405860024070600240B86002408F
:1019B00010B5A0F18041B1F5883120D011F54C412E
:1019C00027D0B1F580612FD0B1F5806137D0B1F566
:1019D00080613FD0B1F5444147D011F51C414ED054
:1019E000B1F5806118BF10BD0121C807FFF756F897
:1019F000BDE8104000214FF00040FFF74FB8012133
:101A00001020FFF763F80021BDE810401020FFF719
:101A10005DB801214804FFF741F8BDE810400021FE
:101A20004FF40030FFF73AB801218804FFF736F889
:101A3000BDE8104000214FF48020FFF72FB80121AE
:101A4000C804FFF72BF8BDE8104000214FF4002038
:101A5000FFF724B801210805FFF720F8BDE8104082
:101A600000214FF48010FFF719B801212020FFF763
:101A70002DF80021BDE810402020FFF727B80121F4
:101A80008807FFF70BF8BDE8104000214FF08040B9
:101A9000FFF704B810B401F01F0201240023C1F3C2
:101AA000421C04FA02F2BCF1010F04BFB0F80CC0F2
:101AB0000CEA020208D0BCF1020F0CBFB0F810C053
:101AC000B0F814C00CEA0202090A008804FA01F115
:101AD0000840002A1CBF00280123184610BC70478C
:101AE0002DE9F0410F46160001464FF0000400F0CA
:101AF0000681934DA1F18042B2F58832E88B11D076
:101B000012F54C423BD0B2F5806263D0B2F58062F0
:101B10007ED0B2F580627CD0B2F5444200F0E08025
:101B200000F00BB910F0010008BFBDE8F081DFF84C
:101B300014824046FEF79CFE6988081A84B2B442BB
:101B400000F2DD8022463846A96AFEF7E7FB698885
:101B5000A86AFEF728FC002146464046FEF7B4FD81
:101B60003046FEF77DFE0028FAD169883046FEF740
:101B7000D9FE01213046FEF7A7FD00F0DEB810F0D7
:101B8000020008BFBDE8F081DFF8BC814046FEF7E7
:101B90006FFEE988081A84B2B44274D822463846E7
:101BA000296BFEF7BBFBE988286BFEF7FCFB0021E5
:101BB00046464046FEF788FD3046FEF751FE0028B7
:101BC000FAD1E9883046FEF7ADFE01213046FEF736
:101BD0007BFDB2E010F0040008BFBDE8F081DFF843
:101BE0006C814046FEF744FE6989081A84B2B4420B
:101BF00049D822463846A96BFEF790FB6989A86B45
:101C0000FEF7D1FB002146464046FEF75DFD01E0B0
:101C10000EE039E03046FEF723FE0028F7D169894F
:101C20003046FEF77FFE01213046FEF74DFD84E091
:101C300010F0080008BFBDE8F081DFF814814046CD
:101C4000FEF716FEE989081A84B2B44257D8224634
:101C50003846296CFEF762FBE989286CFEF7A3FB86
:101C6000002146464046FEF72FFD3046FEF7F8FDC0
:101C70000028FAD1E9893046FEF754FE01213046AA
:101C8000FEF722FD59E03AE010F0100008BFBDE871
:101C9000F081DFF8C0804046FEF7EAFD698A081A45
:101CA00084B2B4422BD822463846A96CFEF736FBE4
:101CB000698AA86CFEF777FB002146464046FEF78E
:101CC00003FD3046FEF7CCFD0028FAD1698A304684
:101CD000FEF728FE01213046FEF7F6FC2DE000BF9E
:101CE00010F0200008BFBDE8F081DFF86C804046AE
:101CF000FEF7BEFDE98A081A84B2B44202D9002078
:101D0000BDE8F08122463846296DFEF707FBE98AD7
:101D1000286DFEF748FB002146464046FEF7D4FCFE
:101D20003046FEF79DFD0028FAD1E98A3046FEF7DD
:101D3000F9FD01213046FEF7C7FC2046BDE8F081E1
:101D40000000002040640240886002402860024099
:101D5000406002401060024028640240C1F3421318
:101D600001F01F014FF0010C0CFA01F1012B08BF2B
:101D70000C3003D0022B0CBF10301430002A026844
:101D800014BF114322EA01010160704730B50446D7
:101D9000008A85B00D46C98820F44050084320824F
:101DA000A089A9882A8920F4037011436A8920F444
:101DB000A05010430843A081A08AA98920F4407054
:101DC0000843A0826846FEF78DFEA4F18040B0F57E
:101DD00088301BBFA4F18040B0F58A300398029888
:101DE000A18911F4004F00EBC00101EB001029683C
:101DF00014BF49008900B0FBF1F0114A6FF0180CD4
:101E0000A2FB0031490909010B0903FB0CF300EBAC
:101E10008300A38913F4004F4FF0320314BF03EB88
:101E2000C00003EB0010A2FB00204FEA501014BFCB
:101E300000F0070000F00F000843208105B030BD1E
:101E40001F85EB51002A04BF002070472DE9F041A7
:101E50009C4C0F4601461546A08B238CA1F1804275
:101E6000B2F5883212D0984E12F54C423CD0B2F501
:101E7000806264D0B2F580627DD0B2F580627BD0A2
:101E8000B2F5444200F0E68000F019B910F001000C
:101E900008BFBDE8F0812088854200F210818B4E9A
:101EA00013F0010F04BF43F00100208407D000BFEE
:101EB0004FF020513046FEF7DFFC0028F8D02A46CC
:101EC0003946606AFEF72AFA4FF020513446304610
:101ED000FEF7E4FB00212046FEF7F6FB2046FEF766
:101EE000BFFC0028FAD1DFE010F0020008BFBDE817
:101EF000F081A08885427DD8DFF8D48113F0020FED
:101F000004BF43F00200208405D031464046FEF76E
:101F1000B3FC0028F9D02A463946E06AFEF7FEF9FC
:101F2000314644464046FEF7B9FB00212046FEF705
:101F3000CBFB2046FEF794FC0028FAD1B4E010F069
:101F4000040008BFBDE8F0812089854252D8614E67
:101F500013F0040F04BF43F00400208407D000BF37
:101F60004FF0C0513046FEF787FC0028F8D02A46D3
:101F70003946606B01E012E03FE0FEF7CFF94FF029
:101F8000C05134463046FEF789FB00212046FEF75B
:101F90009BFB2046FEF764FC0028FAD184E010F099
:101FA000080008BFBDE8F081A089854222D8DFF88B
:101FB00028814A4E13F0080F04BF43F00800208424
:101FC00005D041463046FEF757FC0028F9D02A4696
:101FD0003946E06BFEF7A2F9414634463046FEF73B
:101FE0005DFB00212046FEF76FFB2046FEF738FC24
:101FF000002800E063E0F8D156E010F0100008BFC0
:10200000BDE8F081208A854259D8354E13F0100F73
:1020100004BF43F01000208407D000BF4FF02051D0
:102020003046FEF729FC0028F8D02A463946606C75
:10203000FEF774F94FF0205134463046FEF72EFB80
:1020400000212046FEF740FB2046FEF709FC002851
:10205000FAD129E010F0200008BFBDE8F081A08A85
:1020600085422CD8DFF87C8013F0200F04BF43F0AA
:102070002000208405D031464046FEF7FDFB0028B5
:10208000F9D02A463946E06CFEF748F93146444615
:102090004046FEF703FB00212046FEF715FB2046D5
:1020A000FEF7DEFB0028FAD129462046FEF73AFC6F
:1020B00001212046FEF708FB2846BDE8F0810020FC
:1020C000BDE8F0810000002000002020B86402403C
:1020D000A060024058600240200000207060024072
:1020E000B8600240A064024070B5804C7E4E00256E
:1020F000218CB04225D121F001002084606A18B102
:10210000FEF7E5F865622580A06A18B1FEF7DFF8F2
:10211000A5626580608B10F0010F08BF70BD20F0D4
:102120000100608300211020FEF7C4FC3046FFF759
:102130003FFC3046FFF7B0FB3046BDE87040FFF78C
:102140002BBA6B4EB04226D121F002002084E06A07
:1021500018B1FEF7BCF8E562A580206B18B1FEF758
:10216000B6F82563E580608B10F0020F08BF70BDE4
:1021700020F00200608300214FF40030FEF782FC63
:102180003046FFF715FC3046FFF786FB3046BDE8CA
:102190007040FFF701BA574EB04226D121F004003B
:1021A0002084606B18B1FEF792F865632581A06BFF
:1021B00018B1FEF78CF8A5636581608B10F0040FF1
:1021C00008BF70BD20F00400608300214FF4802020
:1021D000FEF758FC3046FFF7EBFB3046FFF75CFBA1
:1021E0003046BDE87040FFF7D7B9434EB04226D124
:1021F00021F008002084E06B18B1FEF768F8E56371
:10220000A581206C18B1FEF762F82564E581608B2A
:1022100010F0080F08BF70BD20F008006083002197
:102220004FF40020FEF72EFC3046FFF7C1FB30468E
:10223000FFF732FB3046BDE87040FFF7ADB92F4ED7
:10224000B04226D121F010002084606C18B1FEF756
:102250003EF865642582A06C18B1FEF738F8A564D5
:102260006582608B10F0100F08BF70BD20F0100069
:10227000608300214FF48010FEF704FC3046FFF726
:1022800097FB3046FFF708FB3046BDE87040FFF78C
:1022900083B91B4EB04218BF70BD21F020002084CE
:1022A000E06C18B1FEF713F8E564A582206D18B153
:1022B000FEF70DF82565E582608B10F0200F08BF52
:1022C00070BD20F02000608300212020FEF7F2FB8B
:1022D0003046FFF76DFB3046FFF7DEFA3046BDE8CB
:1022E0007040FFF759B900000010014000000020C5
:1022F0000044004000480040004C004000500040B6
:1023000000140140FEE7000082B064200346009004
:1023100040F224424FF4E1310A48FEF7EDFC4FF45D
:10232000E060FEF797FB25208DF8000000208DF877
:1023300001008DF8020001208DF803006846FEF7C9
:1023400051FBFEE7001001404FF04070E1EE100A33
:1023500070470000742300080000002064000000A3
:10236000C4010008D82300086400002064060000AF
:10237000E001000800000000000000000000000074
:10238000000000000000000000000000000000004D
:10239000000000000000000000000000000000003D
:1023A000000000000000000000000000000000002D
:1023B000000000000000000000000000000000001D
:1023C0000000000000000000000000000102030403
:0823D0000102030406070809DD
:040000050800018965
:00000001FF
